:100000000C947E010C94AF010C94AF010C94AF01E1
:100010000C94AF010C94AF010C94AF010C94AF01A0
:100020000C94AF010C94AF010C94AF010C94AF0190
:100030000C94AF010C94AF010C94AF010C94AF0180
:100040000C94AF010C9472030C94AF010C94AF01AB
:100050000C94AF010C94AF010C94AF010C949F0869
:100060000C94AF010C94F60B0C942C0C0C94AF0177
:100070000C94AF010C94AF010C94AF010C94AF0140
:100080000C94A0030C94AF010C94AF010C94AF013D
:100090000C94A30C0C94D90C0C94AF010C94AF01EC
:1000A0000C94AF010C94AF010C94CE030C94AF01EF
:1000B0000C94AF010C94AF010C94AF010C94FC03B1
:1000C0000C94AF010C94AF010C94AF010C94500D43
:1000D0000C94860D0C94AF010C94FD0D0C94330E12
:1000E0000C94AF01D809DB09CA09CE09D409120A58
:1000F000DF09E309E909ED09F109F709FB09FF093E
:10010000120A050A090A0D0A0C94FF090C940D0D38
:100110000C94E3090C94CE090C94050A0C94B101DB
:100120000C94BA0E0C94090A0C940D0A0C942F0B23
:100130000C94030D0C940D0B0C94D4090C94AF0289
:100140000C949B0A0C9494020C94600C0C94120A6C
:100150000C94E9090C94CA090C94DB090C94F1097C
:100160000C94D8090C94BA0D0C94ED090C945D0E06
:100170000C94F7090C94670E0C94FB090C94DF099E
:100180000C948D0A0C94AF0A0C94B00D0C94560C80
:100190000C94820A00000A0B02090C0D0E080703DA
:1001A000040100000000000000000000000000004A
:1001B000000000000000000000000000000000003F
:1001C00012111000000000000000000000000000FC
:1001D00000000000000000000000010210202008C4
:1001E0000810204010204080020102010804020192
:1001F0000102040810204080804020100804020101
:100200008004020180402010080402010804020159
:1002100001020408102040800102040810204080E0
:1002200005050505070508080808020202020A0A72
:100230000808040404040101010101010101030390
:10024000030303030303040707070C0C0C0C0C0C3B
:100250000C0C0202020206060606060606060B0B38
:100260000B0B0B0B0B0B00002000230026002900BA
:100270002C002F00320000010000030106010901DB
:1002800000002200250028002B002E003100340041
:1002900002010000050108010B01000021002400FB
:1002A00027002A002D003000330001010000040166
:1002B00007010A014E414E494E495459494E46CD17
:1002C000CCCC3D0AD7233C17B7D13877CC2B32950D
:1002D00095E6241FB14F0A000020410000C84200EB
:1002E000401C4620BCBE4CCA1B0E5AAEC59D7400B5
:1002F0009402600C0D0DBA0D670EAF0211241FBEE3
:10030000CFEFD1E2DEBFCDBF00E00CBF12E0A0E036
:10031000B2E0E4EAF6E300E00BBF02C007900D9202
:10032000A43AB107D9F726E0A4EAB2E001C01D92D1
:10033000A032B207E1F712E0CAEFD2E000E006C057
:1003400022970109FE010BBF0E945414C03FD10740
:1003500080E00807A9F70E94AB0E0C94401B0C9498
:100360000000CF93C82FE0913D04F0913E0401902E
:10037000F081E02D682F8DE394E019958C2F99275B
:1003800087FD9095CF91089584EA92E00E948710AE
:1003900084EB92E00E94871084EC92E00C9487102A
:1003A000CF93DF93EC0164E972E00E94F510FE0147
:1003B000369688E0DF011D928A95E9F71F861E8632
:1003C000DF91CF9108950F931F93CF93DF9340E078
:1003D00060E08AED92E00E946E06C4EFD2E068838E
:1003E00079838A839B8360E08AED92E00E94CE0647
:1003F0000CEF12E0F80160837183828393836AE0DB
:1004000072E080EA93E00E94F80EF8014081518189
:100410006281738121E030E080EA93E00E948510E0
:1004200061E172E080EA93E00E94F80E4881598110
:100430006A817B8121E030E080EA93E0DF91CF9117
:100440001F910F910C94851084EC92E00E941B0781
:1004500084EA92E00E94BB070E94E30184EB92E0F1
:100460000E941E0764E670E080E090E00C9418099A
:1004700060E070E081EB91E00C94931661E083E022
:100480000E94130A61E084E00E94130A61E085E0A3
:100490000E94130A61E086E00E94130A61E087E08F
:1004A0000E94130A60E088E00E94130A60E088E07E
:1004B0000E94130A60E088E00E94130A26E040E0F0
:1004C00052EC61E070E080EA93E00E94940B26E039
:1004D00040E052EC61E070E08DE394E00E94940B08
:1004E00026E040E659E060E070E08AED94E00E948A
:1004F000940B26E040E052EC61E070E087E795E085
:100500000E94940B0E9438028AED92E00E941C0522
:100510006BE070E087ED92E00E94F5046CE070E023
:1005200084ED92E00C94F50426E04BE06DE28AED58
:1005300092E00E94FB0487ED92E00E942A0484ED81
:1005400092E00E942A0484EC92E00E94D00184EBA5
:1005500092E00E94D00184EA92E00C94D0010C94C5
:10056000C401CF92DF92EF92FF920F931F93CF932C
:10057000DF936C018B017A01EC01CD5FDC4F888148
:1005800087FF04C0FB011182108223C02CE02C9D48
:10059000C0012D9D900D11242881AC01420F511DE9
:1005A00027FD5A952091020330E0421753078CF43F
:1005B0002881AC01420F511D27FD5A959A01FA017D
:1005C000EE0FFF1FE20FF31FE95FFC4F208126FDB6
:1005D00019C088818F5F88838CE08C9D90018D9DF0
:1005E000300D11248881A901480F511D87FD5A95AE
:1005F0008091020390E048175907B4F488818C3049
:100600003CF112C02881820F911D27FD9A95FC01B3
:10061000EE0FFF1FE80FF91FE95FFC4F808160E0DC
:100620008F730E944C0AD5CFF80180819181049686
:1006300080349C4918F480E49CE904C0F80180816E
:1006400091810496F701918380838FEF888341C065
:10065000F801808191814881B901640F711D47FDC6
:100660007A95AB01FB01EE0FFF1FE40FF51FE95F69
:10067000FC4F41815281840F951FF7019183808344
:100680008881A901480F511D87FD5A95FA01EE0F87
:10069000FF1FE40FF51FE95FFC4F808186FF19C043
:1006A0008881280F311D87FD3A95F901EE0FFF1F54
:1006B000E20FF31FE95FFC4F808161E08F73DF91F0
:1006C000CF911F910F91FF90EF90DF90CF900C94FE
:1006D0004C0ADF91CF911F910F91FF90EF90DF9027
:1006E000CF9008951F920F920FB60F9211240BB660
:1006F0000F922F933F934F935F936F937F938F93BB
:100700009F93AF93BF93EF93FF9348E850E064E863
:1007100070E081E090E00E94B102FF91EF91BF9103
:10072000AF919F918F917F916F915F914F913F9189
:100730002F910F900BBE0F900FBE0F901F9018952A
:100740001F920F920FB60F9211240BB60F922F9398
:100750003F934F935F936F937F938F939F93AF9349
:10076000BF93EF93FF9348E950E064E970E082E0C3
:1007700090E00E94B102FF91EF91BF91AF919F91E4
:100780008F917F916F915F914F913F912F910F903A
:100790000BBE0F900FBE0F901F9018951F920F92D7
:1007A0000FB60F9211240BB60F922F933F934F93D6
:1007B0005F936F937F938F939F93AF93BF93EF93C9
:1007C000FF9348EA50E064EA70E083E090E00E9422
:1007D000B102FF91EF91BF91AF919F918F917F9166
:1007E0006F915F914F913F912F910F900BBE0F90A2
:1007F0000FBE0F901F9018951F920F920FB60F9279
:1008000011240BB60F922F933F934F935F936F93E7
:100810007F938F939F93AF93BF93EF93FF9348E2A0
:1008200051E064E271E080E090E00E94B102FF914B
:10083000EF91BF91AF919F918F917F916F915F9158
:100840004F913F912F910F900BBE0F900FBE0F90C5
:100850001F901895209102032033A0F431E0320F4D
:1008600030930203FC012083822F90E0FC01EE0F05
:10087000FF1FE80FF91FE95FFC4F88EB9BE09283B5
:10088000818308952FEFFC0120830895DF92EF927A
:10089000FF920F931F93CF93DF93EC01D62E7A0133
:1008A00089018881803308F068C061E08D2D0E9445
:1008B000130A8881A82FB0E0FD01EE0FFF1FEA0F99
:1008C000FB1FE95FFC4F2D2D2F739081907C922BA5
:1008D000908360E272E06E197F0977FF02C06D5F5E
:1008E0007F4F7595679575956795698340E659E0E3
:1008F000401B510B57FF02C04D5F5F4F5595479509
:10090000559547954A836CE00E9415149CE0899F99
:10091000B001112420E030E0A901460F571FFA0171
:10092000EE0FFF1FE40FF51FE95FFC4F908196FD6E
:1009300018C02F5F3F4F2C30310571F790E08130A8
:10094000910521F51092800082E080938100109241
:10095000850010928400B19A80916F00826080932C
:100960006F00888190E0FC01EE0FFF1FE80FF91F78
:10097000E95FFC4F8081806480838881DF91CF9123
:100980001F910F91FF90EF90DF90089582309105B5
:1009900069F41092900082E080939100109295008B
:1009A0001092940088BB80937100DBCF8330910557
:1009B00069F41092A00082E08093A1001092A5003B
:1009C0001092A40089BB80937200CBCF892B49F68B
:1009D0001092200182E08093210110922501109253
:1009E00024018ABB80937300BCCF20E639E040E24B
:1009F00052E00C944604DC0115966C9315971696FC
:100A00004C93169770E0FB01E652FE4FE491179667
:100A1000EC931797FB01E05EFD4F649118966C9381
:100A2000189740E85EE360E070E01D964D935D939B
:100A30006D937C9350970895CF93DF93EC0162E020
:100A40008D810E94130A40E358EF6FEF7FEF4987D3
:100A50005A876B877C87DF91CF910895AF92BF92C1
:100A6000CF92DF92EF92FF920F931F93CF93DF937A
:100A7000EC01AF80662311F0BA2C01C0B12CA8851F
:100A8000B0E0AA0FBB1FAA59BD4F40E050E0BA0129
:100A9000FD0185919491FC0180818A218B1112C006
:100AA0008A019B010F5F1F4F2F4F3F4FCD84DE8484
:100AB000EF84F8884C155D056E057F0538F4B901A3
:100AC000A801E6CF342F252FCB0104C030E020E071
:100AD00080E090E0632F722FDF91CF911F910F91F3
:100AE000FF90EF90DF90CF90BF90AF900895CF929E
:100AF000DF92EF92FF920F931F93CF93DF93CDB7C7
:100B0000DEB7C054D1400FB6F894DEBF0FBECDBFE4
:100B10008C01F62E0E94E908F11016C0F801C1847C
:100B2000D284E384F4849B01AC012C193D094E0965
:100B30005F0969017A0130EDC31637E0D306E1049D
:100B4000F10410F48189BAC0F80161877287838744
:100B500094871482138212821182108261E085814F
:100B60000E944C0A6AEF70E080E090E00E94180951
:100B700061E0F80185810E94130A60E0F801858137
:100B80000E944C0A64E170E080E090E00E94180945
:100B9000F89461E0F80185810E944C0A88E290E0B7
:100BA0000E94520962E0F80185810E94130A8AE0DE
:100BB00090E00E94520960E0C8010E942E05672B58
:100BC000682B692B41F061E0C8010E942E05672B5C
:100BD000682B692B21F4F801118A78946EC06E019C
:100BE000FFEBCF1AFEEFDF0A9E012F5F3F4F790127
:100BF00060E0C8010E942E05F70160837183828343
:100C0000938361E0C8010E942E05F7016483758318
:100C100086839783F8E0EF0EF11CEC14FD0441F796
:100C200078949E012F5F3F4F790120E030E0F7017B
:100C3000408151816281738184819581A681B781D0
:100C40004115510561057105B1F10097A105B10587
:100C500091F1F901F595E795F595E795F595E79506
:100C6000E00FF11FD080DD0C481759076A077B079A
:100C700010F0D08203C08D2D816080832F5F3F4FA5
:100C8000F8E0EF0EF11C2832310589F6F8012481D5
:100C900030E04081818190E0840F911D4281840F7A
:100CA000911D4381840F911D99272817390719F445
:100CB00081E0818B03C0F801118A80E0C05CDE4FC7
:100CC0000FB6F894DEBF0FBECDBFDF91CF911F915D
:100CD0000F91FF90EF90DF90CF900895CF92DF9229
:100CE000EF92FF920F931F93CF93DF93EC01162F98
:100CF000642F0E947705882309F443C08E818B30CE
:100D000031F008F43EC08551823040F03AC06A812B
:100D100070E080E090E00E94F81224C00A81602F09
:100D20006F7770E080E090E00E94FA1220E030E0FF
:100D300040E853E40E94AE136B017C016B8170E0CC
:100D400080E090E00E94FA129B01AC01C701B6015D
:100D50000E94F7112DEC3CEC4CEC5DE30E94AE13CD
:100D600007FD9058112389F026E636E646EE5FE34C
:100D70000E94AE1320E030E040E052E40E94F71100
:100D800004C060E070E080EC9FE7DF91CF911F919D
:100D90000F91FF90EF90DF90CF900895CF92DF9268
:100DA000EF92FF92CF93DF93EC0160E00E94770512
:100DB000882379F18E818B3029F158F18551823069
:100DC00040F5688170E080E090E00E94F81220E039
:100DD00030E040E853E40E94AE136B017C0169816E
:100DE00070E080E090E00E94FA129B01AC01C70124
:100DF000B6010E94F7112DEC3CEC4CEC5DE30E9437
:100E0000AE130BC0688170E080E090E00E94F812A1
:100E100004C060E070E080EC9FE7DF91CF91FF902D
:100E2000EF90DF90CF900895DC01ED91FC9102806E
:100E3000F381E02D199481E090E00895CF93DF9342
:100E400000D0CDB7DEB78FEF89838A838B83609123
:100E5000EC027091ED028091EE029091EF020E94FF
:100E6000C7127F936F9388E192E09F938F930E94C4
:100E7000DE1643E050E0BE016F5F7F4F8DE394E0EC
:100E80000E9414076091F0027091F1028091F202C9
:100E90009091F3020E94C7127F936F9389E292E0D0
:100EA0009F938F930E94DE1643E050E0BE016F5F78
:100EB0007F4F8DE394E00E9414076091F8027091D7
:100EC000F9028091FA029091FB020E94C7127F936F
:100ED0006F938AE392E09F938F930E94DE1643E024
:100EE00050E0BE016F5F7F4F8DE394E00E941407D6
:100EF0006091F4027091F5028091F6029091F702F0
:100F00000E94C7127F936F938BE492E09F938F931D
:100F10000E94DE1643E050E0BE016F5F7F4F8DE31D
:100F200094E00E9414076091FC027091FD02809190
:100F3000FE029091FF020E94C7127F936F938CE58F
:100F400092E09F938F930E94DE1643E050E0BE0133
:100F50006F5F7F4F8DE394E00E9414070FB6F89403
:100F6000DEBF0FBECDBF81E090E00F900F900F90DD
:100F7000DF91CF910895EF92FF920F931F93CF933C
:100F8000DF93CDB7DEB72C970FB6F894DEBF0FBE58
:100F9000CDBF8C0164E972E0CE0107960E94F51086
:100FA0008AED94E00E94820A181619060CF0B4C06B
:100FB00080E1E82EF12C88E790E00E9452098AED4A
:100FC00094E00E949B0A682FC8010E94911181E061
:100FD000E81AF10881F724E030E040E050E0B80181
:100FE000CE0101960E94A511BE016F5F7F4FCE0119
:100FF00007960E944111CE0101960E948710CE01F2
:1010000007960E94EA116093EC027093ED028093C0
:10101000EE029093EF0229E030E045E050E0B801A5
:10102000CE0101960E94A511BE016F5F7F4FCE01D8
:1010300007960E944111CE0101960E948710CE01B1
:1010400007960E94EA116093F0027093F102809378
:10105000F2029093F3022EE030E04AE050E0B80153
:10106000CE0101960E94A511BE016F5F7F4FCE0198
:1010700007960E944111CE0101960E948710CE0171
:1010800007960E94EA116093F8027093F902809328
:10109000FA029093FB026DE672E080EA93E00E9410
:1010A000F80E4091EC025091ED026091EE027091C9
:1010B000EF0222E030E080EA93E00E94851062E7D0
:1010C00072E080EA93E00E94F80E4091F80250919D
:1010D000F9026091FA027091FB0222E030E080EAAE
:1010E00093E00E9485106AE772E080EA93E00E9434
:1010F000F80E4091F0025091F1026091F20270916D
:10110000F30222E030E080EA93E00E94851064E977
:1011100072E0C8010E944D11CE0107960E9487100F
:1011200081E090E02C960FB6F894DEBF0FBECDBFE5
:10113000DF91CF911F910F91FF90EF9008951F9233
:101140000F920FB60F9211242F933F938F939F937B
:10115000AF93BF938091980390919903A0919A03C4
:10116000B0919B033091970323E0230F2D3720F498
:101170000196A11DB11D05C026E8230F0296A11DF1
:10118000B11D209397038093980390939903A093A4
:101190009A03B0939B0380919C0390919D03A0912F
:1011A0009E03B0919F030196A11DB11D80939C03E6
:1011B00090939D03A0939E03B0939F03BF91AF9123
:1011C0009F918F913F912F910F900FBE0F901F9085
:1011D00018952FB7F89460919803709199038091B6
:1011E0009A0390919B032FBF08953FB7F894809185
:1011F0009C0390919D03A0919E03B0919F0326B5FF
:10120000A89B05C02F3F19F00196A11DB11D3FBF3E
:101210006627782F892F9A2F620F711D811D911DCE
:1012200042E0660F771F881F991F4A95D1F70895EE
:101230008F929F92AF92BF92CF92DF92EF92FF92E6
:101240006B017C010E94F5084B015C01C114D104C3
:10125000E104F104F1F00E94F5110E94F50868190B
:1012600079098A099B09683E73408105910570F3ED
:1012700021E0C21AD108E108F10888EE880E83E067
:10128000981EA11CB11CC114D104E104F10429F77A
:10129000DDCFFF90EF90DF90CF90BF90AF909F9009
:1012A0008F9008958230910538F0880F991F880F2C
:1012B000991F05970197F1F70895789484B5826096
:1012C00084BD84B5816084BD85B5826085BD85B5EA
:1012D000816085BDEEE6F0E0808181608083E1E899
:1012E000F0E01082808182608083808181608083D1
:1012F000E0E8F0E0808181608083E1EBF0E08081D4
:1013000084608083E0EBF0E0808181608083E1E9AC
:10131000F0E0808182608083808181608083E0E969
:10132000F0E0808181608083E1EAF0E0808182608A
:101330008083808181608083E0EAF0E08081816049
:101340008083E1E2F1E0808182608083808181603E
:101350008083E0E2F1E0808181608083EAE7F0E071
:1013600080818460808380818260808380818160CD
:1013700080838081806880831092C100089590E00E
:10138000FC013197E231F10508F04CC0EE58FF4FF7
:101390000C944314809180008F7703C0809180006B
:1013A0008F7D80938000089580918000877FF9CFA2
:1013B00084B58F7702C084B58F7D84BD08958091F8
:1013C000B0008F7703C08091B0008F7D8093B00014
:1013D0000895809190008F7707C0809190008F7D55
:1013E00003C080919000877F809390000895809142
:1013F000A0008F7707C08091A0008F7D03C08091EF
:10140000A000877F8093A0000895809120018F77AE
:1014100007C0809120018F7D03C080912001877FCC
:10142000809320010895CF93DF9390E0FC01E65272
:10143000FE4F2491FC01E05EFD4F8491882349F129
:1014400090E0880F991FFC01E656FD4FA591B491DD
:1014500080589D4FFC01C591D4919FB7611108C080
:10146000F8948C91209582238C93888182230AC0E2
:10147000623051F4F8948C91322F309583238C9301
:101480008881822B888304C0F8948C91822B8C9362
:101490009FBFDF91CF9108950F931F93CF93DF9359
:1014A0001F92CDB7DEB7282F30E0F901EC56FE4F82
:1014B0008491F901E652FE4F1491F901E05EFD4F6F
:1014C00004910023C9F0882321F069830E94BF0999
:1014D0006981E02FF0E0EE0FFF1FE058FD4FA5916E
:1014E000B4919FB7F8948C91611103C0109581233A
:1014F00001C0812B8C939FBF0F90DF91CF911F91E3
:101500000F910895FC01818D228D90E0805C9F4FAA
:10151000821B91098F7399270895FC01918D828D0B
:10152000981731F0828DE80FF11D858D90E00895B8
:101530008FEF9FEF0895FC01918D828D981761F0D8
:10154000828DDF01A80FB11D5D968C91928D9F5FFA
:101550009F73928F90E008958FEF9FEF089586E537
:101560009CE0892B41F080E090E0892B21F00E94E3
:10157000560C811125C083E09DE0892B41F080E06D
:1015800090E0892B21F00E94030D81111CC080EB9B
:101590009DE0892B41F080E090E0892B21F00E94B2
:1015A000B00D811113C08DE59EE0892BA1F080E084
:1015B00090E0892B81F00E945D0E81110AC0089590
:1015C0000E940000D8CF0E940000E1CF0E940000DE
:1015D000EACF0C9400000895FC01848DDF01A80F70
:1015E000B11DA35ABF4F2C91848D90E001968F734B
:1015F0009927848FA689B7892C93A089B1898C916A
:1016000080648C93938D848D981306C00288F3892F
:10161000E02D80818F7D80830895CF93DF93EC014F
:10162000888D8823C9F0EA89FB89808185FD05C002
:10163000A889B9898C9186FD0FC00FB607FCF5CF3C
:10164000808185FFF2CFA889B9898C9185FFEDCF84
:10165000CE010E94EC0AE7CFDF91CF910895CF929F
:10166000DF92FF920F931F93CF93DF931F92CDB71B
:10167000DEB76C0181E0D60158968C9358975B9643
:101680009C915B975C968C915C97981307C05096E1
:10169000ED91FC915197808185FD2EC0F601038D5F
:1016A00010E00F5F1F4F0F731127F02EF601848D8E
:1016B000F81211C00FB607FCF9CFD6015096ED9184
:1016C000FC915197808185FFF1CFC60169830E940B
:1016D000EC0A6981EBCF838DE80FF11DE35AFF4FD0
:1016E0006083D6015B960C935B975296ED91FC91CB
:1016F0005397808180620CC0D6015696ED91FC9183
:10170000579760835096ED91FC915197808180644A
:10171000808381E090E00F90DF91CF911F910F9136
:10172000FF90DF90CF900895BF92CF92DF92EF921B
:10173000FF92CF93DF93EC016A017B01B22EE8891F
:10174000F98982E08083411581EE580761057105B2
:10175000A1F060E079E08DE390E0A70196010E949E
:101760002114215031094109510956954795379562
:101770002795211580E1380798F0E889F9891082CA
:1017800060E874E88EE190E0A70196010E942114C0
:1017900021503109410951095695479537952795AB
:1017A000EC85FD853083EE85FF852083188EEC89DE
:1017B000FD89B082EA89FB89808180618083EA8922
:1017C000FB89808188608083EA89FB8980818068C9
:1017D0008083EA89FB8980818F7D8083DF91CF912F
:1017E000FF90EF90DF90CF90BF9008951F920F92DF
:1017F0000FB60F9211240BB60F922F938F939F93D6
:10180000EF93FF93E091B003F091B1038081E091F9
:10181000B603F091B70382FD12C090818091B903A5
:101820008F5F8F732091BA03821751F0E091B90353
:10183000F0E0E056FC4F958F8093B90301C08081A2
:10184000FF91EF919F918F912F910F900BBE0F9071
:101850000FBE0F901F9018951F920F920FB60F9208
:1018600011240BB60F922F933F934F935F936F9377
:101870007F938F939F93AF93BF93EF93FF9380EAF0
:1018800093E00E94EC0AFF91EF91BF91AF919F917D
:101890008F917F916F915F914F913F912F910F9019
:1018A0000BBE0F900FBE0F901F90189580EA93E02B
:1018B0000E94820A21E0892B09F420E0822F0895FA
:1018C0001092A3031092A20388EE93E0A0E0B0E090
:1018D0008093A4039093A503A093A603B093A703BA
:1018E00086E892E09093A1038093A00385EC90E0BA
:1018F0009093AD038093AC0384EC90E09093AF039E
:101900008093AE0380EC90E09093B1038093B0039A
:1019100081EC90E09093B3038093B20382EC90E06B
:101920009093B5038093B40386EC90E09093B70353
:101930008093B6031092B9031092BA031092BB03BE
:101940001092BC0308951F920F920FB60F921124AC
:101950000BB60F922F938F939F93EF93FF93E0918A
:101960004D04F0914E048081E0915304F0915404B1
:1019700082FD12C09081809156048F5F8F732091F9
:101980005704821751F0E0915604F0E0E35CFB4FFE
:10199000958F8093560401C08081FF91EF919F91B4
:1019A0008F912F910F900BBE0F900FBE0F901F9035
:1019B00018951F920F920FB60F9211240BB60F922B
:1019C0002F933F934F935F936F937F938F939F9347
:1019D000AF93BF93EF93FF938DE394E00E94EC0AE3
:1019E000FF91EF91BF91AF919F918F917F916F91F7
:1019F0005F914F913F912F910F900BBE0F900FBEB3
:101A00000F901F9018958DE394E00E94820A21E0C8
:101A1000892B09F420E0822F08951092400410923F
:101A20003F0488EE93E0A0E0B0E0809341049093FF
:101A30004204A0934304B093440486E892E0909358
:101A40003E0480933D048DEC90E090934A04809393
:101A500049048CEC90E090934C0480934B0488EC08
:101A600090E090934E0480934D0489EC90E0909325
:101A7000500480934F048AEC90E09093520480933A
:101A800051048EEC90E09093540480935304109290
:101A90005604109257041092580410925904089555
:101AA0001F920F920FB60F9211240BB60F922F9325
:101AB0008F939F93EF93FF93E091EA04F091EB04EF
:101AC0008081E091F004F091F10482FD12C09081D8
:101AD0008091F3048F5F8F732091F404821751F08B
:101AE000E091F304F0E0E652FB4F958F8093F3040E
:101AF00001C08081FF91EF919F918F912F910F9065
:101B00000BBE0F900FBE0F901F9018951F920F9253
:101B10000FB60F9211240BB60F922F933F934F9352
:101B20005F936F937F938F939F93AF93BF93EF9345
:101B3000FF938AED94E00E94EC0AFF91EF91BF9130
:101B4000AF919F918F917F916F915F914F913F9155
:101B50002F910F900BBE0F900FBE0F901F901895F6
:101B60008AED94E00E94820A21E0892B09F420E0AA
:101B7000822F08951092DD041092DC0488EE93E029
:101B8000A0E0B0E08093DE049093DF04A093E00433
:101B9000B093E10486E892E09093DB048093DA044A
:101BA00085ED90E09093E7048093E60484ED90E067
:101BB0009093E9048093E80480ED90E09093EB0427
:101BC0008093EA0481ED90E09093ED048093EC041F
:101BD00082ED90E09093EF048093EE0486ED90E028
:101BE0009093F1048093F0041092F3041092F404A3
:101BF0001092F5041092F60408951F920F920FB6FA
:101C00000F9211240BB60F922F938F939F93EF9304
:101C1000FF93E0918705F09188058081E0918D0523
:101C2000F0918E0582FD12C09081809190058F5FAA
:101C30008F7320919105821751F0E0919005F0E0AB
:101C4000E958FA4F958F8093900501C08081FF91EC
:101C5000EF919F918F912F910F900BBE0F900FBE20
:101C60000F901F9018951F920F920FB60F9211248C
:101C70000BB60F922F933F934F935F936F937F9386
:101C80008F939F93AF93BF93EF93FF9387E795E075
:101C90000E94EC0AFF91EF91BF91AF919F918F91BC
:101CA0007F916F915F914F913F912F910F900BBE5C
:101CB0000F900FBE0F901F90189587E795E00E9438
:101CC000820A21E0892B09F420E0822F08951092E6
:101CD0007A051092790588EE93E0A0E0B0E0809359
:101CE0007B0590937C05A0937D05B0937E0586E8E7
:101CF00092E0909378058093770585E391E0909347
:101D000084058093830584E391E090938605809316
:101D1000850580E391E0909388058093870581E3B2
:101D200091E090938A058093890582E391E09093F6
:101D30008C0580938B0586E391E090938E058093CC
:101D40008D051092900510929105109292051092B7
:101D50009305089508950E945D090E94AA0E0E94AD
:101D60003E02CFEADAE00E9424022097E1F30E94CB
:101D7000AF0AF9CFCF92DF92EF92FF920F931F93AA
:101D8000CF93DF937C016A01EB0100E010E00C15BA
:101D90001D0571F06991D701ED91FC910190F081E1
:101DA000E02DC7011995892B19F00F5F1F4FEFCF59
:101DB000C801DF91CF911F910F91FF90EF90DF90BD
:101DC000CF9008956115710581F0DB010D90002021
:101DD000E9F7AD0141505109461B570BDC01ED916C
:101DE000FC910280F381E02D199480E090E0089549
:101DF0000C94E20EDC01ED91FC910190F081E02D5C
:101E000019948F929F92AF92BF92DF92EF92FF92BE
:101E10000F931F93CF93DF93CDB7DEB7A1970FB684
:101E2000F894DEBF0FBECDBF7C01F42FD52ECB01C1
:101E300019A2223008F42AE08E010F5D1F4F822E76
:101E4000912CA12CB12C6F2F7D2DA50194010E9406
:101E50002114F22FD32ECA01015011096A3014F453
:101E6000E0E301C0E7E3E60FD801EC93232B242B3A
:101E7000252B49F7B801C7010E94E20EA1960FB6C3
:101E8000F894DEBF0FBECDBFDF91CF911F910F91B0
:101E9000FF90EF90DF90BF90AF909F908F9008954C
:101EA000CF92DF92EF92FF920F931F93CF93DF9326
:101EB000EC016A017B012115310579F4E881F98192
:101EC0000190F081E02D642FDF91CF911F910F9150
:101ED000FF90EF90DF90CF9019942A303105E9F40C
:101EE00077FF1AC06DE20E94FA0E8C014427552735
:101EF000BA014C195D096E097F092AE0CE010E94E2
:101F0000010F800F911FDF91CF911F910F91FF90D3
:101F1000EF90DF90CF9008952AE0B701A601CE019F
:101F2000DF91CF911F910F91FF90EF90DF90CF90B5
:101F30000C94010F4F925F926F927F928F929F92BB
:101F4000AF92BF92CF92DF92EF92FF920F931F93C7
:101F5000CF93DF93EC016A017B01B22E9A01AB01B2
:101F6000C701B6010E941114882319F065E972E0D7
:101F700027C026013701E89477F82FEF3FEF4FE7AE
:101F80005FE7C301B2010E94111481110DC02FEF50
:101F90003FEF4FE75FE7C301B2010E945B121816E3
:101FA0001CF469E972E00CC02FEF3FEF4FE75FE4EC
:101FB000C701B6010E94AA131816ACF46DE972E0CD
:101FC000CE01DF91CF911F910F91FF90EF90DF90A5
:101FD000CF90BF90AF909F908F907F906F905F90C9
:101FE0004F900C94E20E2FEF3FEF4FE75FECC701ED
:101FF000B6010E945B1287FDE1CF20E030E0A9012D
:10200000C701B6010E945B1287FF0AC06DE2CE01D4
:102010000E94FA0E8C01F7FAF094F7F8F09402C0DF
:1020200000E010E0A12C60E070E080E09FE3AB14E2
:1020300041F020E030E040E251E40E945F12A394BE
:10204000F6CF9B01AC01C701B6010E94F7116B01ED
:102050007C010E94CC122B013C010E94F8129B01D2
:10206000AC01C701B6010E94F6116B017C012AE0A8
:10207000B301A201CE010E94010F080F191FBB205E
:1020800039F061EA72E0CE010E94E20E080F191FDA
:102090007B2C772041F120E030E040E251E4C701A1
:1020A000B6010E94AE136B017C010E94C7124B0166
:1020B000AA2497FCA094BA2C2AE030E0B501A40130
:1020C000CE010E94500F080F191FC501B4010E94D4
:1020D000FA129B01AC01C701B6010E94F6116B0117
:1020E0007C017A94D6CFC801DF91CF911F910F91D7
:1020F000FF90EF90DF90CF90BF90AF909F908F9028
:102100007F906F905F904F9008950C949A0FFC0110
:10211000808191810C94FF14CF93DF93EC0188812F
:102120009981009711F00E94FF14198218821D8274
:102130001C821B821A82DF91CF9108950F931F9307
:10214000CF93DF93EC018B016F5F7F4F8881998183
:102150000E948E15009731F0998388831B830A8330
:1021600081E001C080E0DF91CF911F910F91089530
:10217000CF93DF93EC0188819981892B29F08A81A3
:102180009B818617970760F4CE010E949E108823DA
:1021900041F08C819D81892B19F4E881F9811082AD
:1021A00081E0DF91CF910895EF92FF920F931F93FB
:1021B000CF93DF93EC017B018A01BA010E94B81032
:1021C000811104C0CE010E948C1007C01D830C83B6
:1021D000B701888199810E948C16CE01DF91CF9141
:1021E0001F910F91FF90EF900895FC0111821082D2
:1021F00013821282158214826115710559F0FB0158
:1022000001900020E9F7AF0141505109461B570BDF
:102210000C94D41008950F931F93CF93DF938C01E8
:10222000EB01FC0180819181009799F042815381FB
:102230002C813D814217530750F0688179810E94BB
:102240008C168C819D81F8019583848313C00E9434
:10225000FF1488819981F801918380838A819B8111
:10226000938382838C819D819583848319821882D4
:102270001B821A821D821C82DF91CF911F910F91C8
:102280000895CF93DF93EC018617970711F00E9412
:102290000B11CE01DF91CF910895CF93DF93EC0125
:1022A0006115710561F0FB0101900020E9F7AF01B4
:1022B00041505109461B570B0E94D41002C00E9486
:1022C0008C10CE01DF91CF910895EF92FF920F9382
:1022D0001F93CF93DF93EC017B010C811D8161156E
:1022E000710511F480E016C04115510591F0040FFD
:1022F000151FB8010E94B8108823A1F328813981E5
:102300008C819D81B701820F931F0E948C161D83C3
:102310000C8381E0DF91CF911F910F91FF90EF909F
:102320000895CF93DF931F921F92CDB7DEB76983D5
:102330001A8241E050E0BE016F5F7F4F0E9465113D
:102340000F900F90DF91CF910895BF92CF92DF92BF
:10235000EF92FF920F931F93CF93DF936C017B015A
:10236000EA0189012417350720F48D2FE901042F94
:10237000182F64E972E0C6010E94F510D701149687
:102380008D919C911597C817D907C8F480179107AC
:1023900008F48C01D701ED91FC911197E00FF11F2A
:1023A000B08010826D917C916C0F7D1FC6010E94E0
:1023B0004D11D701ED91FC91E00FF11FB082C601E4
:1023C000DF91CF911F910F91FF90EF90DF90CF9011
:1023D000BF900895FC0180819181009711F00C94C9
:1023E000771660E070E0CB01089508955058BB2740
:1023F000AA270ED075C166D130F06BD120F031F430
:102400009F3F11F41EF45BC10EF4E095E7FB51C150
:10241000E92F77D180F3BA1762077307840795070E
:1024200018F071F49EF58FC10EF4E0950B2EBA2FC3
:10243000A02D0B01B90190010C01CA01A0011124CA
:10244000FF27591B99F0593F50F4503E68F11A1676
:10245000F040A22F232F342F4427585FF3CF469507
:1024600037952795A795F0405395C9F77EF41F1629
:10247000BA0B620B730B840BBAF09150A1F0FF0FF3
:10248000BB1F661F771F881FC2F70EC0BA0F621FDF
:10249000731F841F48F4879577956795B795F795CF
:1024A0009E3F08F0B3CF9395880F08F09927EE0F61
:1024B000979587950895D9D008F481E008950CD0B8
:1024C0000FC107D140F0FED030F021F45F3F19F08A
:1024D000F0C0511139C1F3C014D198F39923C9F355
:1024E0005523B1F3951B550BBB27AA27621773071A
:1024F000840738F09F5F5F4F220F331F441FAA1FCE
:10250000A9F333D00E2E3AF0E0E830D0915050408D
:10251000E695001CCAF729D0FE2F27D0660F771F3B
:10252000881FBB1F261737074807AB07B0E809F01D
:10253000BB0B802DBF01FF2793585F4F2AF09E3FB2
:10254000510568F0B6C000C15F3FECF3983EDCF384
:10255000869577956795B795F7959F5FC9F7880F2B
:10256000911D9695879597F90895E1E0660F771F7D
:10257000881FBB1F621773078407BA0720F0621B0E
:10258000730B840BBA0BEE1F88F7E095089504D007
:102590006894B111D9C00895BCD088F09F5790F0CD
:1025A000B92F9927B751A0F0D1F0660F771F881F78
:1025B000991F1AF0BA95C9F712C0B13081F0C3D093
:1025C000B1E00895C0C0672F782F8827B85F39F031
:1025D000B93FCCF3869577956795B395D9F73EF4D7
:1025E00090958095709561957F4F8F4F9F4F08957F
:1025F000E89409C097FB3EF490958095709561959D
:102600007F4F8F4F9F4F9923A9F0F92F96E9BB2752
:102610009395F695879577956795B795F111F8CFCE
:10262000FAF4BB0F11F460FF1BC06F5F7F4F8F4F39
:102630009F4F16C0882311F096E911C0772321F02F
:102640009EE8872F762F05C0662371F096E8862FC7
:1026500070E060E02AF09A95660F771F881FDAF71E
:10266000880F9695879597F90895990F0008550F4B
:10267000AA0BE0E8FEEF16161706E807F907C0F008
:1026800012161306E407F50798F0621B730B840B10
:10269000950B39F40A2661F0232B242B252B21F4EA
:1026A00008950A2609F4A140A6958FEF811D811D8A
:1026B000089597F99F6780E870E060E008959FEFC4
:1026C00080EC089500240A941616170618060906C9
:1026D000089500240A941216130614060506089598
:1026E000092E0394000C11F4882352F0BB0F40F420
:1026F000BF2B11F460FF04C06F5F7F4F8F4F9F4F60
:10270000089557FD9058440F551F59F05F3F71F0E1
:102710004795880F97FB991F61F09F3F79F0879548
:102720000895121613061406551FF2CF4695F1DFD1
:1027300008C0161617061806991FF1CF8695710561
:10274000610508940895E894BB2766277727CB0195
:1027500097F908958ADF08F48FEF08950BD0C0CF62
:10276000B1DF28F0B6DF18F0952309F0A2CFA7CF8C
:102770001124EACFC6DFA0F3959FD1F3950F50E067
:10278000551F629FF001729FBB27F00DB11D639F23
:10279000AA27F00DB11DAA1F649F6627B00DA11DC9
:1027A000661F829F2227B00DA11D621F739FB00D6F
:1027B000A11D621F839FA00D611D221F749F3327DF
:1027C000A00D611D231F849F600D211D822F762F78
:1027D0006A2F11249F5750408AF0E1F088234AF075
:1027E000EE0FFF1FBB1F661F771F881F91505040C1
:1027F000A9F79E3F510570F05CCFA6CF5F3FECF389
:10280000983EDCF3869577956795B795F795E795AC
:102810009F5FC1F7FE2B880F911D9695879597F9BD
:10282000089523DF880B990B0895991B79E004C064
:10283000991F961708F0961B881F7A95C9F78095FF
:102840000895A1E21A2EAA1BBB1BFD010DC0AA1FF1
:10285000BB1FEE1FFF1FA217B307E407F50720F009
:10286000A21BB30BE40BF50B661F771F881F991F84
:102870001A9469F760957095809590959B01AC01CD
:10288000BD01CF010895EE0FFF1F0590F491E02DDB
:1028900019940E945814A59F900DB49F900DA49F69
:1028A000800D911D112408950790F691E02D199443
:1028B000A29FB001B39FC001A39F700D811D112481
:1028C000911DB29F700D811D1124911D0895CF930C
:1028D000DF938230910510F482E090E0E0911606DB
:1028E000F091170620E030E0A0E0B0E0309739F139
:1028F0004081518148175907B8F04817590771F4BA
:1029000082819381109729F013969C938E9312974E
:102910002CC0909317068093160627C02115310509
:1029200031F04217530718F0A901DB0101C0EF0194
:102930009A01BD01DF010280F381E02DD7CF21157F
:102940003105F9F0281B390B2430310580F48A81D8
:102950009B816115710521F0FB019383828304C083
:102960009093170680931606FE01329644C0FE012E
:10297000E20FF31F81939193225031093983288309
:102980003AC02091140630911506232B41F4209172
:102990000202309103023093150620931406209111
:1029A0000002309101022115310541F42DB73EB7E7
:1029B0004091040250910502241B350BE09114064E
:1029C000F0911506E217F307A0F42E1B3F0B281712
:1029D000390778F0AC014E5F5F4F2417350748F098
:1029E0004E0F5F1F509315064093140681939193E9
:1029F00002C0E0E0F0E0CF01DF91CF910895CF93E6
:102A0000DF93009709F487C0FC013297138212828A
:102A1000C0911606D0911706209781F4208131814C
:102A2000280F391F8091140690911506821793077D
:102A300079F5F0931506E09314066DC0DE0120E0F1
:102A400030E0AE17BF0750F412964D915C9113978A
:102A50009D014115510509F1DA01F3CFB383A2833A
:102A600040815181840F951F8A179B0771F48D91C6
:102A70009C911197840F951F0296918380831296E3
:102A80008D919C911397938382832115310529F4AD
:102A9000F0931706E09316063EC0D9011396FC93F7
:102AA000EE9312974D915D91A40FB51FEA17FB07A6
:102AB00079F480819181840F951F0296D901119636
:102AC0009C938E938281938113969C938E931297FD
:102AD000E0E0F0E08A819B81009719F0FE01EC01B3
:102AE000F9CFCE01029628813981820F931F209160
:102AF0001406309115062817390769F4309729F420
:102B0000109217061092160602C013821282D093FA
:102B10001506C0931406DF91CF9108956F927F92AE
:102B20008F929F92AF92BF92CF92DF92EF92FF92DD
:102B30000F931F93CF93DF93EC01CB01209781F488
:102B4000DF91CF911F910F91FF90EF90DF90CF9089
:102B5000BF90AF909F908F907F906F900C94671470
:102B6000FE01E60FF71F9E0122503109E217F3071D
:102B700008F4ACC0D9010D911C91119706171707E5
:102B8000B8F00530110508F49FC0A8014450510960
:102B90004617570708F498C002501109061B170B77
:102BA000019311936D937C93CF010E94FF148CC00D
:102BB0005B01A01AB10A4E01800E911EA09116066B
:102BC000B0911706612C712C60E070E0109709F449
:102BD00049C0A815B905C9F5ED90FC90119767019A
:102BE00042E0C40ED11CCA14DB0478F147018A18F4
:102BF0009B08640142E0C40ED11C1296BC9012974F
:102C00001396AC91B5E0CB16D10440F0B282A38309
:102C100091828082D9018D939C9309C00E5F1F4FD2
:102C20000E0D1F1DF90111830083EB2DFA2F611585
:102C3000710531F0DB011396FC93EE93129744C0BB
:102C4000F0931706E09316063FC06D917C911197A3
:102C50006616770608F43B01BD0112960D90BC91F3
:102C6000A02DB4CF609114067091150668157905F2
:102C7000E9F468167906D0F44091000250910102FF
:102C80004115510541F44DB75EB760910402709152
:102C90000502461B570BE417F507C0F4F093150621
:102CA000E0931406F901918380830EC00E9467149B
:102CB0007C01009759F0A801BE010E948316CE0145
:102CC0000E94FF14C70104C0CE0102C080E090E062
:102CD000DF91CF911F910F91FF90EF90DF90CF90F8
:102CE000BF90AF909F908F907F906F9008956627D0
:102CF00077270C9407199111FBC3803219F0895082
:102D00008550D0F70895FB01DC0102C001900D92BF
:102D100041505040D8F70895FB01DC0101900D921D
:102D20000020E1F708950F931F93CF93DF93EC01F9
:102D30008B01009731F46115710519F480E090E082
:102D400038C06EE070E081E090E00E94EB18FC017A
:102D50000097A1F380E883830115110571F01387B3
:102D6000028781E883838091180690911906892B48
:102D700021F4F0931906E09318062097C9F0D18743
:102D8000C08783818260838380911A0690911B069D
:102D9000892B71F4F0931B06E0931A0680911C06B0
:102DA00090911D06892B21F4F0931D06E0931C06DB
:102DB000CF01DF91CF911F910F910895CF93DF93B2
:102DC000CDB7DEB7FE01369661917191AF0180916A
:102DD0001A0690911B060E94F016DF91CF9108957C
:102DE0002F923F924F925F926F927F928F929F921B
:102DF000AF92BF92CF92DF92EF92FF920F931F9309
:102E0000CF93DF93CDB7DEB72C970FB6F894DEBF24
:102E10000FBECDBF7C016B018A01FC0117821682B7
:102E2000838181FFBDC1CE0101964C01F7019381E1
:102E3000F60193FD859193FF81916F01882309F439
:102E4000ABC1853239F493FD859193FF81916F0178
:102E5000853229F4B70190E00E94B01AE7CF512CD7
:102E6000312C20E02032A0F48B3269F030F4803233
:102E700059F0833269F420612CC08D3239F08033EF
:102E800039F4216026C02260246023C0286021C05C
:102E900027FD27C030ED380F3A3078F426FF06C002
:102EA000FAE05F9E300D1124532E13C08AE0389E45
:102EB000300D1124332E20620CC08E3221F426FDF9
:102EC0006BC1206406C08C3611F4206802C08836BD
:102ED00041F4F60193FD859193FF81916F0181117A
:102EE000C1CF982F9F7D9554933028F40C5F1F4FCE
:102EF000FFE3F9830DC0833631F0833771F08335FA
:102F000009F05BC022C0F801808189830E5F1F4FEA
:102F100044244394512C540115C03801F2E06F0E43
:102F2000711CF801A080B18026FF03C0652D70E000
:102F300002C06FEF7FEFC5012C870E94A51A2C01FC
:102F400083012C852F77222E17C03801F2E06F0EF7
:102F5000711CF801A080B18026FF03C0652D70E0D0
:102F600002C06FEF7FEFC5012C870E94931A2C01DE
:102F70002C852068222E830123FC1BC0832D90E02A
:102F800048165906B0F4B70180E290E00E94B01AEA
:102F90003A94F4CFF50127FC859127FE81915F01DA
:102FA000B70190E00E94B01A31103A94F1E04F1A44
:102FB00051084114510471F7E5C0843611F0893687
:102FC00039F5F80127FF07C0608171818281938103
:102FD0000C5F1F4F08C060817181882777FD809545
:102FE000982F0E5F1F4F2F76B22E97FF09C0909536
:102FF0008095709561957F4F8F4F9F4F2068B22EBF
:103000002AE030E0A4010E94E21AA82EA81844C0C9
:10301000853729F42F7EB22E2AE030E025C0F22F2A
:10302000F97FBF2E8F36C1F018F4883579F0B4C01F
:10303000803719F0883721F0AFC02F2F2061B22ED2
:10304000B4FE0DC08B2D8460B82E09C024FF0AC0C9
:103050009F2F9660B92E06C028E030E005C020E121
:1030600030E002C020E132E0F801B7FE07C0608125
:103070007181828193810C5F1F4F06C060817181D5
:1030800080E090E00E5F1F4FA4010E94E21AA82E7C
:10309000A818FB2DFF77BF2EB6FE0BC02B2D2E7F61
:1030A000A51450F4B4FE0AC0B2FC08C02B2D2E7E2D
:1030B00005C07A2C2B2D03C07A2C01C0752C24FF5F
:1030C0000DC0FE01EA0DF11D8081803311F4297ECF
:1030D00009C022FF06C07394739404C0822F8678BF
:1030E00009F0739423FD13C020FF06C05A2C7314FB
:1030F00018F4530C5718732C731468F4B70180E25A
:1031000090E02C870E94B01A73942C85F5CF73142D
:1031100010F4371801C0312C24FF12C0B70180E32E
:1031200090E02C870E94B01A2C8522FF17C021FF47
:1031300003C088E590E002C088E790E0B7010CC0CA
:10314000822F867859F021FD02C080E201C08BE217
:1031500027FD8DE2B70190E00E94B01AA51438F463
:10316000B70180E390E00E94B01A5A94F7CFAA9476
:10317000F401EA0DF11D8081B70190E00E94B01AC0
:10318000A110F5CF332009F451CEB70180E290E0D1
:103190000E94B01A3A94F6CFF7018681978102C057
:1031A0008FEF9FEF2C960FB6F894DEBF0FBECDBF0A
:1031B000DF91CF911F910F91FF90EF90DF90CF9013
:1031C000BF90AF909F908F907F906F905F904F9047
:1031D0003F902F9008950F931F93CF93DF93869F77
:1031E0008001879F100D969F100D1124C8010E9429
:1031F0006714EC01009729F0A80160E070E00E94DC
:103200009E1ACE01DF91CF911F910F9108958F9259
:103210009F92AF92BF92CF92DF92EF92FF920F9365
:103220001F93CF93DF938B016115710521F0DB01B3
:103230008C9311969C93EC015E01BFEFAB1ABB0A15
:103240007501C8808C2D90E00E947B16892B11F0AF
:10325000E501F2CFEDE2CE1208C07E01F2E0EF0E02
:10326000F11CC980DD24D39409C02BE2C21205C031
:103270007E0142E0E40EF11CC980D12CE7012197C8
:1032800043E050E06CEB72E0CE010E947B1A892B88
:10329000C1F4239645E050E067EB72E0CE010E9456
:1032A0007B1A892B09F425960115110519F0D8010F
:1032B000CD93DC93D11006C160E070E080E89FE719
:1032C0000AC143E050E064EB72E0CE010E947B1A39
:1032D000892B59F40115110509F4F9C0B2E0EB0E80
:1032E000F11CF801F182E082F2C0F70160E070E0C9
:1032F000CB01C0E0D0E07F01A0EDAA2EAC0C29E00C
:103300002A1530F14D2D4260B42E2D2D2870D2FE9D
:1033100004C0211125C0219623C021112197A5E0C9
:10332000B0E09B01AC010E944914660F771F881F13
:10333000991F6A0D711D811D911D6839A9E97A07D0
:103340008A07A9E19A0760F0BD2DB660BB2E08C0C0
:103350002EEFA2120AC0D3FC50C04D2D4860B42EEF
:103360003196D701CC90DB2CC6CF2C2D2F7D253468
:1033700009F043C0A081AD3241F4BD2DB061DB2E18
:103380007F0122E0E20EF11C0CC07F01AB3231F074
:103390004FEFE41AF40A21E030E006C0A2E0EA0EA2
:1033A000F11CA18122E030E0A053AA3018F0E21A0B
:1033B000F30A23C0F70120E030E02038BCE03B07EF
:1033C0005CF4A901440F551F440F551F240F351FEE
:1033D000220F331F2A0F311DAF014F5F5F4F7A015C
:1033E000A081A053AA3010F4FA01E7CFD4FE03C0A5
:1033F000319521953109C20FD31FD1FE09C00115A6
:10340000110531F0E1E0EE1AF108D801ED92FC92DD
:103410000E94F8122D2D2370233019F04B015C010E
:1034200006C04B015C01B7FAB094B7F8B09420E045
:1034300030E0A901C501B4010E945B12882309F4A0
:103440003EC0D7FF06C0D195C195D10903ED12E06A
:1034500002C00BEE12E06801B8E1CB1AD10890E28D
:10346000E92EF12CCE15DF0574F0F8012591359188
:1034700045915491C501B4010E94AE134B015C010A
:10348000CE19DF09EFCF04501109F594E7940C151C
:103490001D0541F78A2D880F8B2D881F8F3F49F01E
:1034A00020E030E0A901C501B4010E945B12811146
:1034B00006C082E290E090931F0680931E06C5012D
:1034C000B40109C060E070E080E89FEF04C060E0F4
:1034D00070E080EC9FE7DF91CF911F910F91FF90FB
:1034E000EF90DF90CF90BF90AF909F908F90089516
:1034F000992788270895FB01DC014150504088F04E
:103500008D9181341CF08B350CF4805E65916134B3
:103510001CF06B350CF4605E861B611171F3990B26
:103520000895881BFCCFFC0105906150704001108C
:10353000D8F7809590958E0F9F1F0895DC0101C0EC
:103540006D9341505040E0F70895FC016150704088
:1035500001900110D8F7809590958E0F9F1F0895C8
:103560000F931F93CF93DF93182F092FEB018B81BC
:1035700081FD03C08FEF9FEF20C082FF10C04E81FE
:103580005F812C813D81421753077CF4E881F981EA
:103590009F012F5F3F4F39832883108306C0E88542
:1035A000F985812F1995892B29F72E813F812F5F6E
:1035B0003F4F3F832E83812F902FDF91CF911F911B
:1035C0000F910895FA01AA27283051F1203181F195
:1035D000E8946F936E7F6E5F7F4F8F4F9F4FAF4F1B
:1035E000B1E03ED0B4E03CD0670F781F891F9A1F2E
:1035F000A11D680F791F8A1F911DA11D6A0F711DE2
:10360000811D911DA11D20D009F468943F912AE0ED
:10361000269F11243019305D3193DEF6CF010895D5
:10362000462F4770405D4193B3E00FD0C9F7F6CF06
:10363000462F4F70405D4A3318F0495D31FD4052CE
:10364000419302D0A9F7EACFB4E0A6959795879564
:1036500077956795BA95C9F7009761057105089543
:103660009B01AC010A2E06945795479537952795EF
:10367000BA95C9F7620F731F841F951FA01D089587
:1036800012E0CAEFD2E000E006C022970109FE0175
:103690000BBF0E945414CC3FD10780E00807A9F764
:0436A000F894FFCFCC
:1036A4000000200680000100000048756D69496E25
:1036B4000054656D70496E00736A6A6B2E74302E07
:1036C4007478743D2225642200736A6A6B2E743107
:1036D4002E7478743D2225642200736A6A6B2E74FA
:1036E400322E7478743D2225642200736A6A6B2E2C
:1036F40074332E7478743D2225642200736A6A6BD5
:103704002E74342E7478743D2225642200504D3278
:10371400350048756D694F75740054656D704F754B
:103724007400000000002F0BBA0E820A9B0A8D0A57
:103734000D0B0D0A006E616E00696E66006F766691
:04374400002E000053
:00000001FF
