:100000000C943A020C946B020C946B020C946B02ED
:100010000C946B020C946B020C946B020C946B02AC
:100020000C946B020C946B020C946B020C946B029C
:100030000C946B020C946B020C946B020C946B028C
:100040000C946B020C94FF030C946B020C946B02E7
:100050000C946B020C946B020C946B020C94380B96
:100060000C946B020C948F0E0C94C50E0C946B02C6
:100070000C946B020C946B020C946B020C946B024C
:100080000C942D040C946B020C946B020C946B0278
:100090000C943C0F0C94720F0C946B020C946B023A
:1000A0000C946B020C946B020C945B040C946B022A
:1000B0000C946B020C946B020C946B020C948904EC
:1000C0000C946B020C946B020C946B020C94E90F71
:1000D0000C941F100C946B020C9496100C94CC1082
:1000E0000C946B02710C740C630C670C6D0CAB0CF4
:1000F000780C7C0C820C860C8A0C900C940C980C5E
:10010000AB0C9E0CA20CA60C07634236B79BD8A77B
:100110001A39685618AEBAAB558C1D3CB7CC57632C
:10012000BD6DEDFD753EF6177231BF000000803FDA
:1001300008000000BE922449123EABAAAA2ABECDF6
:10014000CCCC4C3E00000080BEABAAAAAA3E000068
:100150000000BF000000803F000000000008417860
:10016000D3BB4387D1133D190E3CC3BD4282AD2B97
:100170003E68EC8276BED98FE1A93E4C80EFFFBE8F
:1001800001C4FF7F3F00000000000C94A60D0C94FA
:10019000980C0C94670C0C94F6100C94F90E0C94BB
:1001A000C80D0C943C030C9421030C94860C0C9405
:1001B0009E0C0C946D0C0C94A20C0C948A0C0C9458
:1001C000EF0E0C94A60C0C9400110C94480D0C949A
:1001D000340D0C94260D0C9449100C949C0F0C9427
:1001E00053110C94AB0C0C94630C0C9453100C94A2
:1001F000820C0C94740C0C94940C0C947C0C0C9449
:10020000900C0C94A60F0C941B0D0C94710C0C9478
:10021000780C00000A0B02090C0D0E0807030401FC
:1002200000000000000000000000000000000000CE
:10023000000000000000000000000000000012119B
:10024000100000000000000000000000000000009E
:10025000000000000000000001021020200808102B
:100260002040102040800201020108040201010226
:1002700004081020408080402010080402018004FF
:10028000020180402010080402010804020101025A
:100290000408102040800102040810204080050559
:1002A0000505070508080808020202020A0A0808EC
:1002B000040404040101010101010101030303031A
:1002C00003030303040707070C0C0C0C0C0C0C0CA9
:1002D0000202020206060606060606060B0B0B0BBA
:1002E0000B0B0B0B000020002300260029002C0024
:1002F0002F00320000010000030106010901000087
:100300002200250028002B002E00310034000201BD
:100310000000050108010B01000021002400270056
:100320002A002D0030003300010100000401070104
:100330000A014E414E494E495459494E46CDCCCC06
:100340003D0AD7233C17B7D13877CC2B329595E6A9
:10035000241FB14F0A000020410000C84200401C89
:100360004620BCBE4CCA1B0E5AAEC59D7400407AD6
:1003700010F35A00A0724E18090010A5D4E800002E
:10038000E87648170000E40B54020000CA9A3B00CC
:100390000000E1F505000080969800000040420F43
:1003A000000000A08601000000102700000000E807
:1003B00003000000006400000000000A00000000CC
:1003C000000100000000002C76D888DC674F08236D
:1003D000DFC1DFAE59E1B1B796E5E3E453C63AE6D3
:1003E00051997696E8E6C28426EB898C9B62ED40B3
:1003F0007C6FFCEFBC9C9F40F2BAA56FA5F4900502
:100400005A2AF75C936B6CF9676DC11BFCE0E40D35
:1004100047FEF520E6B500D0ED902E030094357729
:10042000050080841E080000204E0A000000C80C51
:10043000333333330F986E12831141EF8D211489BA
:100440003BE65516CFFEE6DB18D1844B381BF77C14
:100450001D901DA4BBE424203284725E228100C959
:10046000F124ECA1E53D27002103F90EA60F53105E
:1004700000113C0311241FBECFEFD1E2DEBFCDBF80
:1004800000E00CBF12E0A0E0B2E0E6E1FCE300E037
:100490000BBF02C007900D92AC37B107D9F725E02A
:1004A000ACE7B2E001C01D92A93FB207E1F714E04A
:1004B000C2E7D4E000E006C022970109FE010BBFAD
:1004C0000E948217C836D10780E00807A9F70E946A
:1004D00044110C94F91D0C940000CF93DF93EC01B0
:1004E00063E372E00E94F71163E372E0CE010696C7
:1004F0000E94F71163E372E0CE010C96DF91CF9179
:100500000C94F71161E083E00E94AC0C61E084E0A0
:100510000E94AC0C61E085E00E94AC0C61E086E0DA
:100520000E94AC0C61E087E00E94AC0C60E088E0C7
:100530000E94AC0C60E088E00E94AC0C60E088E0B7
:100540000E94AC0C26E040E052EC61E070E08EE7E7
:1005500093E00E942D0E26E040E052EC61E070E056
:100560008BE194E00E942D0E26E040E659E060E029
:1005700070E088EB94E00E942D0E26E040E052EC03
:1005800061E070E085E595E00E942D0E88EB92E039
:100590000E94A9056BE070E085EB92E00E94820565
:1005A0006CE070E082EB92E00C94820540E060E049
:1005B00088EB92E00E94FB066093D2027093D30214
:1005C0008093D4029093D50260E088EB92E00E9481
:1005D0005B076093DA027093DB028093DC029093F6
:1005E000DD02089580EA92E00E94E7088CE792E03D
:1005F0000E944C0A0E94D6028EE892E00E940209F4
:1006000064E670E080E090E00C94B10BCF93DF9350
:10061000EC010C960E948911CE0106960E94891168
:10062000CE01DF91CF910C9489118CE792E00E946A
:1006300006038EE892E00E94060380EA92E00C94A2
:10064000060326E04BE06DE288EB92E00E9488050D
:1006500085EB92E00E94B70482EB92E00E94B7041F
:1006600080EA92E00E946D028EE892E00E946D02A4
:100670008CE792E00C946D020C941503CF92DF92FC
:10068000EF92FF920F931F93CF93DF936C018B0137
:100690007A01EC01CF51DD4F888187FF04C0FB0157
:1006A0001182108223C02CE02C9DC0012D9D900D45
:1006B00011242881AC01420F511D27FD5A9520912C
:1006C000E00230E0421753078CF42881AC01420F5E
:1006D000511D27FD5A959A01FA01EE0FFF1FE20FF7
:1006E000F31FEB51FD4F208126FD19C088818F5FDC
:1006F00088838CE08C9D90018D9D300D1124888124
:10070000A901480F511D87FD5A958091E00290E0A4
:1007100048175907B4F488818C303CF112C0288105
:10072000820F911D27FD9A95FC01EE0FFF1FE80F28
:10073000F91FEB51FD4F808160E08F730E94E50C43
:10074000D5CFF80180819181049680349C4918F4BA
:1007500080E49CE904C0F801808191810496F7014E
:10076000918380838FEF888341C0F80180819181DC
:100770004881B901640F711D47FD7A95AB01FB01FA
:10078000EE0FFF1FE40FF51FEB51FD4F418152812A
:10079000840F951FF701918380838881A901480FF9
:1007A000511D87FD5A95FA01EE0FFF1FE40FF51F4B
:1007B000EB51FD4F808186FF19C08881280F311DC4
:1007C00087FD3A95F901EE0FFF1FE20FF31FEB5182
:1007D000FD4F808161E08F73DF91CF911F910F9169
:1007E000FF90EF90DF90CF900C94E50CDF91CF91CC
:1007F0001F910F91FF90EF90DF90CF9008951F927F
:100800000F920FB60F9211240BB60F922F933F93B6
:100810004F935F936F937F938F939F93AF93BF9308
:10082000EF93FF9348E850E064E870E081E090E0E7
:100830000E943E03FF91EF91BF91AF919F918F91E5
:100840007F916F915F914F913F912F910F900BBED0
:100850000F900FBE0F901F9018951F920F920FB61A
:100860000F9211240BB60F922F933F934F935F93E8
:100870006F937F938F939F93AF93BF93EF93FF9368
:1008800048E950E064E970E082E090E00E943E03B5
:10089000FF91EF91BF91AF919F918F917F916F9158
:1008A0005F914F913F912F910F900BBE0F900FBE14
:1008B0000F901F9018951F920F920FB60F92112450
:1008C0000BB60F922F933F934F935F936F937F934A
:1008D0008F939F93AF93BF93EF93FF9348EA50E0BA
:1008E00064EA70E083E090E00E943E03FF91EF91A4
:1008F000BF91AF919F918F917F916F915F914F9138
:100900003F912F910F900BBE0F900FBE0F901F9035
:1009100018951F920F920FB60F9211240BB60F92DB
:100920002F933F934F935F936F937F938F939F93F7
:10093000AF93BF93EF93FF9348E251E064E271E01D
:1009400080E090E00E943E03FF91EF91BF91AF9154
:100950009F918F917F916F915F914F913F912F91D7
:100960000F900BBE0F900FBE0F901F901895209107
:10097000E0022033A0F431E0320F3093E002FC01BA
:100980002083822F90E0FC01EE0FFF1FE80FF91F7C
:10099000EB51FD4F88EB9BE09283818308952FEF0D
:1009A000FC0120830895DF92EF92FF920F931F9333
:1009B000CF93DF93EC01D62E7A01890188818033B1
:1009C00008F068C061E08D2D0E94AC0C8881A82FD2
:1009D000B0E0FD01EE0FFF1FEA0FFB1FEB51FD4FD3
:1009E0002D2D2F739081907C922B908360E272E08A
:1009F0006E197F0977FF02C06D5F7F4F7595679510
:100A000075956795698340E659E0401B510B57FF88
:100A100002C04D5F5F4F55954795559547954A8361
:100A20006CE00E9443179CE0899FB001112420E0F4
:100A300030E0A901460F571FFA01EE0FFF1FE40F28
:100A4000F51FEB51FD4F908196FD18C02F5F3F4F72
:100A50002C30310571F790E08130910521F510922D
:100A6000800082E0809381001092850010928400C3
:100A7000B19A80916F00826080936F00888190E0CE
:100A8000FC01EE0FFF1FE80FF91FEB51FD4F8081B6
:100A9000806480838881DF91CF911F910F91FF90B7
:100AA000EF90DF9008958230910569F410929000E4
:100AB00082E080939100109295001092940088BB80
:100AC00080937100DBCF8330910569F41092A00010
:100AD00082E08093A1001092A5001092A40089BB2F
:100AE00080937200CBCF892B49F61092200182E0CF
:100AF0008093210110922501109224018ABB8093DA
:100B00007300BCCF20E639E040E252E00C94D304FD
:100B1000DC0115966C93159716964C93169770E01A
:100B2000FB01E85AFD4FE4911796EC931797FB01F0
:100B3000E256FD4F649118966C93189740E85EE377
:100B400060E070E01D964D935D936D937C9350979C
:100B50000895CF93DF93EC0162E08D810E94AC0C8D
:100B600040E358EF6FEF7FEF49875A876B877C87A9
:100B7000DF91CF910895AF92BF92CF92DF92EF9223
:100B8000FF920F931F93CF93DF93EC01AF80662307
:100B900011F0BA2C01C0B12CA885B0E0AA0FBB1F80
:100BA000AC51BD4F40E050E0BA01FD0185919491F8
:100BB000FC0180818A218B1112C08A019B010F5F89
:100BC0001F4F2F4F3F4FCD84DE84EF84F8884C15A4
:100BD0005D056E057F0538F4B901A801E6CF342F15
:100BE000252FCB0104C030E020E080E090E0632FAF
:100BF000722FDF91CF911F910F91FF90EF90DF90B7
:100C0000CF90BF90AF900895CF92DF92EF92FF9276
:100C10000F931F93CF93DF93CDB7DEB7C054D1406E
:100C20000FB6F894DEBF0FBECDBF8C01F62E0E942A
:100C3000820BF11016C0F801C184D284E384F484DD
:100C40009B01AC012C193D094E095F0969017A012C
:100C500030EDC31637E0D306E104F10410F48189C6
:100C6000BAC0F801618772878387948714821382E0
:100C700012821182108261E085810E94E50C6AEF88
:100C800070E080E090E00E94B10B61E0F8018581A6
:100C90000E94AC0C60E0F80185810E94E50C64E1E3
:100CA00070E080E090E00E94B10BF89461E0F80100
:100CB00085810E94E50C88E290E00E94EB0B62E0E7
:100CC000F80185810E94AC0C8AE090E00E94EB0B59
:100CD00060E0C8010E94BB05672B682B692B41F0BF
:100CE00061E0C8010E94BB05672B682B692B21F4CA
:100CF000F801118A78946EC06E01FFEBCF1AFEEFF7
:100D0000DF0A9E012F5F3F4F790160E0C8010E941A
:100D1000BB05F701608371838283938361E0C8011F
:100D20000E94BB05F7016483758386839783F8E08F
:100D3000EF0EF11CEC14FD0441F778949E012F5F37
:100D40003F4F790120E030E0F7014081518162811D
:100D5000738184819581A681B78141155105610513
:100D60007105B1F10097A105B10591F1F901F59572
:100D7000E795F595E795F595E795E00FF11FD0809C
:100D8000DD0C481759076A077B0710F0D08203C0B3
:100D90008D2D816080832F5F3F4FF8E0EF0EF11CB7
:100DA0002832310589F6F801248130E040818181C3
:100DB00090E0840F911D4281840F911D4381840F27
:100DC000911D99272817390719F481E0818B03C0F9
:100DD000F801118A80E0C05CDE4F0FB6F894DEBFE8
:100DE0000FBECDBFDF91CF911F910F91FF90EF907C
:100DF000DF90CF900895CF92DF92EF92FF920F9302
:100E00001F93CF93DF93EC01162F642F0E940406EB
:100E1000882309F443C08E818B3031F008F43EC042
:100E20008551823040F03AC06A8170E080E090E005
:100E30000E94F61424C00A81602F6F7770E080E072
:100E400090E00E94F81420E030E040E853E40E9473
:100E500086166B017C016B8170E080E090E00E945F
:100E6000F8149B01AC01C701B6010E94C4132DEC1C
:100E70003CEC4CEC5DE30E94861607FD9058112374
:100E800089F026E636E646EE5FE30E94861620E00D
:100E900030E040E052E40E94C41304C060E070E01F
:100EA00080EC9FE7DF91CF911F910F91FF90EF9022
:100EB000DF90CF900895CF92DF92EF92FF92CF9381
:100EC000DF93EC0160E00E940406882379F18E81B3
:100ED0008B3029F158F18551823040F5688170E0FE
:100EE00080E090E00E94F61420E030E040E853E417
:100EF0000E9486166B017C01698170E080E090E0C1
:100F00000E94F8149B01AC01C701B6010E94C413F2
:100F10002DEC3CEC4CEC5DE30E9486160BC0688126
:100F200070E080E090E00E94F61404C060E070E0A1
:100F300080EC9FE7DF91CF91FF90EF90DF90CF9013
:100F400008952F923F924F925F926F927F928F926D
:100F50009F92AF92BF92CF92DF92EF92FF920F9348
:100F60001F93CF93DF93CDB7DEB72C970FB6F894CE
:100F7000DEBF0FBECDBF1C01CB01BA010D831E83A6
:100F80002F83388723E333E948E853E40E94C413EE
:100F90006B017C0120E030E040E450E40E94E9165F
:100FA0004B015C0120E030E040E850E4C701B601AD
:100FB0000E94E91669877A878B879C87C701B601EB
:100FC0000E94131669837A838B839C83A701960101
:100FD000F10160817181828193810E942C14F10161
:100FE00024813581468157810E94C4132B013C0125
:100FF000F1012085318542855385C701B6010E94E4
:1010000086169B01AC01C301B2010E94C4132B01DF
:101010003C01A7019601C701B6010E948616F101A5
:1010200024853585468557850E9486169B01AC012F
:10103000C301B2010E94C4136B017C01F10120893C
:10104000318942895389C501B4010E9486169B01EA
:10105000AC01C701B6010E94C4136B017C01F10110
:10106000248935894689578969857A858B859C8548
:101070000E9486169B01AC01C701B6010E94C413F1
:101080006B017C01F101208D318D428D538D698181
:101090007A818B819C810E9486169B01AC01C701DD
:1010A000B6010E94C4130E9499142D813E814F8184
:1010B00058850E9486169B01AC0160E876EE85ECAF
:1010C00097E40E94C3139B01AC0164E97AE286E7CE
:1010D00097E40E942C142C960FB6F894DEBF0FBE36
:1010E000CDBFDF91CF911F910F91FF90EF90DF90D7
:1010F000CF90BF90AF909F908F907F906F905F90B8
:101100004F903F902F9008958F929F92AF92BF92F1
:10111000CF92DF92EF92FF920F931F934A015B01F0
:101120000E94A1076B017C0120EE3DE240E95BE3F8
:101130000E94CD1587FD37C026EA3BE944E45CE315
:10114000C701B6010E94281418166CF12DEA39E681
:101150004EE55EE3C701B6010E94C31323EE35EAF4
:101160004BE15CEB0E942C149B01AC01C501B40166
:101170000E94CD1587FD17C025E438ED40EF5DE3F3
:10118000C701B6010E94C31327E230EA49E85BEBCE
:101190000E942C149B01AC0111E0C501B4010E9416
:1011A000281418160CF410E0812F1F910F91FF9056
:1011B000EF90DF90CF90BF90AF909F908F90089569
:1011C000DC01ED91FC910280F381E02D19940F93E5
:1011D0001F930091DA021091DB022091DC02309122
:1011E000DD024091D2025091D3026091D4027091FD
:1011F000D5028AE092E00E94840881E090E01F918D
:101200000F910895CF92DF92EF92FF92CF93DF93E9
:10121000CDB7DEB72F970FB6F894DEBF0FBECDBFA8
:101220008FEF8D878E878F87C090CA02D090CB02B8
:10123000E090CC02F090CD0263E372E0CE0107961D
:101240000E94F711BE01695F7F4FCE0101960E9497
:101250005A1266E272E0CE0101960E942A13B7018B
:10126000A6010E94521362E372E00E942A13BC019D
:101270008BE194E00E947B11CE0101960E948911BE
:10128000CE0107960E94891143E050E0BE01635FE2
:101290007F4F8BE194E00E94E0086091CE02709154
:1012A000CF028091D0029091D1020E94C5146B01AF
:1012B0007C0163E372E0CE0107960E94F711BE0144
:1012C000695F7F4FCE0101960E945A1264E372E07B
:1012D000CE0101960E942A13B6010E94441362E3D4
:1012E00072E00E942A13BC018BE194E00E947B1102
:1012F000CE0101960E948911CE0107960E948911A4
:1013000043E050E0BE01635F7F4F8BE194E00E94B9
:10131000E0086091D6027091D7028091D802909136
:10132000D9020E94C5146B017C0163E372E0CE0117
:1013300007960E94F711BE01695F7F4FCE010196AB
:101340000E945A1262E472E0CE0101960E942A13B2
:10135000B6010E94441362E372E00E942A13BC01AA
:101360008BE194E00E947B11CE0101960E948911CD
:10137000CE0107960E94891143E050E0BE01635FF1
:101380007F4F8BE194E00E94E0086091D20270915F
:10139000D3028091D4029091D5020E94C5146B01B2
:1013A0007C0163E372E0CE0107960E94F711BE0153
:1013B000695F7F4FCE0101960E945A1260E572E08C
:1013C000CE0101960E942A13B6010E94441362E3E3
:1013D00072E00E942A13BC018BE194E00E947B1111
:1013E000CE0101960E948911CE0107960E948911B3
:1013F00043E050E0BE01635F7F4F8BE194E00E94C9
:10140000E0086091DA027091DB028091DC02909139
:10141000DD020E94C5146B017C0163E372E0CE0122
:1014200007960E94F711BE01695F7F4FCE010196BA
:101430000E945A126EE572E0CE0101960E942A13B4
:10144000B6010E94441362E372E00E942A13BC01B9
:101450008BE194E00E947B11CE0101960E948911DC
:10146000CE0107960E94891143E050E0BE01635F00
:101470007F4F8BE194E00E94E00881E090E02F969E
:101480000FB6F894DEBF0FBECDBFDF91CF91FF90B6
:10149000EF90DF90CF9008958F929F92AF92BF927E
:1014A000CF92DF92EF92FF920F931F93CF93DF9330
:1014B000CDB7DEB72C970FB6F894DEBF0FBECDBF09
:1014C0006C0163E372E0CE0107960E94F71188EB8E
:1014D00094E00E941B0D181619060CF0B0C086018E
:1014E000045F1F4F88EB94E00E94260D0D9779F062
:1014F00088EB94E00E94340D682FC8010E94B3125B
:1015000066E070E080E090E00E94B10BEBCF88EBEA
:1015100094E00E94340D66E070E080E090E00E946C
:10152000B10B88EB94E00E94340D66E070E080E03F
:1015300090E00E94B10B812C912CE12CF12CA12C7C
:10154000B12CF601808991898816990690F4B4012E
:10155000C8010E946013FC0180818C3231F4A11417
:10156000B10411F4540101C07401FFEF8F1A9F0AF6
:10157000E8CF950140E050E0B801CE0101960E940D
:101580007213BE016F5F7F4FCE0107960E946312F8
:10159000CE0101960E948911CE0107960E94B713D1
:1015A0006093CA027093CB028093CC029093CD02D9
:1015B000A5014F5F5F4F9701B801CE0101960E94D0
:1015C0007213BE016F5F7F4FCE0107960E946312B8
:1015D000CE0101960E948911CE0107960E94B71391
:1015E0006093CE027093CF028093D0029093D10289
:1015F000F60120893189A7014F5F5F4FB801CE0105
:1016000001960E947213BE016F5F7F4FCE01079655
:101610000E946312CE0101960E948911CE010796A5
:101620000E94B7136093D6027093D7028093D802BA
:101630009093D90263E372E0C8010E946F12CE0159
:1016400007960E94891181E090E02C960FB6F894DD
:10165000DEBF0FBECDBFDF91CF911F910F91FF90E5
:10166000EF90DF90CF90BF90AF909F908F900895B4
:101670001F920F920FB60F9211242F933F938F93C7
:101680009F93AF93BF938091760390917703A0913E
:101690007803B09179033091750323E0230F2D3740
:1016A00020F40196A11DB11D05C026E8230F029666
:1016B000A11DB11D2093750380937603909377034A
:1016C000A0937803B093790380917A0390917B0380
:1016D000A0917C03B0917D030196A11DB11D809363
:1016E0007A0390937B03A0937C03B0937D03BF9117
:1016F000AF919F918F913F912F910F900FBE0F90BF
:101700001F9018952FB7F894609176037091770326
:1017100080917803909179032FBF08953FB7F89493
:1017200080917A0390917B03A0917C03B0917D031B
:1017300026B5A89B05C02F3F19F00196A11DB11D2C
:101740003FBF6627782F892F9A2F620F711D811D49
:10175000911D42E0660F771F881F991F4A95D1F7A8
:1017600008958F929F92AF92BF92CF92DF92EF92A5
:10177000FF926B017C010E948E0B4B015C01C11436
:10178000D104E104F104F1F00E94C2130E948E0B17
:10179000681979098A099B09683E7340810591059A
:1017A00070F321E0C21AD108E108F10888EE880E32
:1017B00083E0981EA11CB11CC114D104E104F10402
:1017C00029F7DDCFFF90EF90DF90CF90BF90AF90E3
:1017D0009F908F9008958230910538F0880F991F5F
:1017E000880F991F05970197F1F70895789484B5AC
:1017F000826084BD84B5816084BD85B5826085BD0D
:1018000085B5816085BDEEE6F0E0808181608083F2
:10181000E1E8F0E0108280818260808380818160D5
:101820008083E0E8F0E0808181608083E1EBF0E09C
:10183000808184608083E0EBF0E080818160808340
:10184000E1E9F0E080818260808380818160808333
:10185000E0E9F0E0808181608083E1EAF0E080816E
:1018600082608083808181608083E0EAF0E0808113
:1018700081608083E1E2F1E0808182608083808109
:1018800081608083E0E2F1E0808181608083EAE72B
:10189000F0E08081846080838081826080838081A9
:1018A000816080838081806880831092C100089568
:1018B00090E0FC013197E231F10508F04CC0EE58A0
:1018C000FF4F0C947117809180008F7703C0809137
:1018D00080008F7D80938000089580918000877FB5
:1018E000F9CF84B58F7702C084B58F7D84BD08950C
:1018F0008091B0008F7703C08091B0008F7D80937E
:10190000B0000895809190008F7707C0809190007B
:101910008F7D03C080919000877F80939000089511
:101920008091A0008F7707C08091A0008F7D03C0B9
:101930008091A000877F8093A0000895809120016E
:101940008F7707C0809120018F7D03C08091200197
:10195000877F809320010895CF93DF9390E0FC016F
:10196000E85AFD4F2491FC01E256FD4F84918823F3
:1019700049F190E0880F991FFC01E85EFC4FA591AA
:10198000B49182509D4FFC01C591D4919FB76111D4
:1019900008C0F8948C91209582238C9388818223AF
:1019A0000AC0623051F4F8948C91322F3095832321
:1019B0008C938881822B888304C0F8948C91822B2D
:1019C0008C939FBFDF91CF9108950F931F93CF9377
:1019D000DF931F92CDB7DEB7282F30E0F901EE5E1E
:1019E000FD4F8491F901E85AFD4F1491F901E25637
:1019F000FD4F04910023C9F0882321F069830E94E0
:101A0000580C6981E02FF0E0EE0FFF1FE250FD4F10
:101A1000A591B4919FB7F8948C91611103C0109572
:101A2000812301C0812B8C939FBF0F90DF91CF91B9
:101A30001F910F910895FC01818D228D90E0805CB3
:101A40009F4F821B91098F7399270895FC01918DF7
:101A5000828D981731F0828DE80FF11D858D90E011
:101A600008958FEF9FEF0895FC01918D828D981757
:101A700061F0828DDF01A80FB11D5D968C91928D72
:101A80009F5F9F73928F90E008958FEF9FEF08956F
:101A90008FEE9EE0892B41F080E090E0892B21F0D1
:101AA0000E94EF0E811125C08CE99FE0892B41F047
:101AB00080E090E0892B21F00E949C0F81111CC0D6
:101AC00089E490E1892B41F080E090E0892B21F0BE
:101AD0000E944910811113C086EF90E1892BA1F07B
:101AE00080E090E0892B81F00E94F61081110AC0FD
:101AF00008950E940000D8CF0E940000E1CF0E940C
:101B00000000EACF0C9400000895FC01848DDF01F1
:101B1000A80FB11DA35ABF4F2C91848D90E0019660
:101B20008F739927848FA689B7892C93A089B1894F
:101B30008C9180648C93938D848D981306C0028859
:101B4000F389E02D80818F7D80830895CF93DF938B
:101B5000EC01888D8823C9F0EA89FB89808185FDA5
:101B600005C0A889B9898C9186FD0FC00FB607FC06
:101B7000F5CF808185FFF2CFA889B9898C9185FF47
:101B8000EDCFCE010E94850DE7CFDF91CF91089573
:101B9000CF92DF92FF920F931F93CF93DF931F9209
:101BA000CDB7DEB76C0181E0D60158968C9358977B
:101BB0005B969C915B975C968C915C97981307C0A1
:101BC0005096ED91FC915197808185FD2EC0F601D4
:101BD000038D10E00F5F1F4F0F731127F02EF601DA
:101BE000848DF81211C00FB607FCF9CFD6015096BC
:101BF000ED91FC915197808185FFF1CFC6016983FA
:101C00000E94850D6981EBCF838DE80FF11DE35AAA
:101C1000FF4F6083D6015B960C935B975296ED91D4
:101C2000FC915397808180620CC0D6015696ED914D
:101C3000FC91579760835096ED91FC91519780816C
:101C40008064808381E090E00F90DF91CF911F91BD
:101C50000F91FF90DF90CF900895BF92CF92DF92C7
:101C6000EF92FF92CF93DF93EC016A017B01B22EDA
:101C7000E889F98982E08083411581EE5807610582
:101C80007105A1F060E079E08DE390E0A701960195
:101C90000E944F1721503109410951095695479526
:101CA00037952795211580E1380798F0E889F9895B
:101CB000108260E874E88EE190E0A70196010E942E
:101CC0004F172150310941095109569547953795CC
:101CD0002795EC85FD853083EE85FF852083188E62
:101CE000EC89FD89B082EA89FB89808180618083EB
:101CF000EA89FB89808188608083EA89FB89808109
:101D000080688083EA89FB8980818F7D8083DF9171
:101D1000CF91FF90EF90DF90CF90BF9008951F92EA
:101D20000F920FB60F9211240BB60F922F938F9331
:101D30009F93EF93FF93E0918E03F0918F03808147
:101D4000E0919403F091950382FD12C090818091FF
:101D500097038F5F8F7320919803821751F0E09162
:101D60009703F0E0E258FC4F958F8093970301C0F2
:101D70008081FF91EF919F918F912F910F900BBEDA
:101D80000F900FBE0F901F9018951F920F920FB6D5
:101D90000F9211240BB60F922F933F934F935F93A3
:101DA0006F937F938F939F93AF93BF93EF93FF9323
:101DB0008EE793E00E94850DFF91EF91BF91AF9167
:101DC0009F918F917F916F915F914F913F912F9153
:101DD0000F900BBE0F900FBE0F901F9018958EE7BF
:101DE00093E00E941B0D21E0892B09F420E0822F53
:101DF0000895109281031092800388EE93E0A0E092
:101E0000B0E08093820390938303A0938403B09304
:101E1000850380E792E090937F0380937E0385ECB7
:101E200090E090938B0380938A0384EC90E09093EE
:101E30008D0380938C0380EC90E090938F038093CC
:101E40008E0381EC90E0909391038093900382EC59
:101E500090E0909393038093920386EC90E09093AC
:101E60009503809394031092970310929803109215
:101E7000990310929A0308951F920F920FB60F9232
:101E800011240BB60F922F938F939F93EF93FF9391
:101E9000E0912B04F0912C048081E0913104F091C9
:101EA000320482FD12C09081809134048F5F8F7361
:101EB00020913504821751F0E0913404F0E0E55EA2
:101EC000FB4F958F8093340401C08081FF91EF9187
:101ED0009F918F912F910F900BBE0F900FBE0F907F
:101EE0001F9018951F920F920FB60F9211240BB6E8
:101EF0000F922F933F934F935F936F937F938F93A3
:101F00009F93AF93BF93EF93FF938BE194E00E9475
:101F1000850DFF91EF91BF91AF919F918F917F912F
:101F20006F915F914F913F912F910F900BBE0F904A
:101F30000FBE0F901F9018958BE194E00E941B0D2F
:101F400021E0892B09F420E0822F089510921E04CD
:101F500010921D0488EE93E0A0E0B0E080931F048F
:101F600090932004A0932104B093220480E792E090
:101F700090931C0480931B048DEC90E090932804B4
:101F8000809327048CEC90E090932A04809329049A
:101F900088EC90E090932C0480932B0489EC90E0E3
:101FA00090932E0480932D048AEC90E0909330045B
:101FB00080932F048EEC90E0909332048093310450
:101FC00010923404109235041092360410923704A3
:101FD00008951F920F920FB60F9211240BB60F9215
:101FE0002F938F939F93EF93FF93E091C804F09109
:101FF000C9048081E091CE04F091CF0482FD12C02B
:1020000090818091D1048F5F8F732091D2048217C9
:1020100051F0E091D104F0E0E854FB4F958F8093AC
:10202000D10401C08081FF91EF919F918F912F91F9
:102030000F900BBE0F900FBE0F901F9018951F9220
:102040000F920FB60F9211240BB60F922F933F935E
:102050004F935F936F937F938F939F93AF93BF93B0
:10206000EF93FF9388EB94E00E94850DFF91EF9131
:10207000BF91AF919F918F917F916F915F914F91A0
:102080003F912F910F900BBE0F900FBE0F901F909E
:10209000189588EB94E00E941B0D21E0892B09F430
:1020A00020E0822F08951092BB041092BA0488EEAB
:1020B00093E0A0E0B0E08093BC049093BD04A093B3
:1020C000BE04B093BF0480E792E09093B90480937C
:1020D000B80485ED90E09093C5048093C40484ED2A
:1020E00090E09093C7048093C60480ED90E09093B5
:1020F000C9048093C80481ED90E09093CB04809351
:10210000CA0482ED90E09093CD048093CC0486EDD8
:1021100090E09093CF048093CE041092D10410925B
:10212000D2041092D3041092D40408951F920F92F7
:102130000FB60F9211240BB60F922F938F939F938C
:10214000EF93FF93E0916505F09166058081E09142
:102150006B05F0916C0582FD12C0908180916E0537
:102160008F5F8F7320916F05821751F0E0916E059C
:10217000F0E0EB5AFA4F958F80936E0501C0808195
:10218000FF91EF919F918F912F910F900BBE0F9028
:102190000FBE0F901F9018951F920F920FB60F92BF
:1021A00011240BB60F922F933F934F935F936F932E
:1021B0007F938F939F93AF93BF93EF93FF9385E5A7
:1021C00095E00E94850DFF91EF91BF91AF919F9196
:1021D0008F917F916F915F914F913F912F910F90D0
:1021E0000BBE0F900FBE0F901F90189585E595E0E0
:1021F0000E941B0D21E0892B09F420E0822F089515
:10220000109258051092570588EE93E0A0E0B0E0D8
:102210008093590590935A05A0935B05B0935C0594
:1022200080E792E0909356058093550585E391E011
:10223000909362058093610584E391E09093640537
:102240008093630580E391E0909366058093650534
:1022500081E391E0909368058093670582E391E0C4
:1022600090936A058093690586E391E090936C05ED
:1022700080936B0510926E0510926F051092700599
:1022800010927105089508950E94F60B0E94431163
:102290000E948202C8E4DDE00E94F2022097E1F38E
:1022A0000E94480DF9CFCF92DF92EF92FF920F93E9
:1022B0001F93CF93DF937C016A01EB0100E010E0F4
:1022C0000C151D0571F06991D701ED91FC910190FC
:1022D000F081E02DC7011995892B19F00F5F1F4F71
:1022E000EFCFC801DF91CF911F910F91FF90EF9039
:1022F000DF90CF900895DC01ED91FC91DB01149605
:102300004D915C9115976D917C910280F381E02D48
:102310001994FC01808191810C944E18CF93DF9326
:10232000EC0188819981009711F00E944E18198262
:1023300018821D821C821B821A82DF91CF91089520
:102340000F931F93CF93DF93EC018B016F5F7F4F50
:10235000888199810E94DD18009731F099838883E4
:102360001B830A8381E001C080E0DF91CF911F9140
:102370000F910895CF93DF93EC0188819981892B88
:1023800029F08A819B818617970760F4CE010E940D
:10239000A011882341F08C819D81892B19F4E8815B
:1023A000F981108281E0DF91CF910895EF92FF9241
:1023B0000F931F93CF93DF93EC017B018A01BA0146
:1023C0000E94BA11811104C0CE010E948E1107C073
:1023D0001D830C83B701888199810E94DB19CE018E
:1023E000DF91CF911F910F91FF90EF900895FC0125
:1023F0001182108213821282158214826115710576
:1024000059F0FB0101900020E9F7AF01415051095B
:10241000461B570B0C94D61108950F931F93CF931F
:10242000DF938C01EB01FC0180819181009799F091
:10243000428153812C813D814217530750F06881BE
:1024400079810E94DB198C819D81F80195838483B9
:1024500013C00E944E1888819981F801918380836E
:102460008A819B81938382838C819D8195838483E0
:10247000198218821B821A821D821C82DF91CF91E1
:102480001F910F910895CF93DF93EC01FB01861705
:10249000970761F0608171816115710529F04481B0
:1024A00055810E94D61102C00E948E11CE01DF918B
:1024B000CF910895FC01118210821382128215823D
:1024C00014820C944312CF93DF93EC018617970785
:1024D00011F00E940D12CE01DF91CF910895CF939C
:1024E000DF93EC016115710561F0FB0101900020A3
:1024F000E9F7AF0141505109461B570B0E94D61115
:1025000002C00E948E11CE01DF91CF910895EF920B
:10251000FF920F931F93CF93DF93EC017B010C810C
:102520001D816115710511F480E016C0411551053A
:1025300091F0040F151FB8010E94BA118823A1F36E
:10254000288139818C819D81B701820F931F0E9460
:10255000DB191D830C8381E0DF91CF911F910F91D7
:10256000FF90EF900895CF93DF931F921F92CDB706
:10257000DEB769831A8241E050E0BE016F5F7F4F92
:102580000E9487120F900F90DF91CF910895EF92E4
:10259000FF920F931F93CF93DF93CDB7DEB72897AA
:1025A0000FB6F894DEBF0FBECDBF7C01CB014AE071
:1025B0008E010F5F1F4FB8010E94E219F8010190D0
:1025C0000020E9F7AF0141505109401B510BB80100
:1025D000C7010E94871228960FB6F894DEBF0FBE7F
:1025E000CDBFDF91CF911F910F91FF90EF90089594
:1025F000EF92FF920F931F93CF93DF93CDB7DEB788
:1026000064970FB6F894DEBF0FBECDBF7C01CB013F
:10261000BA018E010F5F1F4F22E044E00E94951720
:10262000FC0101900020E9F7AF0141505109481B1E
:10263000590BBC01C7010E94871264960FB6F8942B
:10264000DEBF0FBECDBFDF91CF911F910F91FF90E5
:10265000EF900895CF93DF93EC016115710569F058
:10266000FB0101900020E9F7AF0141505109461BE1
:10267000570B0E948712811103C0CE010E948E1158
:10268000CE01DF91CF910895CF93DF93EC010E94AB
:10269000C712811103C0CE010E948E11CE01DF91BD
:1026A000CF910895CF93DF93EC010E94F81281112E
:1026B00003C0CE010E948E11CE01DF91CF9108950B
:1026C000FC01848195816817790720F480819181CC
:1026D000009729F41092F20582EF95E00895860F95
:1026E000971F0895BF92CF92DF92EF92FF920F93C0
:1026F0001F93CF93DF936C017B01EA0189012417BB
:10270000350720F48D2FE901042F182F63E372E0C1
:10271000C6010E94F711D70114968D919C911597CF
:10272000C817D907C8F48017910708F48C01D7019E
:10273000ED91FC911197E00FF11FB08010826D9127
:102740007C916C0F7D1FC6010E946F12D701ED9125
:10275000FC91E00FF11FB082C601DF91CF911F9174
:102760000F91FF90EF90DF90CF90BF900895FC0104
:1027700080819181009711F00C94C61960E070E09F
:10278000CB01089508955058BB27AA270ED0CBC17E
:10279000BCD130F0C1D120F031F49F3F11F41EF4D0
:1027A0008CC10EF4E095E7FB82C1E92FCDD180F317
:1027B000BA17620773078407950718F071F49EF53E
:1027C000E5C10EF4E0950B2EBA2FA02D0B01B90137
:1027D00090010C01CA01A0011124FF27591B99F097
:1027E000593F50F4503E68F11A16F040A22F232FA3
:1027F000342F4427585FF3CF469537952795A795F3
:10280000F0405395C9F77EF41F16BA0B620B730B99
:10281000840BBAF09150A1F0FF0FBB1F661F771F0A
:10282000881FC2F70EC0BA0F621F731F841F48F4BF
:10283000879577956795B795F7959E3F08F0B3CF45
:102840009395880F08F09927EE0F9795879508952F
:102850000AD108F481E008950CD065C15DD140F043
:1028600054D130F021F45F3F19F021C151118FC1D3
:1028700024C16AD198F39923C9F35523B1F3951B69
:10288000550BBB27AA2762177307840738F09F5F91
:102890005F4F220F331F441FAA1FA9F333D00E2E00
:1028A0003AF0E0E830D091505040E695001CCAF76D
:1028B00029D0FE2F27D0660F771F881FBB1F261732
:1028C00037074807AB07B0E809F0BB0B802DBF0105
:1028D000FF2793585F4F2AF09E3F510568F0E7C0ED
:1028E00056C15F3FECF3983EDCF38695779567958C
:1028F000B795F7959F5FC9F7880F911D96958795B6
:1029000097F90895E1E0660F771F881FBB1F6217D4
:1029100073078407BA0720F0621B730B840BBA0B92
:10292000EE1F88F7E095089519F40EF0C0C02EC18F
:10293000C4C012D1C8F39638C0F707F80F92E894D4
:102940002BE33AEA48EB5FE7EFD10F920F920F9239
:102950004DB75EB70F92A7D1E8E0F1E0B1D04F914B
:102960005F91EF91FF91E595EE1FFF1F49F0FE5734
:10297000E0684427EE0F441FFA95E1F74195550BA7
:1029800019D10F9007FE0DC1089504D06894B111BC
:10299000FEC00895E1D088F09F5790F0B92F992795
:1029A000B751A0F0D1F0660F771F881F991F1AF05A
:1029B000BA95C9F712C0B13081F0E8D0B1E00895FE
:1029C000E5C0672F782F8827B85F39F0B93FCCF37F
:1029D000869577956795B395D9F73EF49095809550
:1029E000709561957F4F8F4F9F4F0895E89409C070
:1029F00097FB3EF490958095709561957F4F8F4F32
:102A00009F4F9923A9F0F92F96E9BB279395F69547
:102A1000879577956795B795F111F8CFFAF4BB0FC5
:102A200011F460FF1BC06F5F7F4F8F4F9F4F16C029
:102A3000882311F096E911C0772321F09EE8872FB3
:102A4000762F05C0662371F096E8862F70E060E06F
:102A50002AF09A95660F771F881FDAF7880F9695E8
:102A6000879597F90895990F0008550FAA0BE0E88C
:102A7000FEEF16161706E807F907C0F01216130640
:102A8000E407F50798F0621B730B840B950B39F480
:102A90000A2661F0232B242B252B21F408950A26E6
:102AA00009F4A140A6958FEF811D811D089597F926
:102AB0009F6780E870E060E008959FEF80EC0895E4
:102AC000DF93CF931F930F93FF92EF92DF927B01DF
:102AD0008C01689405C0DA2EEF0124D1FE01E89440
:102AE000A5912591359145915591AEF3EF015DDEAC
:102AF000FE019701A801DA9479F7DF90EF90FF903B
:102B00000F911F91CF91DF91089500240A9416161A
:102B1000170618060906089500240A9412161306CB
:102B2000140605060895092E0394000C11F4882359
:102B300052F0BB0F40F4BF2B11F460FF04C06F5F75
:102B40007F4F8F4F9F4F089557FD9058440F551F4B
:102B500059F05F3F71F04795880F97FB991F61F01F
:102B60009F3F79F087950895121613061406551F96
:102B7000F2CF4695F1DF08C0161617061806991F02
:102B8000F1CF86957105610508940895E894BB27F7
:102B900066277727CB0197F9089565DF08F48FEF53
:102BA00008959B01AC0160E070E080E89FE354CEA3
:102BB0007ECF5BC1D1DFE8F39923D9F3940F511D88
:102BC000BBF39150504094F059F0882332F0660FD7
:102BD000771F881F91505040C1F79E3F510544F721
:102BE000880F911D9695879597F908955F3FACF0F2
:102BF000983E9CF0BB27869577956795B79508F426
:102C0000B1609395C1F7BB0F58F711F460FFE8CF9F
:102C10006F5F7F4F8F4F9F4FE3CFB9CF0EF025C12E
:102C20004CCF689444CF98DFC8F39923D1F3C6F30F
:102C3000DF93CF931F930F93FF92C92FDD27882334
:102C40002AF02197660F771F881FDAF720E030E01F
:102C500040E85FEB9FE3883920F0803E30F021961A
:102C60008F7792DDE0E3F1E003C08EDDEDE5F1E08A
:102C700027DF8B01BE01EC01FB2E6F5771097595A3
:102C8000771F880B990BB4DE28E132E741E35FE35D
:102C900049D0AF2D9801AE01FF900F911F91CF91B8
:102CA000DF9183DD40CFFA01DC01AA0FBB1F9B013E
:102CB000AC01BF5728F422273327442750781FC080
:102CC000B75188F4AB2F0024469537952795011C02
:102CD000A395D2F3002069F0220F331F441FB39550
:102CE000DAF30DD050CD61307105A0E88A07B946FE
:102CF00030F49B01AC0166277727882790783096BF
:102D000021F0208331834283538308950BD00BCF6E
:102D1000FCDE28F001DF18F0952309F0C8CECDCEF7
:102D2000112435CF11DFA0F3959FD1F3950F50E01B
:102D3000551F629FF001729FBB27F00DB11D639F6D
:102D4000AA27F00DB11DAA1F649F6627B00DA11D13
:102D5000661F829F2227B00DA11D621F739FB00DB9
:102D6000A11D621F839FA00D611D221F749F332729
:102D7000A00D611D231F849F600D211D822F762FC2
:102D80006A2F11249F5750408AF0E1F088234AF0BF
:102D9000EE0FFF1FBB1F661F771F881F915050400B
:102DA000A9F79E3F510570F082CEF1CE5F3FECF364
:102DB000983EDCF3869577956795B795F795E795F7
:102DC0009F5FC1F7FE2B880F911D9695879597F908
:102DD0000895FA01EE0FFF1F30962105310599F194
:102DE0006115710561F48038BFE39B0749F1689470
:102DF0009038810561F08038BFEF9B0741F099233F
:102E000042F5FF3FE1053105210511F1E8940894F1
:102E1000E795D901AA2329F4AB2FBE2FF85FD0F391
:102E200010C0FF5F70F4A695E0F7F73950F019F085
:102E3000FF3A38F49F779F930CD00F9007FC90587F
:102E400008953EF03ACE60E070E080E89FE3089598
:102E50004FE79F775F934F933F932F93E4DE2F913C
:102E60003F914F915F9152DF64CD9F3F31F0915080
:102E700020F4879577956795B795880F911D96955E
:102E8000879597F90895991B79E004C0991F9617C3
:102E900008F0961B881F7A95C9F780950895A1E2DE
:102EA0001A2EAA1BBB1BFD010DC0AA1FBB1FEE1FC4
:102EB000FF1FA217B307E407F50720F0A21BB30B0F
:102EC000E40BF50B661F771F881F991F1A9469F78B
:102ED00060957095809590959B01AC01BD01CF01E7
:102EE0000895EE0FFF1F0590F491E02D19940E94B4
:102EF0008617A59F900DB49F900DA49F800D911DE6
:102F0000112408950790F691E02D1994A29FB00125
:102F1000B39FC001A39F700D811D1124911DB29F0D
:102F2000700D811D1124911D0895EF920F931F9331
:102F3000CF93DF93E80147FF02C034E101C034E0E2
:102F4000E42FFF27E7FDF095F7FF03C0F195E1952A
:102F5000F109E32E022F2E2FAE010E94071ACE0197
:102F6000DF91CF911F910F91EF900895CF93DF9351
:102F70008230910510F482E090E0E091F505F09147
:102F8000F60520E030E0A0E0B0E0309739F1408174
:102F9000518148175907B8F04817590771F48281D1
:102FA0009381109729F013969C938E9312972CC0BF
:102FB0009093F6058093F50527C02115310531F072
:102FC0004217530718F0A901DB0101C0EF019A0174
:102FD000BD01DF010280F381E02DD7CF211531053E
:102FE000F9F0281B390B2430310580F48A819B814C
:102FF0006115710521F0FB019383828304C09093D6
:10300000F6058093F505FE01329644C0FE01E20FFD
:10301000F31F8193919322503109398328833AC059
:103020002091F3053091F405232B41F42091020205
:10303000309103023093F4052093F30520910002B0
:10304000309101022115310541F42DB73EB7409171
:10305000040250910502241B350BE091F305F09119
:10306000F405E217F307A0F42E1B3F0B28173907CE
:1030700078F0AC014E5F5F4F2417350748F04E0FD4
:103080005F1F5093F4054093F3058193919302C021
:10309000E0E0F0E0CF01DF91CF910895CF93DF938F
:1030A000009709F487C0FC01329713821282C09105
:1030B000F505D091F605209781F420813181280F04
:1030C000391F8091F3059091F4058217930779F5E4
:1030D000F093F405E093F3056DC0DE0120E030E0ED
:1030E000AE17BF0750F412964D915C9113979D0156
:1030F0004115510509F1DA01F3CFB383A283408171
:103100005181840F951F8A179B0771F48D919C91B3
:103110001197840F951F02969183808312968D914B
:103120009C911397938382832115310529F4F093A1
:10313000F605E093F5053EC0D9011396FC93EE9396
:1031400012974D915D91A40FB51FEA17FB0779F413
:1031500080819181840F951F0296D90111969C93CD
:103160008E938281938113969C938E931297E0E0C5
:10317000F0E08A819B81009719F0FE01EC01F9CF04
:10318000CE01029628813981820F931F2091F30589
:103190003091F4052817390769F4309729F4109213
:1031A000F6051092F50502C013821282D093F40541
:1031B000C093F305DF91CF9108956F927F928F9224
:1031C0009F92AF92BF92CF92DF92EF92FF920F93B6
:1031D0001F93CF93DF93EC01CB01209781F4DF9114
:1031E000CF911F910F91FF90EF90DF90CF90BF9004
:1031F000AF909F908F907F906F900C94B617FE01C8
:10320000E60FF71F9E0122503109E217F30708F479
:10321000ACC0D9010D911C91119706171707B8F092
:103220000530110508F49FC0A80144505109461704
:10323000570708F498C002501109061B170B019399
:1032400011936D937C93CF010E944E188CC05B014B
:10325000A01AB10A4E01800E911EA091F505B09101
:10326000F605612C712C60E070E0109709F449C0FC
:10327000A815B905C9F5ED90FC901197670142E0DA
:10328000C40ED11CCA14DB0478F147018A189B08CC
:10329000640142E0C40ED11C1296BC9012971396A2
:1032A000AC91B5E0CB16D10440F0B282A3839182F9
:1032B0008082D9018D939C9309C00E5F1F4F0E0D24
:1032C0001F1DF90111830083EB2DFA2F6115710584
:1032D00031F0DB011396FC93EE93129744C0F09308
:1032E000F605E093F5053FC06D917C911197661648
:1032F000770608F43B01BD0112960D90BC91A02DFC
:10330000B4CF6091F3057091F40568157905E9F47F
:1033100068167906D0F440910002509101024115DF
:10332000510541F44DB75EB76091040270910502FA
:10333000461B570BE417F507C0F4F093F405E09330
:10334000F305F901918380830EC00E94B6177C01BA
:10335000009759F0A801BE010E94D219CE010E9427
:103360004E18C70104C0CE0102C080E090E0DF919A
:10337000CF911F910F91FF90EF90DF90CF90BF9072
:10338000AF909F908F907F906F90089566277727DA
:103390000C94851B911102C4803219F0895085501C
:1033A000D0F70895FB01DC0102C001900D9241505D
:1033B0005040D8F70895FB01DC0101900D920020E8
:1033C000E1F70895BB274A3031F4992322F4BDE296
:1033D000909581959F4F0C94EE19BB27FB015527C3
:1033E000AA27880F991FAA1FA41710F0A41B839562
:1033F0005051B9F7A05DAA3308F0A95DA1930097D9
:1034000079F7B111B1931192CB010C94E91D6F9230
:103410007F929F92AF92BF92CF92DF92EF92FF92F4
:103420000F931F93CF93DF93CDB7DEB729970FB6D6
:10343000F894DEBF0FBECDBF6A01B22E102F0C3341
:1034400020F4FF24F394F00E02C04CE3F42E0F2D71
:1034500027E0AE014F5F5F4F0E94F61C7981272F56
:103460002970213031F0E1FC06C0E0FC06C060E0CC
:1034700005C06DE203C06BE201C060E2AE2DA07139
:1034800073FF36C0662311F084E001C083E08B1522
:1034900010F4B81A01C0B12CA1110BC0F6018B2D8C
:1034A00090E2882319F091938150FBCFCB0CD11C73
:1034B000B12C662331F0F601608396012F5F3F4FF8
:1034C0006901C6010396E2FE05C02EE4F6012083E1
:1034D00031E404C02EE6F601208331E631832283F5
:1034E000FC012B2D30E22223F1F131932150FBCF4F
:1034F00072FF40C0662311F084E001C083E08B15A9
:1035000010F4B81A01C0B12CA1110BC0F6018B2D1B
:1035100090E2882319F091938150FBCFCB0CD11C02
:10352000B12C662331F0F601608396012F5F3F4F87
:103530006901C6010396E2FE07C029E4F601208373
:103540002EE4218326E406C029E6F60120832EE638
:10355000218326E62283FC012B2D30E2222319F061
:1035600031932150FBCFFC01EB0DF11D10828EEF4A
:103570009FEFB7C0B1E0611101C0B0E04B2F50E048
:103580001816190624F49C012F5F3F4F02C021E05A
:1035900030E0240F351F112329F0412F50E04F5FF9
:1035A0005F4F02C040E050E0420F531F2B2D30E030
:1035B0004217530714F4B41A01C0B12C2E2D2871F0
:1035C00059F4F6012B2D30E2222319F031932150CA
:1035D000FBCFCB0CD11CB12CBB2331F0F6016083A7
:1035E00096012F5F3F4F6901A1110BC0F6012B2DF2
:1035F00030E3222319F031932150FBCFCB0CD11CA7
:10360000B12CF80E0A81372F3071A32E74FF03C03E
:10361000013309F4FA941F142CF42F2D293018F0DB
:1036200028E001C021E0682F392F97FF02C060E039
:1036300030E0462F532F612C712C3EE2932EBC01BB
:10364000621B71099B01DC01A41BB50BE1E0F0E0FA
:10365000EC0FFD1FAE0FBF1FE12EF12CF194E19492
:10366000F1084F3FFFEF5F0731F4F6019082B6019A
:103670006F5F7F4F6B01841795074CF02417350758
:1036800034F4BD01660D771DFB01118101C010E30B
:1036900041505109FFEF6F1A7F0AB6016F5F7F4FEC
:1036A0004E155F0524F0F60110836B01DACF481741
:1036B000590739F4063320F4053319F4A11001C079
:1036C00011E3F6011083FB018B2D90E2882319F0A2
:1036D00091938150FBCFFB01EB0DF11D108280E037
:1036E00090E029960FB6F894DEBF0FBECDBFDF91F4
:1036F000CF911F910F91FF90EF90DF90CF90BF90EF
:10370000AF909F907F906F9008958F929F92AF920D
:10371000BF92CF92DF92EF92FF920F931F93CF93BE
:10372000DF938B016115710521F0DB018C931196FC
:103730009C93EC015E01BFEFAB1ABB0A7501C88018
:103740008C2D90E00E94CA19892B11F0E501F2CF6F
:10375000EDE2CE1208C07E01F2E0EF0EF11CC9804E
:10376000DD24D39409C02BE2C21205C07E0142E0E1
:10377000E40EF11CC980D12CE701219743E050E011
:103780006AE373E0CE010E94D11D892BC1F4239618
:1037900045E050E065E373E0CE010E94D11D892B26
:1037A00009F425960115110519F0D801CD93DC9384
:1037B000D11006C160E070E080E89FE70AC143E0F5
:1037C00050E062E373E0CE010E94D11D892B59F4D1
:1037D0000115110509F4F9C0B2E0EB0EF11CF80176
:1037E000F182E082F2C0F70160E070E0CB01C0E05E
:1037F000D0E07F01A0EDAA2EAC0C29E02A1530F113
:103800004D2D4260B42E2D2D2870D2FE04C0211102
:1038100025C0219623C021112197A5E0B0E09B018E
:10382000AC010E947717660F771F881F991F6A0DDA
:10383000711D811D911D6839A9E97A078A07A9E1DF
:103840009A0760F0BD2DB660BB2E08C02EEFA21205
:103850000AC0D3FC50C04D2D4860B42E3196D7011C
:10386000CC90DB2CC6CF2C2D2F7D253409F043C006
:10387000A081AD3241F4BD2DB061DB2E7F0122E08D
:10388000E20EF11C0CC07F01AB3231F04FEFE41AB5
:10389000F40A21E030E006C0A2E0EA0EF11CA181AA
:1038A00022E030E0A053AA3018F0E21AF30A23C055
:1038B000F70120E030E02038BCE03B075CF4A901D0
:1038C000440F551F440F551F240F351F220F331F60
:1038D0002A0F311DAF014F5F5F4F7A01A081A053C6
:1038E000AA3010F4FA01E7CFD4FE03C03195219538
:1038F0003109C20FD31FD1FE09C00115110531F0E6
:10390000E1E0EE1AF108D801ED92FC920E94F61463
:103910002D2D2370233019F04B015C0106C04B01A3
:103920005C01B7FAB094B7F8B09420E030E0A90198
:10393000C501B4010E942814882309F43EC0D7FFB2
:1039400006C0D195C195D10901E513E002C009E691
:1039500013E06801B8E1CB1AD10890E2E92EF12C0E
:10396000CE15DF0574F0F8012591359145915491FC
:10397000C501B4010E9486164B015C01CE19DF0916
:10398000EFCF04501109F594E7940C151D0541F78C
:103990008A2D880F8B2D881F8F3F49F020E030E063
:1039A000A901C501B4010E942814811106C082E258
:1039B00090E09093F8058093F705C501B40109C024
:1039C00060E070E080E89FEF04C060E070E080ECB1
:1039D0009FE7DF91CF911F910F91FF90EF90DF90C4
:1039E000CF90BF90AF909F908F900895283008F0AF
:1039F00027E03327DA01990F311D87FD916000968A
:103A00006105710539F432602E5F3D9330E32A95EC
:103A1000E1F708959F3F30F080387105610509F0A6
:103A20003C5F3C5F3D93913008F08068911DDF93CF
:103A3000CF931F930F93FF92EF92192F987F969534
:103A4000E92F96959695E90FFF27E953FC4F9927A3
:103A50003327EE24FF24A701E7010590089407947B
:103A600028F4360FE71EF81E491F511D660F771FF9
:103A7000881F991F0694A1F70590079428F4E70E74
:103A8000F81E491F561FC11D770F881F991F661FFB
:103A90000694A1F70590079428F4F80E491F561FC5
:103AA000C71FD11D880F991F661F771F0694A1F7A6
:103AB0000590079420F4490F561FC71FD81F990F70
:103AC000661F771F881F0694A9F7849110951770B9
:103AD00041F0D695C79557954795F794E7941A9571
:103AE000C1F7EDE6F3E06894159015913591659175
:103AF000959105907FE27395E118F10A430B560BFF
:103B0000C90BD009C0F7E10CF11E431F561FC91F96
:103B1000D01D7EF4703311F48A95E6CFE8940150FD
:103B200030F0080F0AF40027021708F4202F23951D
:103B3000022F7A3328F079E37D932A95E9F710C0B4
:103B40007D932A9589F606949795679537951795ED
:103B50001794E118F10A430B560BC90BD00998F0E2
:103B600023957E9173957A3308F070E37C9320134C
:103B7000B8F77E9170617D9330F0839571E37D930A
:103B800070E32A95E1F71124EF90FF900F911F91B8
:103B9000CF91DF91992787FD9095089599278827E0
:103BA0000895FB01DC014150504088F08D91813433
:103BB0001CF08B350CF4805E659161341CF06B3524
:103BC0000CF4605E861B611171F3990B0895881BDC
:103BD000FCCFDC01FC01672F71917723E1F732976D
:103BE00004C07C916D9370836291AE17BF07C8F3D8
:103BF000089514E0C2E7D4E000E006C0229701096E
:103C0000FE010BBF0E948217C437D10780E008076E
:063C1000A9F7F894FFCFB4
:103C16000000F9058000010000004A54B1C5908FEC
:103C2600CC40D18F1EBC4E022735F6930E31CC798F
:103C360085AB683B8540736A6A6B2E74302E747848
:103C4600743D2200736A6A6B2E74312E7478743D4B
:103C56002200736A6A6B2E74322E7478743D2200C9
:103C6600736A6A6B2E74332E7478743D2200736AFD
:103C76006A6B2E74342E7478743D220000000000A6
:0C3C8600C80D53111B0D340D260DA60DAA
:00000001FF
