:100000000C943A020C946B020C946B020C946B02ED
:100010000C946B020C946B020C946B020C946B02AC
:100020000C946B020C946B020C946B020C946B029C
:100030000C946B020C946B020C946B020C946B028C
:100040000C946B020C94E3040C946B020C946B0202
:100050000C946B020C946B020C946B020C942611A2
:100060000C946B020C94A6140C94DC140C946B028C
:100070000C946B020C946B020C946B020C946B024C
:100080000C9411050C946B020C946B020C946B0293
:100090000C9453150C9489150C946B020C946B0200
:1000A0000C946B020C946B020C943F050C946B0245
:1000B0000C946B020C946B020C946B020C946D0507
:1000C0000C946B020C946B020C946B020C94001653
:1000D0000C9436160C946B020C94AD160C94E3162B
:1000E0000C946B025F126212511255125B1299123C
:1000F00066126A127012741278127E1282128612BE
:1001000099128C129012941207634236B79BD8A7AB
:100110001A39685618AEBAAB558C1D3CB7CC57632C
:10012000BD6DEDFD753EF6177231BF000000803FDA
:1001300008000000BE922449123EABAAAA2ABECDF6
:10014000CCCC4C3E00000080BEABAAAAAA3E000068
:100150000000BF000000803F000000000008417860
:10016000D3BB4387D1133D190E3CC3BD4282AD2B97
:100170003E68EC8276BED98FE1A93E4C80EFFFBE8F
:1001800001C4FF7F3F00000000000C944B130C944F
:100190005F120C94BD130C9451120C9486120C94A3
:1001A0007E120C9466120C945B120C946A120C94DE
:1001B000B3150C946A160C94BD150C940D170C9481
:1001C0005F130C9417170C9470120C9462120C9419
:1001D00010150C9432130C9499120C94DF130C9498
:1001E0006A170C948C120C9494120C9401040C94C5
:1001F00078120C9406150C9482120C9490120C94A4
:1002000055120C9474120C9420040C9460160C94E7
:100210003D1300000A0B02090C0D0E080703040130
:1002200000000000000000000000000000000000CE
:10023000000000000000000000000000000012119B
:10024000100000000000000000000000000000009E
:10025000000000000000000001021020200808102B
:100260002040102040800201020108040201010226
:1002700004081020408080402010080402018004FF
:10028000020180402010080402010804020101025A
:100290000408102040800102040810204080050559
:1002A0000505070508080808020202020A0A0808EC
:1002B000040404040101010101010101030303031A
:1002C00003030303040707070C0C0C0C0C0C0C0CA9
:1002D0000202020206060606060606060B0B0B0BBA
:1002E0000B0B0B0B000020002300260029002C0024
:1002F0002F00320000010000030106010901000087
:100300002200250028002B002E00310034000201BD
:100310000000050108010B01000021002400270056
:100320002A002D0030003300010100000401070104
:100330000A014E414E494E495459494E46CDCCCC06
:100340003D0AD7233C17B7D13877CC2B329595E6A9
:10035000241FB14F0A000020410000C84200401C89
:100360004620BCBE4CCA1B0E5AAEC59D7400407AD6
:1003700010F35A00A0724E18090010A5D4E800002E
:10038000E87648170000E40B54020000CA9A3B00CC
:100390000000E1F505000080969800000040420F43
:1003A000000000A08601000000102700000000E807
:1003B00003000000006400000000000A00000000CC
:1003C000000100000000002C76D888DC674F08236D
:1003D000DFC1DFAE59E1B1B796E5E3E453C63AE6D3
:1003E00051997696E8E6C28426EB898C9B62ED40B3
:1003F0007C6FFCEFBC9C9F40F2BAA56FA5F4900502
:100400005A2AF75C936B6CF9676DC11BFCE0E40D35
:1004100047FEF520E6B500D0ED902E030094357729
:10042000050080841E080000204E0A000000C80C51
:10043000333333330F986E12831141EF8D211489BA
:100440003BE65516CFFEE6DB18D1844B381BF77C14
:100450001D901DA4BBE424203284725E228100C959
:10046000F124ECA1E53D270001041015BD156A1625
:100470001717200411241FBECFEFD1E2DEBFCDBF7E
:1004800000E00CBF13E0A0E0B2E0E6E6FAE400E032
:100490000BBF02C007900D92A830B107D9F726E034
:1004A000A8E0B3E001C01D92A13BB207E1F714E060
:1004B000C2E7D4E000E006C022970109FE010BBFAD
:1004C0000E94AA1EC836D10780E00807A9F70E943B
:1004D0005B170C9421250C940000CF93DF93EC0163
:1004E00063E572E00E94CC1863E572E0CE010696E7
:1004F0000E94CC1863E572E0CE010C960E94CC18E5
:1005000063E572E0CE014296DF91CF910C94CC1856
:1005100061E080E20E949A1261E081E20E949A12F8
:1005200061E082E20E949A1261E08AE20E949A12DD
:1005300061E08AE20E94D31261E08BE20E949A128B
:1005400061E08BE20E94D31261E08CE20E949A1279
:1005500062E089E10E949A1262E088E10E949A12A8
:1005600062E087E10E949A1226E040E052EC61E0EE
:1005700070E086E394E00E94441426E040E052ECF0
:1005800061E070E083ED94E00E94441426E040E6D0
:1005900059E060E070E080E795E00E94441426E0B6
:1005A00040E052EC61E070E08DE096E00E9444147F
:1005B00080E793E00E948D066BE070E08DE693E0AB
:1005C0000E9466066CE070E08AE693E00E94660690
:1005D00089E093E00E94090B64E670E080E090E01F
:1005E0000E949F1189E093E00E94100B64E670E086
:1005F00080E090E00E949F1189E093E00E94090B47
:1006000064E670E080E090E00E949F1189E093E052
:100610000C94100B40E060E080E793E00E94DF075D
:1006200060938A0370938B0380938C0390938D0364
:1006300060E080E793E00E943F086093920370932C
:1006400093038093940390939503089580913202CD
:1006500090913302009781F488E10E940913892B5D
:10066000D1F488E093E00E94170B81E090E0909332
:100670003302809332020895019769F489E10E9460
:100680000913892B41F488E093E00E94170B109224
:1006900033021092320208952091260230912702EF
:1006A0004091280250912902609182037091830346
:1006B00080918403909185030E94F51C1816DCF448
:1006C0008091360290913702892BC9F489E093E03A
:1006D0000E94090B68EC70E080E090E00E949F119E
:1006E00089E093E00E94100B81E090E09093370244
:1006F00080933602089510923702109236020895C0
:10070000CF93DF9380913C0290913D02019749F590
:100710008091340290913502019771F480913202F8
:1007200090913302892B41F488E093E00E94220BE0
:10073000109233021092320280913402909135026D
:10074000892B79F4C0913202D0913302C130D105A6
:1007500041F488E093E00E94350BD0933302C093BC
:100760003202DF91CF91089582E593E00E944F0B12
:1007700082E293E00E94D30F0E940A038AE393E08F
:100780000E94520B8AE393E00E94140F8AE093E0E8
:100790000E94110F8AE093E00E94BF1060913C021A
:1007A00070913D024AE050E086E394E00E945618C2
:1007B0000E9426030E944C030C948003CF93DF9386
:1007C000EC0142960E945E18CE010C960E945E18C3
:1007D000CE0106960E945E18CE01DF91CF910C9457
:1007E0005E188AE093E00E94DE0382E293E00E94BA
:1007F000DE038AE393E00E94DE0382E593E00C943B
:10080000DE0326E04BE06DE280E793E00E946C0699
:100810008DE693E00E949B058AE693E00E949B058B
:1008200082E593E00E946D028AE393E00E946D02EC
:1008300082E293E00E946D028AE093E00C946D02E4
:100840000C94F103CF92DF92EF92FF920F931F93DC
:10085000CF93DF936C018B017A01EC01C756DC4F1B
:10086000888187FF04C0FB011182108223C02CE025
:100870002C9DC0012D9D900D11242881AC01420FAB
:10088000511D27FD5A952091980330E042175307D8
:100890008CF42881AC01420F511D27FD5A959A0115
:1008A000FA01EE0FFF1FE20FF31FE356FC4F20810A
:1008B00026FD19C088818F5F88838CE08C9D900114
:1008C0008D9D300D11248881A901480F511D87FD90
:1008D0005A958091980390E048175907B4F488819D
:1008E0008C303CF112C02881820F911D27FD9A9512
:1008F000FC01EE0FFF1FE80FF91FE356FC4F80814C
:1009000060E08F730E94D312D5CFF801808191816E
:10091000049680349C4918F480E49CE904C0F801F2
:10092000808191810496F701918380838FEF888382
:1009300041C0F801808191814881B901640F711D26
:1009400047FD7A95AB01FB01EE0FFF1FE40FF51F8A
:10095000E356FC4F41815281840F951FF70191832B
:1009600080838881A901480F511D87FD5A95FA019E
:10097000EE0FFF1FE40FF51FE356FC4F808186FF4B
:1009800019C08881280F311D87FD3A95F901EE0FB6
:10099000FF1FE20FF31FE356FC4F808161E08F736E
:1009A000DF91CF911F910F91FF90EF90DF90CF904B
:1009B0000C94D312DF91CF911F910F91FF90EF9084
:1009C000DF90CF9008951F920F920FB60F921124CF
:1009D0000BB60F922F933F934F935F936F937F9339
:1009E0008F939F93AF93BF93EF93FF9348E850E0AB
:1009F00064E870E081E090E00E942204FF91EF91B2
:100A0000BF91AF919F918F917F916F915F914F9126
:100A10003F912F910F900BBE0F900FBE0F901F9024
:100A200018951F920F920FB60F9211240BB60F92CA
:100A30002F933F934F935F936F937F938F939F93E6
:100A4000AF93BF93EF93FF9348E950E064E970E000
:100A500082E090E00E942204FF91EF91BF91AF915C
:100A60009F918F917F916F915F914F913F912F91C6
:100A70000F900BBE0F900FBE0F901F9018951F92F6
:100A80000F920FB60F9211240BB60F922F933F9334
:100A90004F935F936F937F938F939F93AF93BF9386
:100AA000EF93FF9348EA50E064EA70E083E090E05F
:100AB0000E942204FF91EF91BF91AF919F918F917E
:100AC0007F916F915F914F913F912F910F900BBE4E
:100AD0000F900FBE0F901F9018951F920F920FB698
:100AE0000F9211240BB60F922F933F934F935F9366
:100AF0006F937F938F939F93AF93BF93EF93FF93E6
:100B000048E251E064E271E080E090E00E9422045B
:100B1000FF91EF91BF91AF919F918F917F916F91D5
:100B20005F914F913F912F910F900BBE0F900FBE91
:100B30000F901F901895209198032033A0F431E076
:100B4000320F30939803FC012083822F90E0FC0148
:100B5000EE0FFF1FE80FF91FE356FC4F88EB9BE0F9
:100B60009283818308952FEFFC0120830895DF9203
:100B7000EF92FF920F931F93CF93DF93EC01D62E4A
:100B80007A0189018881803308F068C061E08D2D89
:100B90000E949A128881A82FB0E0FD01EE0FFF1F7E
:100BA000EA0FFB1FE356FC4F2D2D2F739081907C95
:100BB000922B908360E272E06E197F0977FF02C08A
:100BC0006D5F7F4F7595679575956795698340E66D
:100BD00059E0401B510B57FF02C04D5F5F4F5595C9
:100BE0004795559547954A836CE00E946B1E9CE0A3
:100BF000899FB001112420E030E0A901460F571F62
:100C0000FA01EE0FFF1FE40FF51FE356FC4F908132
:100C100096FD18C02F5F3F4F2C30310571F790E0E3
:100C20008130910521F51092800082E0809381004F
:100C30001092850010928400B19A80916F008260BA
:100C400080936F00888190E0FC01EE0FFF1FE80F9A
:100C5000F91FE356FC4F8081806480838881DF9197
:100C6000CF911F910F91FF90EF90DF900895823008
:100C7000910569F41092900082E0809391001092A7
:100C800095001092940088BB80937100DBCF833075
:100C9000910569F41092A00082E08093A100109267
:100CA000A5001092A40089BB80937200CBCF892B42
:100CB00049F61092200182E08093210110922501D3
:100CC000109224018ABB80937300BCCF20E639E0E8
:100CD00040E252E00C94B705DC0115966C93159731
:100CE00016964C93169770E0FB01E85AFD4FE4917D
:100CF0001796EC931797FB01E256FD4F64911896F7
:100D00006C93189740E85EE360E070E01D964D93A9
:100D10005D936D937C9350970895CF93DF93EC018F
:100D200062E08D810E949A1240E358EF6FEF7FEFEF
:100D300049875A876B877C87DF91CF910895AF925F
:100D4000BF92CF92DF92EF92FF920F931F93CF93B8
:100D5000DF93EC01AF80662311F0BA2C01C0B12CF7
:100D6000A885B0E0AA0FBB1FAC51BD4F40E050E0DA
:100D7000BA01FD0185919491FC0180818A218B113A
:100D800012C08A019B010F5F1F4F2F4F3F4FCD8431
:100D9000DE84EF84F8884C155D056E057F0538F418
:100DA000B901A801E6CF342F252FCB0104C030E0D4
:100DB00020E080E090E0632F722FDF91CF911F91B0
:100DC0000F91FF90EF90DF90CF90BF90AF9008957C
:100DD000CF92DF92EF92FF920F931F93CF93DF9307
:100DE000CDB7DEB7C054D1400FB6F894DEBF0FBE0A
:100DF000CDBF8C01F62E0E947011F11016C0F801C3
:100E0000C184D284E384F4849B01AC012C193D0994
:100E10004E095F0969017A0130EDC31637E0D30648
:100E2000E104F10410F48189BAC0F8016187728786
:100E3000838794871482138212821182108261E068
:100E400085810E94D3126AEF70E080E090E00E94FA
:100E50009F1161E0F80185810E949A1260E0F8011B
:100E600085810E94D31264E170E080E090E00E94EE
:100E70009F11F89461E0F80185810E94D31288E205
:100E800090E00E94D91162E0F80185810E949A12D7
:100E90008AE090E00E94D91160E0C8010E949F069C
:100EA000672B682B692B41F061E0C8010E949F0607
:100EB000672B682B692B21F4F801118A78946EC096
:100EC0006E01FFEBCF1AFEEFDF0A9E012F5F3F4F4F
:100ED000790160E0C8010E949F06F7016083718379
:100EE0008283938361E0C8010E949F06F7016483B7
:100EF000758386839783F8E0EF0EF11CEC14FD04F4
:100F000041F778949E012F5F3F4F790120E030E058
:100F1000F701408151816281738184819581A6812D
:100F2000B7814115510561057105B1F10097A10522
:100F3000B10591F1F901F595E795F595E795F595E9
:100F4000E795E00FF11FD080DD0C481759076A07BD
:100F50007B0710F0D08203C08D2D816080832F5FCE
:100F60003F4FF8E0EF0EF11C2832310589F6F80109
:100F7000248130E04081818190E0840F911D428185
:100F8000840F911D4381840F911D992728173907DC
:100F900019F481E0818B03C0F801118A80E0C05C04
:100FA000DE4F0FB6F894DEBF0FBECDBFDF91CF91FD
:100FB0001F910F91FF90EF90DF90CF900895CF9207
:100FC000DF92EF92FF920F931F93CF93DF93EC0189
:100FD000162F642F0E94E806882309F443C08E81EF
:100FE0008B3031F008F43EC08551823040F03AC079
:100FF0006A8170E080E090E00E941E1C24C00A819B
:10100000602F6F7770E080E090E00E94201C20E06D
:1010100030E040E853E40E94AE1D6B017C016B811F
:1010200070E080E090E00E94201C9B01AC01C701B1
:10103000B6010E94EC1A2DEC3CEC4CEC5DE30E94F6
:10104000AE1D07FD9058112389F026E636E646EEE0
:101050005FE30E94AE1D20E030E040E052E40E94D9
:10106000EC1A04C060E070E080EC9FE7DF91CF9164
:101070001F910F91FF90EF90DF90CF900895CF9246
:10108000DF92EF92FF92CF93DF93EC0160E00E943A
:10109000E806882379F18E818B3029F158F185514A
:1010A000823040F5688170E080E090E00E941E1C74
:1010B00020E030E040E853E40E94AE1D6B017C016B
:1010C000698170E080E090E00E94201C9B01AC01EF
:1010D000C701B6010E94EC1A2DEC3CEC4CEC5DE330
:1010E0000E94AE1D0BC0688170E080E090E00E941D
:1010F0001E1C04C060E070E080EC9FE7DF91CF91A0
:10110000FF90EF90DF90CF9008954F925F926F9293
:101110007F928F929F92AF92BF92CF92DF92EF9287
:10112000FF920F931F93CF93DF93CDB7DEB728972E
:101130000FB6F894DEBF0FBECDBF8C01CB01BA0154
:1011400023E333E948E853E40E94EC1A6B017C0185
:1011500020E030E040E450E40E94111E4B015C01AD
:1011600020E030E040E850E4C701B6010E94111EC3
:101170006D837E838F839887C701B6010E943B1DD4
:1011800069837A838B839C83A7019601F801608130
:101190007181828193810E94541BF80124813581E1
:1011A000468157810E94EC1A2B013C01F8012085F1
:1011B000318542855385C701B6010E94AE1D9B0152
:1011C000AC01C301B2010E94EC1A2B013C01A70142
:1011D0009601C701B6010E94AE1DF8012485358530
:1011E000468557850E94AE1D9B01AC01C301B2012B
:1011F0000E94EC1A6B017C01F80120893189428937
:101200005389C501B4010E94AE1D9B01AC01C70109
:10121000B6010E94EC1A6B017C01F8012489358922
:10122000468957896D817E818F8198850E94AE1D88
:101230009B01AC01C701B6010E94EC1A6B017C0155
:10124000F801208D318D428D538D69817A818B819A
:101250009C810E94AE1D9B01AC01C701B6010E949A
:10126000EC1A28960FB6F894DEBF0FBECDBFDF9103
:10127000CF911F910F91FF90EF90DF90CF90BF9093
:10128000AF909F908F907F906F905F904F900C9455
:10129000C11B8F929F92AF92BF92CF92DF92EF923B
:1012A000FF920F931F93CF93DF93EC014A015B01F1
:1012B000C901B80120E030E048EC52E40E94541B20
:1012C0006B017C018B019C01B501A401CE010E9440
:1012D0008508A70196010E94AE1DDF91CF911F9155
:1012E0000F91FF90EF90DF90CF90BF90AF909F90C5
:1012F0008F9008950F931F930E9449099B01AC01A1
:1013000060E876EE85EC97E40E94EB1A9B01AC0155
:1013100064E97AE286E797E40E94541B1F910F91DB
:1013200008958F929F92AF92BF92CF92DF92EF92E9
:10133000FF920F931F934A015B010E947A096B0190
:101340007C0120EE3DE240E95BE30E94F51C87FD55
:1013500037C026EA3BE944E45CE3C701B6010E94DA
:10136000501B18166CF12DEA39E64EE55EE3C70115
:10137000B6010E94EB1A23EE35EA4BE15CEB0E94CA
:10138000541B9B01AC01C501B4010E94F51C87FDF3
:1013900017C025E438ED40EF5DE3C701B6010E94B8
:1013A000EB1A27E230EA49E85BEB0E94541B9B01F1
:1013B000AC0111E0C501B4010E94501B18160CF4D9
:1013C00010E0812F1F910F91FF90EF90DF90CF9051
:1013D000BF90AF909F908F9008950F931F930E949E
:1013E00091091F910F910895CF92DF92EF92FF9292
:1013F000CF93DF93EC01C0908203D0908303E09001
:101400008403F090850320E030E048E452E4C70113
:10141000B6010E94501B18161CF06EE372E01CC04F
:1014200020E030E048EC52E4C701B6010E94501BB6
:1014300018161CF060E472E00FC020E030E046E1D6
:1014400053E4C701B6010E94501B18161CF062E459
:1014500072E002C064E472E0CE010E94CC18CE01BA
:10146000DF91CF91FF90EF90DF90CF9008952F9272
:101470003F924F925F926F927F928F929F92AF9224
:10148000BF92CF92DF92EF92FF920F931F93CF9371
:10149000DF93CDB7DEB728970FB6F894DEBF0FBE47
:1014A000CDBF1C0120E030E046E153E460918203AF
:1014B0007091830380918403909185030E94501B57
:1014C00087FF8CC080918E0390918F03A091900331
:1014D000B091910389839A83AB83BC838090860308
:1014E00090908703A0908803B09089038C019D01A0
:1014F000B501A401C1010E9449096D837E838F83D8
:10150000988740909203509093036090940370905A
:101510009503C0908A03D0908B03E0908C03F090E9
:101520008D0393018201B701A601C1010E948508C4
:101530009B01AC016D817E818F8198850E94501B3B
:1015400018160CF44BC009811A812B813C81B5011E
:10155000A401C1010E94ED0981113EC093018201E5
:10156000B701A601C1010E94ED09811137C0A50193
:101570009401C701B6010E94501B87FF11C011E002
:10158000B12C20912A0230912B0240912C025091D3
:101590002D02C701B6010E94501B87FD1AC018C05A
:1015A000A5019401C701B6010E94F51C1816B4F4F8
:1015B00011E0B12C20912E0230912F024091300287
:1015C00050913102C701B6010E94F51C18160CF0AB
:1015D00010E0812F9B2D04C081E001C080E090E0ED
:1015E00028960FB6F894DEBF0FBECDBFDF91CF9126
:1015F0001F910F91FF90EF90DF90CF90BF90AF9031
:101600009F908F907F906F905F904F903F902F9022
:10161000089561E08CE20E94D31281E090E0089589
:1016200060E08CE20E94D31281E090E0089561E0D6
:101630008AE20E94D31261E08BE20E94D31280E022
:1016400090E008950E94170B63E070E080E090E066
:101650000E949F1160E08AE20E94D31261E08BE257
:101660000E94D31281E090E008950E94170B63E07E
:1016700070E080E090E00E949F1161E08AE20E94A9
:10168000D31260E08BE20E94D3128FEF9FEF089598
:10169000DC01ED91FC910280F381E02D199481E051
:1016A00090E008958F929F92AF92BF92CF92DF9277
:1016B000EF92FF920F931F93CF93DF93CDB7DEB7D7
:1016C00065970FB6F894DEBF0FBECDBF8FEF8B8B43
:1016D0008C8B8D8BC0908203D0908303E090840329
:1016E000F090850363E572E0CE0107960E94CC1866
:1016F000BE01695F7F4FCE0101960E942F1966E4FB
:1017000072E0CE0101960E94441AB701A6010E9420
:101710006C1A62E572E00E94441ABC0183ED94E009
:101720000E94A817CE0101960E945E18CE0107966E
:101730000E945E1843E050E0BE016D5E7F4F83ED76
:1017400094E00E94480B609186037091870380911A
:101750008803909189030E94ED1B6B017C0163E576
:1017600072E0CE0107960E94CC18BE01695F7F4FE0
:10177000CE0101960E942F1964E572E0CE01019618
:101780000E94441AB6010E945E1A62E572E00E944D
:10179000441ABC0183ED94E00E94A817CE01019683
:1017A0000E945E18CE0107960E945E1843E050E04A
:1017B000BE016D5E7F4F83ED94E00E94480B609107
:1017C0008E0370918F0380919003909191030E94FA
:1017D000ED1B6B017C0163E572E0CE0107960E9470
:1017E000CC18BE01695F7F4FCE0101960E942F1970
:1017F00062E672E0CE0101960E94441AB6010E9490
:101800005E1A62E572E00E94441ABC0183ED94E026
:101810000E94A817CE0101960E945E18CE0107967D
:101820000E945E1843E050E0BE016D5E7F4F83ED85
:1018300094E00E94480B60918A0370918B03809121
:101840008C0390918D030E94ED1B6B017C0163E57D
:1018500072E0CE0107960E94CC18BE01695F7F4FEF
:10186000CE0101960E942F1960E772E0CE01019629
:101870000E94441AB6010E945E1A62E572E00E945C
:10188000441ABC0183ED94E00E94A817CE01019692
:101890000E945E18CE0107960E945E1843E050E059
:1018A000BE016D5E7F4F83ED94E00E94480B609116
:1018B00092037091930380919403909195030E94F9
:1018C000ED1B6B017C0163E572E0CE0107960E947F
:1018D000CC18BE01695F7F4FCE0101960E942F197F
:1018E0006EE772E0CE0101960E94441AB6010E9492
:1018F0005E1A62E572E00E94441ABC0183ED94E036
:101900000E94A817CE0101960E945E18CE0107968C
:101910000E945E1843E050E0BE016D5E7F4F83ED94
:1019200094E00E94480B00918E0310918F03209148
:101930009003309191034091860350918703609109
:101940008803709189038AE092E00E947A096B0112
:101950007C010091920310919303209194033091A4
:10196000950340918A0350918B0360918C03709191
:101970008D038AE092E00E947A094B015C0163E5E5
:1019800072E0CE0107960E94CC18BE01695F7F4FBE
:10199000CE0101960E942F196CE872E0CE010196EB
:1019A0000E94441AB501A4010E947A1A6AE972E001
:1019B0000E94441AB701A6010E947A1A62E572E0F9
:1019C0000E94441ABC0183ED94E00E94A817CE0146
:1019D00001960E945E18CE0107960E945E1843E0B1
:1019E00050E0BE016D5E7F4F83ED94E00E94480B96
:1019F00000919203109193032091940330919503E9
:101A000040918A0350918B0360918C0370918D03F8
:101A10008AE092E00E9485086B017C0163E572E038
:101A2000CE0107960E94CC18BE01695F7F4FCE01A0
:101A300001960E942F196CE972E0CE0101960E9476
:101A4000441A8C0120E030E04AE754E4C701B601B3
:101A50000E94541BAB01BC01C8010E946C1A6AEAC7
:101A600072E00E94441A62E572E00E94441ABC01CE
:101A700083ED94E00E94A817CE0101960E945E18A3
:101A8000CE0107960E945E1843E050E0BE016D5EF5
:101A90007F4F83ED94E00E94480B00918E031091DC
:101AA0008F032091900330919103409186035091D0
:101AB000870360918803709189038AE092E00E9415
:101AC00049096B017C0163E572E0CE0107960E9433
:101AD000CC18BE01695F7F4FCE0101960E942F197D
:101AE0006EEA72E0CE0101960E94441A5C0120E089
:101AF00030E04AE754E4C701B6010E94541BAB0131
:101B0000BC01C5010E946C1A6AEA72E00E94441A84
:101B100062E572E00E94441ABC0183ED94E00E94E9
:101B2000A817CE0101960E945E18CE0107960E946A
:101B30005E1843E050E0BE016D5E7F4F83ED94E0A0
:101B40000E94480B209182033091830340918403CB
:101B5000509185036AE072E0CE0101960E94F4097B
:101B600063E572E0CE010D960E94CC18BE01635F62
:101B70007F4FCE0107960E942F196CEB72E0CE01C9
:101B800007960E94441ABE016F5F7F4F0E94311A70
:101B900062E572E00E94441ABC0183ED94E00E9469
:101BA000A817CE0107960E945E18CE010D960E94DE
:101BB0005E18CE0101960E945E1843E050E0BE011F
:101BC0006D5E7F4F83ED94E00E94480B63E572E009
:101BD000CE0107960E94CC18BE01695F7F4FCE01EF
:101BE00001960E942F196AEC72E0CE0101960E94C4
:101BF000441A68ED72E00E94441A62E572E00E94A5
:101C0000441ABC0183ED94E00E94A817CE0101960E
:101C10000E945E18CE0107960E945E1843E050E0D5
:101C2000BE016D5E7F4F83ED94E00E94480B8AE019
:101C300092E00E94370A892BA9F510923502109282
:101C4000340263E572E0CE0107960E94CC18BE0113
:101C5000695F7F4FCE0101960E942F196AED72E0F5
:101C6000CE0101960E94441A68ED72E00E94441A67
:101C700062E572E00E94441ABC0183ED94E00E9488
:101C8000A817CE0101960E945E18CE0107960E9409
:101C90005E1843E050E0BE016D5E7F4F83ED94E03F
:101CA0000E94480B8AE092E00E94370A8130910539
:101CB000A9F5909335028093340263E572E0CE017A
:101CC00007960E94CC18BE01695F7F4FCE01019636
:101CD0000E942F196AED72E0CE0101960E94441A0B
:101CE00068EE72E00E94441A62E572E00E94441AB3
:101CF000BC0183ED94E00E94A817CE0101960E94DA
:101D00005E18CE0107960E945E1843E050E0BE01C7
:101D10006D5E7F4F83ED94E00E94480B809132020C
:101D200090913302892B89F563E572E0CE01079625
:101D30000E94CC18BE01695F7F4FCE0101960E94C0
:101D40002F196AEE72E0CE0101960E94441A68EDE6
:101D500072E00E94441A62E572E00E94441ABC01DB
:101D600083ED94E00E94A817CE0101960E945E18B0
:101D7000CE0107960E945E1843E050E0BE016D5E02
:101D80007F4F83ED94E00E94480B80913202909146
:101D90003302019789F563E572E0CE0107960E9450
:101DA000CC18BE01695F7F4FCE0101960E942F19AA
:101DB0006AEE72E0CE0101960E94441A68EE72E06B
:101DC0000E94441A62E572E00E94441ABC0183ED4D
:101DD00094E00E94A817CE0101960E945E18CE01E1
:101DE00007960E945E1843E050E0BE016D5E7F4F93
:101DF00083ED94E00E94480B81E090E065960FB679
:101E0000F894DEBF0FBECDBFDF91CF911F910F9130
:101E1000FF90EF90DF90CF90BF90AF909F908F900A
:101E2000089581E090E00895CF93DF93EC0183ED76
:101E300094E00E943213181619060CF0AFC02696D3
:101E400083ED94E00E943D138F3F910569F083ED8F
:101E500094E00E944B13682FCE010E94881988E7F6
:101E600090E00E94D911ECCF83ED94E00E944B13D7
:101E700088E790E00E94D91183ED94E00E944B1313
:101E800088E790E00E94D91183ED94E00E944B1303
:101E900060E070E0CE010E94881AFC0180818330EE
:101EA00071F561E070E0CE010E94881AFC0180812A
:101EB000873029F562E070E0CE010E94881AFC01AB
:101EC00080818137E1F463E070E0CE010E94881ADE
:101ED000FC018081811104C010923D0210923C02ED
:101EE00063E070E0CE010E94881AFC01808181309D
:101EF00031F481E090E090933D0280933C02809128
:101F00003C0290913D02892B09F043C060E070E0F3
:101F1000CE010E94881AFC0180818536D1F561E0EE
:101F200070E0CE010E94881AFC018081833089F51F
:101F300062E070E0CE010E94881AFC018081853049
:101F400041F488E093E00E94220B10923302109239
:101F5000320262E070E0CE010E94881AFC018081AA
:101F6000863051F488E093E00E94350B81E090E0E8
:101F7000909333028093320262E070E0CE010E94BF
:101F8000881AFC018081883021F488E093E00E9467
:101F9000170B63E572E0CE010E94441981E090E0E6
:101FA000DF91CF9108958F929F92AF92BF92CF927F
:101FB000DF92EF92FF920F931F93CF93DF93CDB7F2
:101FC000DEB72C970FB6F894DEBF0FBECDBF6C0105
:101FD00063E572E0CE0107960E94CC1880E795E099
:101FE0000E943213181619060CF0B0C08601045F67
:101FF0001F4F80E795E00E943D130D9779F080E731
:1020000095E00E944B13682FC8010E94881966E072
:1020100070E080E090E00E949F11EBCF80E795E0B8
:102020000E944B1366E070E080E090E00E949F11F8
:1020300080E795E00E944B1366E070E080E090E05E
:102040000E949F11812C912CE12CF12CA12CB12C00
:10205000F601808991898816990690F4B401C80127
:102060000E94881AFC0180818C3231F4A114B104E1
:1020700011F4540101C07401FFEF8F1A9F0AE8CFD9
:10208000950140E050E0B801CE0101960E949A1AF5
:10209000BE016F5F7F4FCE0107960E943819CE01B7
:1020A00001960E945E18CE0107960E94DF1A609387
:1020B0008203709383038093840390938503A50127
:1020C0004F5F5F4F9701B801CE0101960E949A1AA7
:1020D000BE016F5F7F4FCE0107960E943819CE0177
:1020E00001960E945E18CE0107960E94DF1A609347
:1020F0008603709387038093880390938903F60186
:1021000020893189A7014F5F5F4FB801CE01019649
:102110000E949A1ABE016F5F7F4FCE0107960E9400
:102120003819CE0101960E945E18CE0107960E94D2
:10213000DF1A60938E0370938F03809390039093C4
:10214000910363E572E0C8010E944419CE0107962D
:102150000E945E1881E090E02C960FB6F894DEBFE6
:102160000FBECDBFDF91CF911F910F91FF90EF90E8
:10217000DF90CF90BF90AF909F908F900895CF93B6
:10218000DF93EC018DE096E00E9432136296181600
:1021900019060CF051C08DE096E00E943D138F3F70
:1021A000910579F08DE096E00E944B13682FCE01E7
:1021B0000E94881966E070E080E090E00E949F1124
:1021C000EACF8DE096E00E944B1366E070E080E07D
:1021D00090E00E949F1160E070E0CE010E94881A9A
:1021E000FC018081811104C088E093E00E94170BFC
:1021F00060E070E0CE010E94881AFC01808181308D
:1022000041F488E093E00E94220B10923302109276
:10221000320260E070E0CE010E94881AFC018081E9
:10222000823051F488E093E00E94350B81E090E029
:10223000909333028093320263E572E0CE010E94F4
:10224000441981E090E0DF91CF9108951F920F92A1
:102250000FB60F9211242F933F938F939F93AF93B9
:10226000BF9380912E0490912F04A0913004B091DF
:10227000310430912D0423E0230F2D3720F40196F3
:10228000A11DB11D05C026E8230F0296A11DB11D99
:1022900020932D0480932E0490932F04A093300458
:1022A000B09331048091320490913304A0913404AE
:1022B000B09135040196A11DB11D80933204909315
:1022C0003304A0933404B0933504BF91AF919F9130
:1022D0008F913F912F910F900FBE0F901F901895E7
:1022E0002FB7F89460912E0470912F0480913004E0
:1022F000909131042FBF08953FB7F8948091320434
:1023000090913304A0913404B091350426B5A89B74
:1023100005C02F3F19F00196A11DB11D3FBF6627D3
:10232000782F892F9A2F620F711D811D911D42E018
:10233000660F771F881F991F4A95D1F708958F92CE
:102340009F92AF92BF92CF92DF92EF92FF926B017A
:102350007C010E947C114B015C01C114D104E10499
:10236000F104F1F00E94EA1A0E947C1168197909BF
:102370008A099B09683E73408105910570F321E04D
:10238000C21AD108E108F10888EE880E83E0981E91
:10239000A11CB11CC114D104E104F10429F7DDCF63
:1023A000FF90EF90DF90CF90BF90AF909F908F9075
:1023B00008958230910538F0880F991F880F991F72
:1023C00005970197F1F70895789484B5826084BDEC
:1023D00084B5816084BD85B5826085BD85B5816029
:1023E00085BDEEE6F0E0808181608083E1E8F0E089
:1023F0001082808182608083808181608083E0E8B8
:10240000F0E0808181608083E1EBF0E08081846096
:102410008083E0EBF0E0808181608083E1E9F0E09F
:10242000808182608083808181608083E0E9F0E048
:10243000808181608083E1EAF0E080818260808336
:10244000808181608083E0EAF0E080818160808328
:10245000E1E2F1E08081826080838081816080831D
:10246000E0E2F1E0808181608083EAE7F0E0808152
:1024700084608083808182608083808181608083AA
:102480008081806880831092C100089590E0FC01F3
:102490003197E231F10508F04CC0EE58FF4F0C9433
:1024A000991E809180008F7703C0809180008F7D7E
:1024B00080938000089580918000877FF9CF84B554
:1024C0008F7702C084B58F7D84BD08958091B00060
:1024D0008F7703C08091B0008F7D8093B000089506
:1024E000809190008F7707C0809190008F7D03C00E
:1024F00080919000877F8093900008958091A00044
:102500008F7707C08091A0008F7D03C08091A000CD
:10251000877F8093A0000895809120018F7707C066
:10252000809120018F7D03C080912001877F80935F
:1025300020010895CF93DF9390E0FC01E85AFD4F0E
:102540002491FC01E256FD4F8491882349F190E0EB
:10255000880F991FFC01E85EFC4FA591B491825051
:102560009D4FFC01C591D4919FB7611108C0F894AB
:102570008C91209582238C93888182230AC06230BB
:1025800051F4F8948C91322F309583238C93888169
:10259000822B888304C0F8948C91822B8C939FBFEC
:1025A000DF91CF9108950F931F93CF93DF931F92E5
:1025B000CDB7DEB7282F30E0F901EE5EFD4F8491F4
:1025C000F901E85AFD4F1491F901E256FD4F0491CB
:1025D0000023C9F0882321F069830E944612698193
:1025E000E02FF0E0EE0FFF1FE250FD4FA591B491F8
:1025F0009FB7F8948C91611103C01095812301C09D
:10260000812B8C939FBF0F90DF91CF911F910F91E2
:102610000895CF93DF93282F30E0F901EE5EFD4F50
:102620008491F901E85AFD4FD491F901E256FD4F2A
:10263000C491CC2391F081110E944612EC2FF0E05E
:10264000EE0FFF1FEC51FD4FA591B4912C912D235E
:1026500081E090E021F480E002C080E090E0DF9132
:10266000CF910895FC01818D228D90E0805C9F4F79
:10267000821B91098F7399270895FC01918D828D9A
:10268000981731F0828DE80FF11D858D90E0089547
:102690008FEF9FEF0895FC01918D828D981761F067
:1026A000828DDF01A80FB11D5D968C91928D9F5F89
:1026B0009F73928F90E008958FEF9FEF089586E0CB
:1026C00095E1892B41F080E090E0892B21F00E9478
:1026D0000615811125C083EB95E1892B41F080E03F
:1026E00090E0892B21F00E94B31581111CC080E677
:1026F00096E1892B41F080E090E0892B21F00E9447
:102700006016811113C08DE097E1892BA1F080E064
:1027100090E0892B81F00E940D1781110AC0089565
:102720000E940000D8CF0E940000E1CF0E9400006C
:10273000EACF0C9400000895FC01848DDF01A80FFE
:10274000B11DA35ABF4F2C91848D90E001968F73D9
:102750009927848FA689B7892C93A089B1898C91F8
:1027600080648C93938D848D981306C00288F389BE
:10277000E02D80818F7D80830895CF93DF93EC01DE
:10278000888D8823C9F0EA89FB89808185FD05C091
:10279000A889B9898C9186FD0FC00FB607FCF5CFCB
:1027A000808185FFF2CFA889B9898C9185FFEDCF13
:1027B000CE010E949C13E7CFDF91CF910895CF9275
:1027C000DF92FF920F931F93CF93DF931F92CDB7AA
:1027D000DEB76C0181E0D60158968C9358975B96D2
:1027E0009C915B975C968C915C97981307C0509670
:1027F000ED91FC915197808185FD2EC0F601038DEE
:1028000010E00F5F1F4F0F731127F02EF601848D1C
:10281000F81211C00FB607FCF9CFD6015096ED9112
:10282000FC915197808185FFF1CFC60169830E9499
:102830009C136981EBCF838DE80FF11DE35AFF4FA5
:102840006083D6015B960C935B975296ED91FC9159
:102850005397808180620CC0D6015696ED91FC9111
:10286000579760835096ED91FC91519780818064D9
:10287000808381E090E00F90DF91CF911F910F91C5
:10288000FF90DF90CF900895BF92CF92DF92EF92AA
:10289000FF92CF93DF93EC016A017B01B22EE889AE
:1028A000F98982E08083411581EE58076105710541
:1028B000A1F060E079E08DE390E0A70196010E942D
:1028C000771E215031094109510956954795379591
:1028D0002795211580E1380798F0E889F989108259
:1028E00060E874E88EE190E0A70196010E94771EEF
:1028F000215031094109510956954795379527953A
:10290000EC85FD853083EE85FF852083188EEC896C
:10291000FD89B082EA89FB89808180618083EA89B0
:10292000FB89808188608083EA89FB898081806857
:102930008083EA89FB8980818F7D8083DF91CF91BD
:10294000FF90EF90DF90CF90BF9008951F920F926D
:102950000FB60F9211240BB60F922F938F939F9364
:10296000EF93FF93E0914604F09147048081E0915A
:102970004C04F0914D0482FD12C0908180914F046F
:102980008F5F8F7320915004821751F0E0914F04B4
:10299000F0E0EA5CFB4F958F80934F0401C080818B
:1029A000FF91EF919F918F912F910F900BBE0F9000
:1029B0000FBE0F901F9018951F920F920FB60F9297
:1029C00011240BB60F922F933F934F935F936F9306
:1029D0007F938F939F93AF93BF93EF93FF9386E380
:1029E00094E00E949C13FF91EF91BF91AF919F9152
:1029F0008F917F916F915F914F913F912F910F90A8
:102A00000BBE0F900FBE0F901F90189586E394E0B9
:102A10000E94321321E0892B09F420E0822F0895CF
:102A2000109239041092380488EE93E0A0E0B0E0F0
:102A300080933A0490933B04A0933C04B0933D04EC
:102A40008CEF92E0909337048093360485EC90E00D
:102A5000909343048093420484EC90E09093450467
:102A60008093440480EC90E0909347048093460464
:102A700081EC90E0909349048093480482EC90E0CC
:102A800090934B0480934A0486EC90E090934D041D
:102A900080934C0410924F041092500410925104F1
:102AA0001092520408951F920F920FB60F921124A4
:102AB0000BB60F922F938F939F93EF93FF93E09119
:102AC000E304F091E4048081E091E904F091EA04E8
:102AD00082FD12C090818091EC048F5F8F732091F2
:102AE000ED04821751F0E091EC04F0E0ED52FB4F61
:102AF000958F8093EC0401C08081FF91EF919F91AD
:102B00008F912F910F900BBE0F900FBE0F901F90C3
:102B100018951F920F920FB60F9211240BB60F92B9
:102B20002F933F934F935F936F937F938F939F93D5
:102B3000AF93BF93EF93FF9383ED94E00E949C13B8
:102B4000FF91EF91BF91AF919F918F917F916F9185
:102B50005F914F913F912F910F900BBE0F900FBE41
:102B60000F901F90189583ED94E00E94321321E09E
:102B7000892B09F420E0822F08951092D604109238
:102B8000D50488EE93E0A0E0B0E08093D704909362
:102B9000D804A093D904B093DA048CEF92E0909318
:102BA000D4048093D3048DEC90E09093E004809360
:102BB000DF048CEC90E09093E2048093E10488ECD5
:102BC00090E09093E4048093E30489EC90E0909388
:102BD000E6048093E5048AEC90E09093E804809307
:102BE000E7048EEC90E09093EA048093E90410925D
:102BF000EC041092ED041092EE041092EF0408958C
:102C00001F920F920FB60F9211240BB60F922F93B3
:102C10008F939F93EF93FF93E0918005F09181054F
:102C20008081E0918605F091870582FD12C0908138
:102C3000809189058F5F8F7320918A05821751F0EB
:102C4000E0918905F0E0E059FA4F958F809389056E
:102C500001C08081FF91EF919F918F912F910F90F3
:102C60000BBE0F900FBE0F901F9018951F920F92E2
:102C70000FB60F9211240BB60F922F933F934F93E1
:102C80005F936F937F938F939F93AF93BF93EF93D4
:102C9000FF9380E795E00E949C13FF91EF91BF9115
:102CA000AF919F918F917F916F915F914F913F91E4
:102CB0002F910F900BBE0F900FBE0F901F90189585
:102CC00080E795E00E94321321E0892B09F420E08F
:102CD000822F0895109273051092720588EE93E08A
:102CE000A0E0B0E08093740590937505A0937605FD
:102CF000B09377058CEF92E0909371058093700507
:102D000085ED90E090937D0580937C0584ED90E0C7
:102D100090937F0580937E0580ED90E090938105F0
:102D20008093800581ED90E09093830580938205E8
:102D300082ED90E0909385058093840586ED90E088
:102D400090938705809386051092890510928A05D5
:102D500010928B0510928C0508951F920F920FB65A
:102D60000F9211240BB60F922F938F939F93EF9393
:102D7000FF93E0911D06F0911E068081E0912306ED
:102D8000F091240682FD12C09081809126068F5F0B
:102D90008F7320912706821751F0E0912606F0E00C
:102DA000E35FF94F958F8093260601C08081FF91E4
:102DB000EF919F918F912F910F900BBE0F900FBEAF
:102DC0000F901F9018951F920F920FB60F9211241B
:102DD0000BB60F922F933F934F935F936F937F9315
:102DE0008F939F93AF93BF93EF93FF938DE096E004
:102DF0000E949C13FF91EF91BF91AF919F918F9192
:102E00007F916F915F914F913F912F910F900BBEEA
:102E10000F900FBE0F901F9018958DE096E00E94C6
:102E2000321321E0892B09F420E0822F08951092BB
:102E3000100610920F0688EE93E0A0E0B0E08093B9
:102E4000110690931206A0931306B09314068CEF0C
:102E500092E090930E0680930D0685E391E09093A7
:102E60001A068093190684E391E090931C068093E0
:102E70001B0680E391E090931E0680931D0681E37C
:102E800091E09093200680931F0682E391E0909357
:102E900022068093210686E391E090932406809396
:102EA00023061092260610922706109228061092EA
:102EB0002906089508950E94E4110E945A170E945D
:102EC0008802CFE5D3E10E94B4032097E1F30E948A
:102ED0005F13F9CFCF92DF92EF92FF920F931F9380
:102EE000CF93DF937C016A01EB0100E010E00C1549
:102EF0001D0571F06991D701ED91FC910190F08170
:102F0000E02DC7011995892B19F00F5F1F4FEFCFE7
:102F1000C801DF91CF911F910F91FF90EF90DF904B
:102F2000CF9008956115710581F0DB010D900020AF
:102F3000E9F7AD0141505109461B570BDC01ED91FA
:102F4000FC910280F381E02D199480E090E00895D7
:102F5000DC01ED91FC91DB0114964D915C9115978C
:102F60006D917C910280F381E02D1994DC01ED914B
:102F7000FC910190F081E02D19948F929F92AF9275
:102F8000BF92DF92EF92FF920F931F93CF93DF9345
:102F9000CDB7DEB7A1970FB6F894DEBF0FBECDBF99
:102FA0007C01F42FD52ECB0119A2223008F42AE09F
:102FB0008E010F5D1F4F822E912CA12CB12C6F2FF3
:102FC0007D2DA50194010E94771EF22FD32ECA01F8
:102FD000015011096A3014F4E0E301C0E7E3E60FA1
:102FE000D801EC93232B242B252B49F7B801C701DB
:102FF0000E949217A1960FB6F894DEBF0FBECDBF08
:10300000DF91CF911F910F91FF90EF90DF90BF90D4
:10301000AF909F908F900895CF92DF92EF92FF92A2
:103020000F931F93CF93DF93EC016A017B0121156E
:10303000310579F4E881F9810190F081E02D642F68
:10304000DF91CF911F910F91FF90EF90DF90CF9084
:1030500019942A303105E9F477FF1AC06DE20E9415
:10306000B6178C0144275527BA014C195D096E0922
:103070007F092AE0CE010E94BD17800F911FDF91CA
:10308000CF911F910F91FF90EF90DF90CF90089517
:103090002AE0B701A601CE01DF91CF911F910F91D8
:1030A000FF90EF90DF90CF900C94BD179A01AB0189
:1030B000662757FD6095762F0C940C18FC018081D3
:1030C00091810C94761FCF93DF93EC0188819981D5
:1030D000009711F00E94761F198218821D821C82AF
:1030E0001B821A82DF91CF9108950F931F93CF9384
:1030F000DF93EC018B016F5F7F4F888199810E9484
:103100000520009731F0998388831B830A8381E02F
:1031100001C080E0DF91CF911F910F910895CF936F
:10312000DF93EC0188819981892B29F08A819B8129
:103130008617970760F4CE010E947518882341F026
:103140008C819D81892B19F4E881F981108281E0BD
:10315000DF91CF910895EF92FF920F931F93CF933A
:10316000DF93EC017B018A01BA010E948F18811163
:1031700004C0CE010E94631807C01D830C83B701F1
:10318000888199810E940321CE01DF91CF911F9107
:103190000F91FF90EF900895FC011182108213822D
:1031A0001282158214826115710559F0FB0101909C
:1031B0000020E9F7AF0141505109461B570B0C9411
:1031C000AB1808950F931F93CF93DF938C01EB01FE
:1031D000FC0180819181009799F0428153812C817B
:1031E0003D814217530750F0688179810E94032185
:1031F0008C819D81F8019583848313C00E94761F82
:1032000088819981F801918380838A819B8193834E
:1032100082838C819D8195838483198218821B828D
:103220001A821D821C82DF91CF911F910F91089508
:10323000CF93DF93EC01FB018617970761F0608164
:1032400071816115710529F0448155810E94AB1887
:1032500002C00E946318CE01DF91CF910895FC0156
:103260001182108213821282158214820C94181912
:10327000CF93DF93EC018617970711F00E94E218B5
:10328000CE01DF91CF910895CF93DF93EC016115CB
:10329000710561F0FB0101900020E9F7AF01415099
:1032A0005109461B570B0E94AB1802C00E946318BD
:1032B000CE01DF91CF910895EF92FF920F931F936C
:1032C000CF93DF93EC017B010C811D8161157105AA
:1032D00011F480E016C04115510591F0040F151F3F
:1032E000B8010E948F188823A1F3288139818C812D
:1032F0009D81B701820F931F0E9403211D830C83C0
:1033000081E0DF91CF911F910F91FF90EF90089591
:10331000CF93DF931F921F92CDB7DEB769831A82D6
:1033200041E050E0BE016F5F7F4F0E945C190F903B
:103330000F90DF91CF910895EF92FF920F931F931B
:10334000CF93DF93CDB7DEB728970FB6F894DEBFE3
:103350000FBECDBF7C01CB014AE08E010F5F1F4F36
:10336000B8010E940A21F80101900020E9F7AF019D
:1033700041505109401B510BB801C7010E945C1913
:1033800028960FB6F894DEBF0FBECDBFDF91CF9168
:103390001F910F91FF90EF900895EF92FF920F937E
:1033A0001F93CF93DF93CDB7DEB764970FB6F89432
:1033B000DEBF0FBECDBF7C01CB01BA018E010F5F16
:1033C0001F4F22E044E00E94BD1EFC01019000203E
:1033D000E9F7AF0141505109481B590BBC01C70126
:1033E0000E945C1964960FB6F894DEBF0FBECDBF85
:1033F000DF91CF911F910F91FF90EF900895EF9281
:10340000FF920F931F93CF93DF93CDB7DEB76497EF
:103410000FB6F894DEBF0FBECDBF7C01CB01BA0161
:103420008E010F5F1F4F22E044E00E94BD1EFC0191
:1034300001900020E9F7AF0141505109481B590B99
:10344000BC01C7010E945C1964960FB6F894DEBFF8
:103450000FBECDBFDF91CF911F910F91FF90EF90E5
:103460000895CF93DF93EC01FB0144815581608186
:1034700071810E945C19811103C0CE010E94631802
:10348000CE01DF91CF910895CF93DF93EC016115C9
:10349000710569F0FB0101900020E9F7AF0141508F
:1034A0005109461B570B0E945C19811103C0CE01C4
:1034B0000E946318CE01DF91CF910895CF93DF93DF
:1034C000EC010E949C19811103C0CE010E94631877
:1034D000CE01DF91CF910895CF93DF93EC010E944D
:1034E000CD19811103C0CE010E946318CE01DF9176
:1034F000CF910895CF93DF93EC010E94FF198111C2
:1035000003C0CE010E946318CE01DF91CF910895D0
:10351000FC01848195816817790720F4808191816D
:10352000009729F41092AA068AEA96E00895860F79
:10353000971F0895BF92CF92DF92EF92FF920F9361
:103540001F93CF93DF936C017B01EA01890124175C
:10355000350720F48D2FE901042F182F63E572E061
:10356000C6010E94CC18D70114968D919C91159795
:10357000C817D907C8F48017910708F48C01D70140
:10358000ED91FC911197E00FF11FB08010826D91C9
:103590007C916C0F7D1FC6010E944419D701ED91EB
:1035A000FC91E00FF11FB082C601DF91CF911F9116
:1035B0000F91FF90EF90DF90CF90BF900895FC01A6
:1035C00080819181009711F00C94EE2060E070E012
:1035D000CB01089508955058BB27AA270ED0CBC120
:1035E000BCD130F0C1D120F031F49F3F11F41EF472
:1035F0008CC10EF4E095E7FB82C1E92FCDD180F3B9
:10360000BA17620773078407950718F071F49EF5DF
:10361000E5C10EF4E0950B2EBA2FA02D0B01B901D8
:1036200090010C01CA01A0011124FF27591B99F038
:10363000593F50F4503E68F11A16F040A22F232F44
:10364000342F4427585FF3CF469537952795A79594
:10365000F0405395C9F77EF41F16BA0B620B730B3B
:10366000840BBAF09150A1F0FF0FBB1F661F771FAC
:10367000881FC2F70EC0BA0F621F731F841F48F461
:10368000879577956795B795F7959E3F08F0B3CFE7
:103690009395880F08F09927EE0F979587950895D1
:1036A0000AD108F481E008950CD065C15DD140F0E5
:1036B00054D130F021F45F3F19F021C151118FC175
:1036C00024C16AD198F39923C9F35523B1F3951B0B
:1036D000550BBB27AA2762177307840738F09F5F33
:1036E0005F4F220F331F441FAA1FA9F333D00E2EA2
:1036F0003AF0E0E830D091505040E695001CCAF70F
:1037000029D0FE2F27D0660F771F881FBB1F2617D3
:1037100037074807AB07B0E809F0BB0B802DBF01A6
:10372000FF2793585F4F2AF09E3F510568F0E7C08E
:1037300056C15F3FECF3983EDCF38695779567952D
:10374000B795F7959F5FC9F7880F911D9695879557
:1037500097F90895E1E0660F771F881FBB1F621776
:1037600073078407BA0720F0621B730B840BBA0B34
:10377000EE1F88F7E095089519F40EF0C0C02EC131
:10378000C4C012D1C8F39638C0F707F80F92E89476
:103790002BE33AEA48EB5FE7EFD10F920F920F92DB
:1037A0004DB75EB70F92A7D1E8E0F1E0B1D04F91ED
:1037B0005F91EF91FF91E595EE1FFF1F49F0FE57D6
:1037C000E0684427EE0F441FFA95E1F74195550B49
:1037D00019D10F9007FE0DC1089504D06894B1115E
:1037E000FEC00895E1D088F09F5790F0B92F992737
:1037F000B751A0F0D1F0660F771F881F991F1AF0FC
:10380000BA95C9F712C0B13081F0E8D0B1E008959F
:10381000E5C0672F782F8827B85F39F0B93FCCF320
:10382000869577956795B395D9F73EF490958095F1
:10383000709561957F4F8F4F9F4F0895E89409C011
:1038400097FB3EF490958095709561957F4F8F4FD3
:103850009F4F9923A9F0F92F96E9BB279395F695E9
:10386000879577956795B795F111F8CFFAF4BB0F67
:1038700011F460FF1BC06F5F7F4F8F4F9F4F16C0CB
:10388000882311F096E911C0772321F09EE8872F55
:10389000762F05C0662371F096E8862F70E060E011
:1038A0002AF09A95660F771F881FDAF7880F96958A
:1038B000879597F90895990F0008550FAA0BE0E82E
:1038C000FEEF16161706E807F907C0F012161306E2
:1038D000E407F50798F0621B730B840B950B39F422
:1038E0000A2661F0232B242B252B21F408950A2688
:1038F00009F4A140A6958FEF811D811D089597F9C8
:103900009F6780E870E060E008959FEF80EC089585
:10391000DF93CF931F930F93FF92EF92DF927B0180
:103920008C01689405C0DA2EEF0124D1FE01E894E1
:10393000A5912591359145915591AEF3EF015DDE4D
:10394000FE019701A801DA9479F7DF90EF90FF90DC
:103950000F911F91CF91DF91089500240A941616BC
:10396000170618060906089500240A94121613066D
:10397000140605060895092E0394000C11F48823FB
:1039800052F0BB0F40F4BF2B11F460FF04C06F5F17
:103990007F4F8F4F9F4F089557FD9058440F551FED
:1039A00059F05F3F71F04795880F97FB991F61F0C1
:1039B0009F3F79F087950895121613061406551F38
:1039C000F2CF4695F1DF08C0161617061806991FA4
:1039D000F1CF86957105610508940895E894BB2799
:1039E00066277727CB0197F9089565DF08F48FEFF5
:1039F00008959B01AC0160E070E080E89FE354CE45
:103A00007ECF5BC1D1DFE8F39923D9F3940F511D29
:103A1000BBF39150504094F059F0882332F0660F78
:103A2000771F881F91505040C1F79E3F510544F7C2
:103A3000880F911D9695879597F908955F3FACF093
:103A4000983E9CF0BB27869577956795B79508F4C7
:103A5000B1609395C1F7BB0F58F711F460FFE8CF41
:103A60006F5F7F4F8F4F9F4FE3CFB9CF0EF025C1D0
:103A70004CCF689444CF98DFC8F39923D1F3C6F3B1
:103A8000DF93CF931F930F93FF92C92FDD278823D6
:103A90002AF02197660F771F881FDAF720E030E0C1
:103AA00040E85FEB9FE3883920F0803E30F02196BC
:103AB0008F7792DDE0E3F1E003C08EDDEDE5F1E02C
:103AC00027DF8B01BE01EC01FB2E6F577109759545
:103AD000771F880B990BB4DE28E132E741E35FE3FF
:103AE00049D0AF2D9801AE01FF900F911F91CF915A
:103AF000DF9183DD40CFFA01DC01AA0FBB1F9B01E0
:103B0000AC01BF5728F422273327442750781FC021
:103B1000B75188F4AB2F0024469537952795011CA3
:103B2000A395D2F3002069F0220F331F441FB395F1
:103B3000DAF30DD050CD61307105A0E88A07B9469F
:103B400030F49B01AC016627772788279078309660
:103B500021F0208331834283538308950BD00BCF10
:103B6000FCDE28F001DF18F0952309F0C8CECDCE99
:103B7000112435CF11DFA0F3959FD1F3950F50E0BD
:103B8000551F629FF001729FBB27F00DB11D639F0F
:103B9000AA27F00DB11DAA1F649F6627B00DA11DB5
:103BA000661F829F2227B00DA11D621F739FB00D5B
:103BB000A11D621F839FA00D611D221F749F3327CB
:103BC000A00D611D231F849F600D211D822F762F64
:103BD0006A2F11249F5750408AF0E1F088234AF061
:103BE000EE0FFF1FBB1F661F771F881F91505040AD
:103BF000A9F79E3F510570F082CEF1CE5F3FECF306
:103C0000983EDCF3869577956795B795F795E79598
:103C10009F5FC1F7FE2B880F911D9695879597F9A9
:103C20000895FA01EE0FFF1F30962105310599F135
:103C30006115710561F48038BFE39B0749F1689411
:103C40009038810561F08038BFEF9B0741F09923E0
:103C500042F5FF3FE1053105210511F1E894089493
:103C6000E795D901AA2329F4AB2FBE2FF85FD0F333
:103C700010C0FF5F70F4A695E0F7F73950F019F027
:103C8000FF3A38F49F779F930CD00F9007FC905821
:103C900008953EF03ACE60E070E080E89FE308953A
:103CA0004FE79F775F934F933F932F93E4DE2F91DE
:103CB0003F914F915F9152DF64CD9F3F31F0915022
:103CC00020F4879577956795B795880F911D969500
:103CD000879597F90895991B79E004C0991F961765
:103CE00008F0961B881F7A95C9F780950895A1E280
:103CF0001A2EAA1BBB1BFD010DC0AA1FBB1FEE1F66
:103D0000FF1FA217B307E407F50720F0A21BB30BB0
:103D1000E40BF50B661F771F881F991F1A9469F72C
:103D200060957095809590959B01AC01BD01CF0188
:103D30000895EE0FFF1F0590F491E02D19940E9455
:103D4000AE1EA59F900DB49F900DA49F800D911D58
:103D5000112408950790F691E02D1994A29FB001C7
:103D6000B39FC001A39F700D811D1124911DB29FAF
:103D7000700D811D1124911D0895EF920F931F93D3
:103D8000CF93DF93E80147FF02C034E101C034E084
:103D9000E42FFF27E7FDF095F7FF03C0F195E195CC
:103DA000F109E32E022F2E2FAE010E942F21CE010A
:103DB000DF91CF911F910F91EF900895CF93DF93F3
:103DC0008230910510F482E090E0E091AD06F09130
:103DD000AE0620E030E0A0E0B0E0309739F140815D
:103DE000518148175907B8F04817590771F4828173
:103DF0009381109729F013969C938E9312972CC061
:103E00009093AE068093AD0627C02115310531F0A1
:103E10004217530718F0A901DB0101C0EF019A0115
:103E2000BD01DF010280F381E02DD7CF21153105DF
:103E3000F9F0281B390B2430310580F48A819B81ED
:103E40006115710521F0FB019383828304C0909377
:103E5000AE068093AD06FE01329644C0FE01E20F2D
:103E6000F31F8193919322503109398328833AC0FB
:103E70002091AB063091AC06232B41F42091020235
:103E8000309103023093AC062093AB0620910002E0
:103E9000309101022115310541F42DB73EB7409113
:103EA000040250910502241B350BE091AB06F09102
:103EB000AC06E217F307A0F42E1B3F0B28173907B7
:103EC00078F0AC014E5F5F4F2417350748F04E0F76
:103ED0005F1F5093AC064093AB068193919302C051
:103EE000E0E0F0E0CF01DF91CF910895CF93DF9331
:103EF000009709F487C0FC01329713821282C091A7
:103F0000AD06D091AE06209781F420813181280F33
:103F1000391F8091AB069091AC068217930779F513
:103F2000F093AC06E093AB066DC0DE0120E030E01C
:103F3000AE17BF0750F412964D915C9113979D01F7
:103F40004115510509F1DA01F3CFB383A283408112
:103F50005181840F951F8A179B0771F48D919C9155
:103F60001197840F951F02969183808312968D91ED
:103F70009C911397938382832115310529F4F09343
:103F8000AE06E093AD063EC0D9011396FC93EE93C6
:103F900012974D915D91A40FB51FEA17FB0779F4B5
:103FA00080819181840F951F0296D90111969C936F
:103FB0008E938281938113969C938E931297E0E067
:103FC000F0E08A819B81009719F0FE01EC01F9CFA6
:103FD000CE01029628813981820F931F2091AB0672
:103FE0003091AC062817390769F4309729F41092FC
:103FF000AE061092AD0602C013821282D093AC06B8
:10400000C093AB06DF91CF9108956F927F928F920C
:104010009F92AF92BF92CF92DF92EF92FF920F9357
:104020001F93CF93DF93EC01CB01209781F4DF91B5
:10403000CF911F910F91FF90EF90DF90CF90BF90A5
:10404000AF909F908F907F906F900C94DE1EFE013A
:10405000E60FF71F9E0122503109E217F30708F41B
:10406000ACC0D9010D911C91119706171707B8F034
:104070000530110508F49FC0A801445051094617A6
:10408000570708F498C002501109061B170B01933B
:1040900011936D937C93CF010E94761F8CC05B01BE
:1040A000A01AB10A4E01800E911EA091AD06B091EA
:1040B000AE06612C712C60E070E0109709F449C0E5
:1040C000A815B905C9F5ED90FC901197670142E07C
:1040D000C40ED11CCA14DB0478F147018A189B086E
:1040E000640142E0C40ED11C1296BC901297139644
:1040F000AC91B5E0CB16D10440F0B282A38391829B
:104100008082D9018D939C9309C00E5F1F4F0E0DC5
:104110001F1DF90111830083EB2DFA2F6115710525
:1041200031F0DB011396FC93EE93129744C0F093A9
:10413000AE06E093AD063FC06D917C911197661677
:10414000770608F43B01BD0112960D90BC91A02D9D
:10415000B4CF6091AB067091AC0668157905E9F4AF
:1041600068167906D0F44091000250910102411581
:10417000510541F44DB75EB760910402709105029C
:10418000461B570BE417F507C0F4F093AC06E09319
:10419000AB06F901918380830EC00E94DE1E7C0174
:1041A000009759F0A801BE010E94FA20CE010E949A
:1041B000761FC70104C0CE0102C080E090E0DF910D
:1041C000CF911F910F91FF90EF90DF90CF90BF9014
:1041D000AF909F908F907F906F900895662777277C
:1041E0000C94AD22911102C4803219F0895085508F
:1041F000D0F70895FB01DC0102C001900D924150FF
:104200005040D8F70895FB01DC0101900D92002089
:10421000E1F70895BB274A3031F4992322F4BDE237
:10422000909581959F4F0C941621BB27FB01552734
:10423000AA27880F991FAA1FA41710F0A41B839503
:104240005051B9F7A05DAA3308F0A95DA19300977A
:1042500079F7B111B1931192CB010C9411256F92A2
:104260007F929F92AF92BF92CF92DF92EF92FF9296
:104270000F931F93CF93DF93CDB7DEB729970FB678
:10428000F894DEBF0FBECDBF6A01B22E102F0C33E3
:1042900020F4FF24F394F00E02C04CE3F42E0F2D13
:1042A00027E0AE014F5F5F4F0E941E247981272FC8
:1042B0002970213031F0E1FC06C0E0FC06C060E06E
:1042C00005C06DE203C06BE201C060E2AE2DA071DB
:1042D00073FF36C0662311F084E001C083E08B15C4
:1042E00010F4B81A01C0B12CA1110BC0F6018B2D2E
:1042F00090E2882319F091938150FBCFCB0CD11C15
:10430000B12C662331F0F601608396012F5F3F4F99
:104310006901C6010396E2FE05C02EE4F601208382
:1043200031E404C02EE6F601208331E63183228396
:10433000FC012B2D30E22223F1F131932150FBCFF0
:1043400072FF40C0662311F084E001C083E08B154A
:1043500010F4B81A01C0B12CA1110BC0F6018B2DBD
:1043600090E2882319F091938150FBCFCB0CD11CA4
:10437000B12C662331F0F601608396012F5F3F4F29
:104380006901C6010396E2FE07C029E4F601208315
:104390002EE4218326E406C029E6F60120832EE6DA
:1043A000218326E62283FC012B2D30E2222319F003
:1043B00031932150FBCFFC01EB0DF11D10828EEFEC
:1043C0009FEFB7C0B1E0611101C0B0E04B2F50E0EA
:1043D0001816190624F49C012F5F3F4F02C021E0FC
:1043E00030E0240F351F112329F0412F50E04F5F9B
:1043F0005F4F02C040E050E0420F531F2B2D30E0D2
:104400004217530714F4B41A01C0B12C2E2D287191
:1044100059F4F6012B2D30E2222319F0319321506B
:10442000FBCFCB0CD11CB12CBB2331F0F601608348
:1044300096012F5F3F4F6901A1110BC0F6012B2D93
:1044400030E3222319F031932150FBCFCB0CD11C48
:10445000B12CF80E0A81372F3071A32E74FF03C0E0
:10446000013309F4FA941F142CF42F2D293018F07D
:1044700028E001C021E0682F392F97FF02C060E0DB
:1044800030E0462F532F612C712C3EE2932EBC015D
:10449000621B71099B01DC01A41BB50BE1E0F0E09C
:1044A000EC0FFD1FAE0FBF1FE12EF12CF194E19434
:1044B000F1084F3FFFEF5F0731F4F6019082B6013C
:1044C0006F5F7F4F6B01841795074CF024173507FA
:1044D00034F4BD01660D771DFB01118101C010E3AD
:1044E00041505109FFEF6F1A7F0AB6016F5F7F4F8E
:1044F0004E155F0524F0F60110836B01DACF4817E3
:10450000590739F4063320F4053319F4A11001C01A
:1045100011E3F6011083FB018B2D90E2882319F043
:1045200091938150FBCFFB01EB0DF11D108280E0D8
:1045300090E029960FB6F894DEBF0FBECDBFDF9195
:10454000CF911F910F91FF90EF90DF90CF90BF9090
:10455000AF909F907F906F9008958F929F92AF92AF
:10456000BF92CF92DF92EF92FF920F931F93CF9360
:10457000DF938B016115710521F0DB018C9311969E
:104580009C93EC015E01BFEFAB1ABB0A7501C880BA
:104590008C2D90E00E94F220892B11F0E501F2CFE2
:1045A000EDE2CE1208C07E01F2E0EF0EF11CC980F0
:1045B000DD24D39409C02BE2C21205C07E0142E083
:1045C000E40EF11CC980D12CE701219743E050E0B3
:1045D0006AE373E0CE010E94F924892BC1F423968B
:1045E00045E050E065E373E0CE010E94F924892B99
:1045F00009F425960115110519F0D801CD93DC9326
:10460000D11006C160E070E080E89FE70AC143E096
:1046100050E062E373E0CE010E94F924892B59F443
:104620000115110509F4F9C0B2E0EB0EF11CF80117
:10463000F182E082F2C0F70160E070E0CB01C0E0FF
:10464000D0E07F01A0EDAA2EAC0C29E02A1530F1B4
:104650004D2D4260B42E2D2D2870D2FE04C02111A4
:1046600025C0219623C021112197A5E0B0E09B0130
:10467000AC010E949F1E660F771F881F991F6A0D4D
:10468000711D811D911D6839A9E97A078A07A9E181
:104690009A0760F0BD2DB660BB2E08C02EEFA212A7
:1046A0000AC0D3FC50C04D2D4860B42E3196D701BE
:1046B000CC90DB2CC6CF2C2D2F7D253409F043C0A8
:1046C000A081AD3241F4BD2DB061DB2E7F0122E02F
:1046D000E20EF11C0CC07F01AB3231F04FEFE41A57
:1046E000F40A21E030E006C0A2E0EA0EF11CA1814C
:1046F00022E030E0A053AA3018F0E21AF30A23C0F7
:10470000F70120E030E02038BCE03B075CF4A90171
:10471000440F551F440F551F240F351F220F331F01
:104720002A0F311DAF014F5F5F4F7A01A081A05367
:10473000AA3010F4FA01E7CFD4FE03C031952195D9
:104740003109C20FD31FD1FE09C00115110531F087
:10475000E1E0EE1AF108D801ED92FC920E941E1CD5
:104760002D2D2370233019F04B015C0106C04B0145
:104770005C01B7FAB094B7F8B09420E030E0A9013A
:10478000C501B4010E94501B882309F43EC0D7FF25
:1047900006C0D195C195D10901E513E002C009E633
:1047A00013E06801B8E1CB1AD10890E2E92EF12CB0
:1047B000CE15DF0574F0F80125913591459154919E
:1047C000C501B4010E94AE1D4B015C01CE19DF0989
:1047D000EFCF04501109F594E7940C151D0541F72E
:1047E0008A2D880F8B2D881F8F3F49F020E030E005
:1047F000A901C501B4010E94501B811106C082E2CB
:1048000090E09093B0068093AF06C501B40109C053
:1048100060E070E080E89FEF04C060E070E080EC52
:104820009FE7DF91CF911F910F91FF90EF90DF9065
:10483000CF90BF90AF909F908F900895283008F050
:1048400027E03327DA01990F311D87FD916000962B
:104850006105710539F432602E5F3D9330E32A958E
:10486000E1F708959F3F30F080387105610509F048
:104870003C5F3C5F3D93913008F08068911DDF9371
:10488000CF931F930F93FF92EF92192F987F9695D6
:10489000E92F96959695E90FFF27E953FC4F992745
:1048A0003327EE24FF24A701E7010590089407941D
:1048B00028F4360FE71EF81E491F511D660F771F9B
:1048C000881F991F0694A1F70590079428F4E70E16
:1048D000F81E491F561FC11D770F881F991F661F9D
:1048E0000694A1F70590079428F4F80E491F561F67
:1048F000C71FD11D880F991F661F771F0694A1F748
:104900000590079420F4490F561FC71FD81F990F11
:10491000661F771F881F0694A9F78491109517705A
:1049200041F0D695C79557954795F794E7941A9512
:10493000C1F7EDE6F3E06894159015913591659116
:10494000959105907FE27395E118F10A430B560BA0
:10495000C90BD009C0F7E10CF11E431F561FC91F38
:10496000D01D7EF4703311F48A95E6CFE89401509F
:1049700030F0080F0AF40027021708F4202F2395BF
:10498000022F7A3328F079E37D932A95E9F710C056
:104990007D932A9589F6069497956795379517958F
:1049A0001794E118F10A430B560BC90BD00998F084
:1049B00023957E9173957A3308F070E37C932013EE
:1049C000B8F77E9170617D9330F0839571E37D93AC
:1049D00070E32A95E1F71124EF90FF900F911F915A
:1049E000CF91DF91992787FD909508959927882782
:1049F0000895FB01DC014150504088F08D918134D5
:104A00001CF08B350CF4805E659161341CF06B35C5
:104A10000CF4605E861B611171F3990B0895881B7D
:104A2000FCCFDC01FC01672F71917723E1F732970E
:104A300004C07C916D9370836291AE17BF07C8F379
:104A4000089514E0C2E7D4E000E006C0229701090F
:104A5000FE010BBF0E94AA1EC437D10780E00807E1
:064A6000A9F7F894FFCF56
:104A66000000B1068000010000004A54B1C5908FD5
:104A7600CC40D18F1EBC4E022735F6930E31CC7931
:104A860085AB683B8540000016430000C04100002E
:104A9600E0410000000000000000E041000041008D
:104AA600420043004400736A6A6B2E74302E747899
:104AB600743D2200736A6A6B2E74312E7478743DCD
:104AC6002200736A6A6B2E74322E7478743D22004B
:104AD600736A6A6B2E74332E7478743D2200736A7F
:104AE6006A6B2E74342E7478743D220073737A7454
:104AF6002E74302E7478743D22002F0073737A74EE
:104B06002E74312E7478743D22004B5061007373FD
:104B16007A742E74322E7478743D220073737A740C
:104B26002E74332E7478743D220073737A742E7447
:104B3600342E7478743D22004E0073737A742E748A
:104B4600352E7478743D2200590073737A742E746E
:104B5600362E7478743D220000000000DF136A17B9
:084B660032134B133D13BD1384
:00000001FF
