:100000000C943A020C946B020C946B020C946B02ED
:100010000C946B020C946B020C946B020C946B02AC
:100020000C946B020C946B020C946B020C946B029C
:100030000C946B020C946B020C946B020C946B028C
:100040000C946B020C949A040C946B020C946B024B
:100050000C946B020C946B020C946B020C94B51014
:100060000C946B020C9435140C946B140C946B026E
:100070000C946B020C946B020C946B020C946B024C
:100080000C94C8040C946B020C946B020C946B02DD
:100090000C94E2140C9418150C946B020C946B02E3
:1000A0000C946B020C946B020C94F6040C946B028F
:1000B0000C946B020C946B020C946B020C94240550
:1000C0000C946B020C946B020C946B020C948F15C5
:1000D0000C94C5150C946B020C943C160C9472167F
:1000E0000C946B02EE11F111E011E411EA112812E7
:1000F000F511F911FF11031207120D121112151249
:1001000028121B121F12231207634236B79BD8A76F
:100110001A39685618AEBAAB558C1D3CB7CC57632C
:10012000BD6DEDFD753EF6177231BF000000803FDA
:1001300008000000BE922449123EABAAAA2ABECDF6
:10014000CCCC4C3E00000080BEABAAAAAA3E000068
:100150000000BF000000803F000000000008417860
:10016000D3BB4387D1133D190E3CC3BD4282AD2B97
:100170003E68EC8276BED98FE1A93E4C80EFFFBE8F
:1001800001C4FF7F3F00000000000C9495140C9404
:10019000EE110C941B120C94F9160C94FF110C9494
:1001A0001F120C94D7030C94B8030C94EF150C9405
:1001B0004C130C9428120C949F140C9411120C9450
:1001C000F1110C9423120C94C1120C94DA120C94B9
:1001D000F9110C946E130C94E0110C9403120C940E
:1001E0000D120C9442150C94F9150C949C160C9459
:1001F000A6160C9415120C944C150C94EA110C9440
:1002000007120C94CC120C94E4110C94F5110C947C
:10021000EE1200000A0B02090C0D0E080703040180
:1002200000000000000000000000000000000000CE
:10023000000000000000000000000000000012119B
:10024000100000000000000000000000000000009E
:10025000000000000000000001021020200808102B
:100260002040102040800201020108040201010226
:1002700004081020408080402010080402018004FF
:10028000020180402010080402010804020101025A
:100290000408102040800102040810204080050559
:1002A0000505070508080808020202020A0A0808EC
:1002B000040404040101010101010101030303031A
:1002C00003030303040707070C0C0C0C0C0C0C0CA9
:1002D0000202020206060606060606060B0B0B0BBA
:1002E0000B0B0B0B000020002300260029002C0024
:1002F0002F00320000010000030106010901000087
:100300002200250028002B002E00310034000201BD
:100310000000050108010B01000021002400270056
:100320002A002D0030003300010100000401070104
:100330000A014E414E494E495459494E46CDCCCC06
:100340003D0AD7233C17B7D13877CC2B329595E6A9
:10035000241FB14F0A000020410000C84200401C89
:100360004620BCBE4CCA1B0E5AAEC59D7400407AD6
:1003700010F35A00A0724E18090010A5D4E800002E
:10038000E87648170000E40B54020000CA9A3B00CC
:100390000000E1F505000080969800000040420F43
:1003A000000000A08601000000102700000000E807
:1003B00003000000006400000000000A00000000CC
:1003C000000100000000002C76D888DC674F08236D
:1003D000DFC1DFAE59E1B1B796E5E3E453C63AE6D3
:1003E00051997696E8E6C28426EB898C9B62ED40B3
:1003F0007C6FFCEFBC9C9F40F2BAA56FA5F4900502
:100400005A2AF75C936B6CF9676DC11BFCE0E40D35
:1004100047FEF520E6B500D0ED902E030094357729
:10042000050080841E080000204E0A000000C80C51
:10043000333333330F986E12831141EF8D211489BA
:100440003BE65516CFFEE6DB18D1844B381BF77C14
:100450001D901DA4BBE424203284725E228100C959
:10046000F124ECA1E53D2700B8039F144C15F915C4
:10047000A616D70311241FBECFEFD1E2DEBFCDBF3A
:1004800000E00CBF13E0A0E0B2E0E4E8F9E400E033
:100490000BBF02C007900D92A430B107D9F726E038
:1004A000A4E0B3E001C01D92AF3AB207E1F714E057
:1004B000C2E7D4E000E006C022970109FE010BBFAD
:1004C0000E94391EC836D10780E00807A9F70E94AC
:1004D000EA160C94B0240C940000CF93DF93EC0147
:1004E0006FE472E00E945B186FE472E0CE01069642
:1004F0000E945B186FE472E0CE010C960E945B18BC
:100500006FE472E0CE014296DF91CF910C945B18BC
:1005100061E080E20E94291261E081E20E942912DA
:1005200061E082E20E94291261E08AE20E942912BF
:1005300061E08AE20E94621261E08BE20E9429126D
:1005400061E08BE20E94621261E08CE20E9429125B
:1005500062E089E10E94291262E088E10E9429128A
:1005600062E087E10E94291226E040E052EC61E05F
:1005700070E084E394E00E94D31326E040E052EC64
:1005800061E070E081ED94E00E94D31326E040E644
:1005900059E060E070E08EE695E00E94D31326E01B
:1005A00040E052EC61E070E08BE096E00E94D313F3
:1005B0008EE693E00E9444066BE070E08BE693E0E9
:1005C0000E941D066CE070E088E693E00E941D0624
:1005D00087E093E00E94C00A64E670E080E090E06B
:1005E0000E942E1187E093E00E94C70A64E670E043
:1005F00080E090E00E942E1187E093E00E94C00A04
:1006000064E670E080E090E00E942E1187E093E0C5
:100610000C94C70A40E060E08EE693E00E949607E3
:10062000609388037093890380938A0390938B036C
:1006300060E08EE693E00E94F6076093900370936B
:1006400091038093920390939303089580E593E040
:100650000E94060B80E293E00E94810F0E940A0331
:1006600088E393E00E94090B88E393E00E94C20EA6
:1006700088E093E00E94BF0E88E093E00E946D1036
:100680008091320290913302009781F488E10E94B8
:100690009812892BD1F486E093E00E94CE0A81E083
:1006A00090E090933302809332020FC0019769F477
:1006B00089E10E949812892B41F486E093E00E9420
:1006C000CE0A109233021092320220E030E042E073
:1006D00053E4609180037091810380918203909133
:1006E00083030E94841C1816DCF48091040390910B
:1006F0000503892BC9F487E093E00E94C00A68ECE7
:1007000070E080E090E00E942E1187E093E00E946C
:10071000C70A81E090E09093050380930403089555
:1007200010920503109204030895CF93DF93EC0118
:1007300042960E94ED17CE010C960E94ED17CE0155
:1007400006960E94ED17CE01DF91CF910C94ED1724
:1007500088E093E00E94950380E293E00E94950375
:1007600088E393E00E94950380E593E00C94950361
:1007700026E04BE06DE28EE693E00E9423068BE6D6
:1007800093E00E94520588E693E00E94520580E5BE
:1007900093E00E946D0288E393E00E946D0280E284
:1007A00093E00E946D0288E093E00C946D020C943B
:1007B000A803CF92DF92EF92FF920F931F93CF93F4
:1007C000DF936C018B017A01EC01C956DC4F888103
:1007D00087FF04C0FB011182108223C02CE02C9DF6
:1007E000C0012D9D900D11242881AC01420F511D97
:1007F00027FD5A952091960330E0421753078CF459
:100800002881AC01420F511D27FD5A959A01FA012A
:10081000EE0FFF1FE20FF31FE556FC4F208126FD70
:1008200019C088818F5F88838CE08C9D90018D9D9D
:10083000300D11248881A901480F511D87FD5A955B
:100840008091960390E048175907B4F488818C3062
:100850003CF112C02881820F911D27FD9A95FC0161
:10086000EE0FFF1FE80FF91FE556FC4F808160E097
:100870008F730E946212D5CFF80180819181049616
:1008800080349C4918F480E49CE904C0F80180811C
:1008900091810496F701918380838FEF888341C013
:1008A000F801808191814881B901640F711D47FD74
:1008B0007A95AB01FB01EE0FFF1FE40FF51FE55624
:1008C000FC4F41815281840F951FF70191838083F2
:1008D0008881A901480F511D87FD5A95FA01EE0F35
:1008E000FF1FE40FF51FE556FC4F808186FF19C0FE
:1008F0008881280F311D87FD3A95F901EE0FFF1F02
:10090000E20FF31FE556FC4F808161E08F73DF91AA
:10091000CF911F910F91FF90EF90DF90CF900C94AB
:100920006212DF91CF911F910F91FF90EF90DF90B6
:10093000CF9008951F920F920FB60F9211240BB60D
:100940000F922F933F934F935F936F937F938F9368
:100950009F93AF93BF93EF93FF9348E850E064E811
:1009600070E081E090E00E94D903FF91EF91BF9188
:10097000AF919F918F917F916F915F914F913F9137
:100980002F910F900BBE0F900FBE0F901F901895D8
:100990001F920F920FB60F9211240BB60F922F9346
:1009A0003F934F935F936F937F938F939F93AF93F7
:1009B000BF93EF93FF9348E950E064E970E082E071
:1009C00090E00E94D903FF91EF91BF91AF919F9169
:1009D0008F917F916F915F914F913F912F910F90E8
:1009E0000BBE0F900FBE0F901F9018951F920F9285
:1009F0000FB60F9211240BB60F922F933F934F9384
:100A00005F936F937F938F939F93AF93BF93EF9376
:100A1000FF9348EA50E064EA70E083E090E00E94CF
:100A2000D903FF91EF91BF91AF919F918F917F91EA
:100A30006F915F914F913F912F910F900BBE0F904F
:100A40000FBE0F901F9018951F920F920FB60F9226
:100A500011240BB60F922F933F934F935F936F9395
:100A60007F938F939F93AF93BF93EF93FF9348E24E
:100A700051E064E271E080E090E00E94D903FF91D0
:100A8000EF91BF91AF919F918F917F916F915F9106
:100A90004F913F912F910F900BBE0F900FBE0F9073
:100AA0001F901895209196032033A0F431E0320F67
:100AB00030939603FC012083822F90E0FC01EE0F1F
:100AC000FF1FE80FF91FE556FC4F88EB9BE0928370
:100AD000818308952FEFFC0120830895DF92EF9228
:100AE000FF920F931F93CF93DF93EC01D62E7A01E1
:100AF00089018881803308F068C061E08D2D0E94F3
:100B000029128881A82FB0E0FD01EE0FFF1FEA0F28
:100B1000FB1FE556FC4F2D2D2F739081907C922B5F
:100B2000908360E272E06E197F0977FF02C06D5F0B
:100B30007F4F7595679575956795698340E659E090
:100B4000401B510B57FF02C04D5F5F4F55954795B6
:100B5000559547954A836CE00E94FA1D9CE0899F59
:100B6000B001112420E030E0A901460F571FFA011F
:100B7000EE0FFF1FE40FF51FE556FC4F908196FD29
:100B800018C02F5F3F4F2C30310571F790E0813056
:100B9000910521F51092800082E0809381001092EF
:100BA000850010928400B19A80916F0082608093DA
:100BB0006F00888190E0FC01EE0FFF1FE80FF91F26
:100BC000E556FC4F8081806480838881DF91CF91DE
:100BD0001F910F91FF90EF90DF9008958230910563
:100BE00069F41092900082E0809391001092950039
:100BF0001092940088BB80937100DBCF8330910505
:100C000069F41092A00082E08093A1001092A500E8
:100C10001092A40089BB80937200CBCF892B49F638
:100C20001092200182E08093210110922501109200
:100C300024018ABB80937300BCCF20E639E040E2F8
:100C400052E00C946E05DC0115966C931597169680
:100C50004C93169770E0FB01E85AFD4FE49117960C
:100C6000EC931797FB01E256FD4F649118966C9335
:100C7000189740E85EE360E070E01D964D935D9349
:100C80006D937C9350970895CF93DF93EC0162E0CE
:100C90008D810E94291240E358EF6FEF7FEF498763
:100CA0005A876B877C87DF91CF910895AF92BF926F
:100CB000CF92DF92EF92FF920F931F93CF93DF9328
:100CC000EC01AF80662311F0BA2C01C0B12CA885CD
:100CD000B0E0AA0FBB1FAC51BD4F40E050E0BA01DD
:100CE000FD0185919491FC0180818A218B1112C0B4
:100CF0008A019B010F5F1F4F2F4F3F4FCD84DE8432
:100D0000EF84F8884C155D056E057F0538F4B90150
:100D1000A801E6CF342F252FCB0104C030E020E01E
:100D200080E090E0632F722FDF91CF911F910F91A0
:100D3000FF90EF90DF90CF90BF90AF900895CF924B
:100D4000DF92EF92FF920F931F93CF93DF93CDB774
:100D5000DEB7C054D1400FB6F894DEBF0FBECDBF92
:100D60008C01F62E0E94FF10F11016C0F801C1840C
:100D7000D284E384F4849B01AC012C193D094E0913
:100D80005F0969017A0130EDC31637E0D306E1044B
:100D9000F10410F48189BAC0F801618772878387F2
:100DA00094871482138212821182108261E08581FD
:100DB0000E9462126AEF70E080E090E00E942E11C3
:100DC00061E0F80185810E94291260E0F8018581C7
:100DD0000E94621264E170E080E090E00E942E11B7
:100DE000F89461E0F80185810E94621288E290E047
:100DF0000E94681162E0F80185810E9429128AE050
:100E000090E00E94681160E0C8010E945606672BBE
:100E1000682B692B41F061E0C8010E945606672BE0
:100E2000682B692B21F4F801118A78946EC06E0149
:100E3000FFEBCF1AFEEFDF0A9E012F5F3F4F7901D4
:100E400060E0C8010E945606F701608371838283C7
:100E5000938361E0C8010E945606F701648375839D
:100E600086839783F8E0EF0EF11CEC14FD0441F744
:100E700078949E012F5F3F4F790120E030E0F70129
:100E8000408151816281738184819581A681B7817E
:100E90004115510561057105B1F10097A105B10535
:100EA00091F1F901F595E795F595E795F595E795B4
:100EB000E00FF11FD080DD0C481759076A077B0748
:100EC00010F0D08203C08D2D816080832F5F3F4F53
:100ED000F8E0EF0EF11C2832310589F6F801248183
:100EE00030E04081818190E0840F911D4281840F28
:100EF000911D4381840F911D99272817390719F4F3
:100F000081E0818B03C0F801118A80E0C05CDE4F74
:100F10000FB6F894DEBF0FBECDBFDF91CF911F910A
:100F20000F91FF90EF90DF90CF900895CF92DF92D6
:100F3000EF92FF920F931F93CF93DF93EC01162F45
:100F4000642F0E949F06882309F443C08E818B3052
:100F500031F008F43EC08551823040F03AC06A81D9
:100F600070E080E090E00E94AD1B24C00A81602FF9
:100F70006F7770E080E090E00E94AF1B20E030E0EF
:100F800040E853E40E943D1D6B017C016B8170E0E1
:100F900080E090E00E94AF1B9B01AC01C701B6014D
:100FA0000E947B1A2DEC3CEC4CEC5DE30E943D1D55
:100FB00007FD9058112389F026E636E646EE5FE3FA
:100FC0000E943D1D20E030E040E052E40E947B1A88
:100FD00004C060E070E080EC9FE7DF91CF911F914B
:100FE0000F91FF90EF90DF90CF900895CF92DF9216
:100FF000EF92FF92CF93DF93EC0160E00E949F0697
:10100000882379F18E818B3029F158F18551823016
:1010100040F5688170E080E090E00E94AD1B20E028
:1010200030E040E853E40E943D1D6B017C01698182
:1010300070E080E090E00E94AF1B9B01AC01C70113
:10104000B6010E947B1A2DEC3CEC4CEC5DE30E9457
:101050003D1D0BC0688170E080E090E00E94AD1BF8
:1010600004C060E070E080EC9FE7DF91CF91FF90DB
:10107000EF90DF90CF9008954F925F926F927F92A2
:101080008F929F92AF92BF92CF92DF92EF92FF9298
:101090000F931F93CF93DF93CDB7DEB728970FB68B
:1010A000F894DEBF0FBECDBF8C01CB01BA0123E3A4
:1010B00033E948E853E40E947B1A6B017C0120E08D
:1010C00030E040E450E40E94A01D4B015C0120E0B0
:1010D00030E040E850E4C701B6010E94A01D6D83D6
:1010E0007E838F839887C701B6010E94CA1C6983DB
:1010F0007A838B839C83A7019601F80160817181BB
:10110000828193810E94E31AF8012481358146810E
:1011100057810E947B1A2B013C01F8012085318503
:1011200042855385C701B6010E943D1D9B01AC015C
:10113000C301B2010E947B1A2B013C01A701960159
:10114000C701B6010E943D1DF801248535854685FD
:1011500057850E943D1D9B01AC01C301B2010E9455
:101160007B1A6B017C01F8012089318942895389FE
:10117000C501B4010E943D1D9B01AC01C701B60130
:101180000E947B1A6B017C01F8012489358946890C
:1011900057896D817E818F8198850E943D1D9B01BD
:1011A000AC01C701B6010E947B1A6B017C01F801FA
:1011B000208D318D428D538D69817A818B819C8107
:1011C0000E943D1D9B01AC01C701B6010E947B1A24
:1011D00028960FB6F894DEBF0FBECDBFDF91CF913A
:1011E0001F910F91FF90EF90DF90CF90BF90AF9045
:1011F0009F908F907F906F905F904F900C94501BBA
:101200008F929F92AF92BF92CF92DF92EF92FF9216
:101210000F931F93CF93DF93EC014A015B01C90148
:10122000B80120E030E048EC52E40E94E31A6B0180
:101230007C018B019C01B501A401CE010E943C08F8
:10124000A70196010E943D1DDF91CF911F910F9143
:10125000FF90EF90DF90CF90BF90AF909F908F90D6
:1012600008950F931F930E9400099B01AC0160E851
:1012700076EE85EC97E40E947A1A9B01AC0164E952
:101280007AE286E797E40E94E31A1F910F9108958E
:101290008F929F92AF92BF92CF92DF92EF92FF9286
:1012A0000F931F934A015B010E9431096B017C017E
:1012B00020EE3DE240E95BE30E94841C87FD37C0DD
:1012C00026EA3BE944E45CE3C701B6010E94DF1A69
:1012D00018166CF12DEA39E64EE55EE3C701B6015A
:1012E0000E947A1A23EE35EA4BE15CEB0E94E31A86
:1012F0009B01AC01C501B4010E94841C87FD17C08D
:1013000025E438ED40EF5DE3C701B6010E947A1A8B
:1013100027E230EA49E85BEB0E94E31A9B01AC014B
:1013200011E0C501B4010E94DF1A18160CF410E098
:10133000812F1F910F91FF90EF90DF90CF90BF9082
:10134000AF909F908F9008950F931F930E9448092C
:101350001F910F910895CF92DF92EF92FF92CF935A
:10136000DF93EC01C0908003D0908103E090820372
:10137000F090830320E030E048E452E4C701B60176
:101380000E94DF1A18161CF06AE372E01CC020E00D
:1013900030E048EC52E4C701B6010E94DF1A18168B
:1013A0001CF06CE372E00FC020E030E046E153E453
:1013B000C701B6010E94DF1A18161CF06EE372E036
:1013C00002C060E472E0CE010E945B18CE01DF91A2
:1013D000CF91FF90EF90DF90CF9008952F923F92A2
:1013E0004F925F926F927F928F929F92AF92BF9235
:1013F000CF92DF92EF92FF920F931F93CF93DF93E1
:10140000CDB7DEB728970FB6F894DEBF0FBECDBFBD
:101410001C0120E030E046E953E4609180037091C4
:10142000810380918203909183030E94DF1A87FFDA
:101430008CC080918C0390918D03A0918E03B0910C
:101440008F0389839A83AB83BC83809084039090BD
:101450008503A0908603B09087038C019D01B501A0
:10146000A401C1010E9400096D837E838F83988748
:10147000409090035090910360909203709093037A
:10148000C0908803D0908903E0908A03F0908B038A
:1014900093018201B701A601C1010E943C089B0192
:1014A000AC016D817E818F8198850E94DF1A1816AC
:1014B0000CF44BC009811A812B813C81B501A40138
:1014C000C1010E94A40981113EC093018201B701AC
:1014D000A601C1010E94A409811137C0A501940190
:1014E000C701B6010E94DF1A87FF11C011E0B12CBD
:1014F00020912A0230912B0240912C0250912D0212
:10150000C701B6010E94DF1A87FD1AC018C0A501E5
:101510009401C701B6010E94841C1816B4F411E0AE
:10152000B12C20912E0230912F0240913002509127
:101530003102C701B6010E94841C18160CF010E09D
:10154000812F9B2D04C081E001C080E090E02896AF
:101550000FB6F894DEBF0FBECDBFDF91CF911F91C4
:101560000F91FF90EF90DF90CF90BF90AF909F9042
:101570008F907F906F905F904F903F902F90089545
:1015800061E08CE20E94621281E090E0089560E0E8
:101590008CE20E94621281E090E0089561E08AE2AC
:1015A0000E94621261E08BE20E94621280E090E091
:1015B00008950E94CE0A6EE170E080E090E00E9403
:1015C0002E1160E08AE20E94621261E08BE20E94CA
:1015D000621281E090E008950E94CE0A6EE170E010
:1015E00080E090E00E942E1161E08AE20E94621287
:1015F00060E08BE20E9462128FEF9FEF0895DC01A2
:10160000ED91FC910280F381E02D199481E090E04E
:1016100008958F929F92AF92BF92CF92DF92EF92F6
:10162000FF920F931F93CF93DF93CDB7DEB76597EC
:101630000FB6F894DEBF0FBECDBF8FEF8B8B8C8BB8
:101640008D8BC0908003D0908103E0908203F09056
:1016500083036FE472E0CE0107960E945B18BE011F
:10166000695F7F4FCE0101960E94BE1862E472E06E
:10167000CE0101960E94D319B701A6010E94FB1961
:101680006EE472E00E94D319BC0181ED94E00E94E7
:101690003717CE0101960E94ED17CE0107960E94E2
:1016A000ED1743E050E0BE016D5E7F4F81ED94E0A9
:1016B0000E94FF0A609184037091850380918603E4
:1016C000909187030E947C1B6B017C016FE472E0A8
:1016D000CE0107960E945B18BE01695F7F4FCE0165
:1016E00001960E94BE1860E572E0CE0101960E944C
:1016F000D319B6010E94ED196EE472E00E94D3196D
:10170000BC0181ED94E00E943717CE0101960E9442
:10171000ED17CE0107960E94ED1743E050E0BE01A1
:101720006D5E7F4F81ED94E00E94FF0A60918C0313
:1017300070918D0380918E0390918F030E947C1B8A
:101740006B017C016FE472E0CE0107960E945B188A
:10175000BE01695F7F4FCE0101960E94BE186EE503
:1017600072E0CE0101960E94D319B6010E94ED19D4
:101770006EE472E00E94D319BC0181ED94E00E94F6
:101780003717CE0101960E94ED17CE0107960E94F1
:10179000ED1743E050E0BE016D5E7F4F81ED94E0B8
:1017A0000E94FF0A609188037091890380918A03E7
:1017B00090918B030E947C1B6B017C016FE472E0B3
:1017C000CE0107960E945B18BE01695F7F4FCE0174
:1017D00001960E94BE186CE672E0CE0101960E944E
:1017E000D319B6010E94ED196EE472E00E94D3197C
:1017F000BC0181ED94E00E943717CE0101960E9452
:10180000ED17CE0107960E94ED1743E050E0BE01B0
:101810006D5E7F4F81ED94E00E94FF0A609190031E
:101820007091910380919203909193030E947C1B8D
:101830006B017C016FE472E0CE0107960E945B1899
:10184000BE01695F7F4FCE0101960E94BE186AE714
:1018500072E0CE0101960E94D319B6010E94ED19E3
:101860006EE472E00E94D319BC0181ED94E00E9405
:101870003717CE0101960E94ED17CE0107960E9400
:10188000ED1743E050E0BE016D5E7F4F81ED94E0C7
:101890000E94FF0A00918C0310918D0320918E030A
:1018A00030918F03409184035091850360918603AA
:1018B000709187038AE092E00E9431096B017C01FC
:1018C0000091900310919103209192033091930322
:1018D000409188035091890360918A0370918B0332
:1018E0008AE092E00E9431094B015C016FE472E0F2
:1018F000CE0107960E945B18BE01695F7F4FCE0143
:1019000001960E94BE1868E872E0CE0101960E941E
:10191000D319B501A4010E94091A66E972E00E9478
:10192000D319B701A6010E94091A6EE472E00E9461
:10193000D319BC0181ED94E00E943717CE010196C6
:101940000E94ED17CE0107960E94ED1743E050E08C
:10195000BE016D5E7F4F81ED94E00E94FF0A009111
:101960009003109191032091920330919303409141
:1019700088035091890360918A0370918B038AE0F8
:1019800092E00E943C086B017C016FE472E0CE01A2
:1019900007960E945B18BE01695F7F4FCE010196DA
:1019A0000E94BE1868E972E0CE0101960E94D31928
:1019B0008C0120E030E04AE754E4C701B6010E9400
:1019C000E31AAB01BC01C8010E94FB1966EA72E090
:1019D0000E94D3196EE472E00E94D319BC0181ED1C
:1019E00094E00E943717CE0101960E94ED17CE01B8
:1019F00007960E94ED1743E050E0BE016D5E7F4FF9
:101A000081ED94E00E94FF0A00918C0310918D03F8
:101A100020918E0330918F03409184035091850370
:101A200060918603709187038AE092E00E9400092A
:101A30006B017C016FE472E0CE0107960E945B1897
:101A4000BE01695F7F4FCE0101960E94BE186AEA0F
:101A500072E0CE0101960E94D3195C0120E030E0D3
:101A60004AE754E4C701B6010E94E31AAB01BC0186
:101A7000C5010E94FB1966EA72E00E94D3196EE468
:101A800072E00E94D319BC0181ED94E00E943717E7
:101A9000CE0101960E94ED17CE0107960E94ED1728
:101AA00043E050E0BE016D5E7F4F81ED94E00E9407
:101AB000FF0A20918003309181034091820350916D
:101AC00083036AE072E0CE0101960E94AB096FE4E5
:101AD00072E0CE010D960E945B18BE01635F7F4FDE
:101AE000CE0107960E94BE1868EB72E0CE01079601
:101AF0000E94D319BE016F5F7F4F0E94C0196EE430
:101B000072E00E94D319BC0181ED94E00E94371766
:101B1000CE0107960E94ED17CE010D960E94ED179B
:101B2000CE0101960E94ED1743E050E0BE016D5ECC
:101B30007F4F81ED94E00E94FF0A6FE472E0CE01D6
:101B400007960E945B18BE01695F7F4FCE01019628
:101B50000E94BE1866EC72E0CE0101960E94D31975
:101B600064ED72E00E94D3196EE472E00E94D31912
:101B7000BC0181ED94E00E943717CE0101960E94CE
:101B8000ED17CE0107960E94ED1743E050E0BE012D
:101B90006D5E7F4F81ED94E00E94FF0A8AE092E043
:101BA0000E94EE09892B89F56FE472E0CE01079659
:101BB0000E945B18BE01695F7F4FCE0101960E94B3
:101BC000BE1866ED72E0CE0101960E94D31964ED55
:101BD00072E00E94D3196EE472E00E94D319BC0136
:101BE00081ED94E00E943717CE0101960E94ED1717
:101BF000CE0107960E94ED1743E050E0BE016D5EF6
:101C00007F4F81ED94E00E94FF0A8AE092E00E94FB
:101C1000EE09019789F56FE472E0CE0107960E9404
:101C20005B18BE01695F7F4FCE0101960E94BE180E
:101C300066ED72E0CE0101960E94D31964EE72E067
:101C40000E94D3196EE472E00E94D319BC0181EDA9
:101C500094E00E943717CE0101960E94ED17CE0145
:101C600007960E94ED1743E050E0BE016D5E7F4F86
:101C700081ED94E00E94FF0A80913202909133023C
:101C8000892B89F56FE472E0CE0107960E945B18FC
:101C9000BE01695F7F4FCE0101960E94BE1866EEBD
:101CA00072E0CE0101960E94D31964ED72E00E94A9
:101CB000D3196EE472E00E94D319BC0181ED94E067
:101CC0000E943717CE0101960E94ED17CE010796AC
:101CD0000E94ED1743E050E0BE016D5E7F4F81ED45
:101CE00094E00E94FF0A80913202909133020197A2
:101CF00089F56FE472E0CE0107960E945B18BE0181
:101D0000695F7F4FCE0101960E94BE1866EE72E0B9
:101D1000CE0101960E94D31964EE72E00E94D3199D
:101D20006EE472E00E94D319BC0181ED94E00E9440
:101D30003717CE0101960E94ED17CE0107960E943B
:101D4000ED1743E050E0BE016D5E7F4F81ED94E002
:101D50000E94FF0A81E090E065960FB6F894DEBF1E
:101D60000FBECDBFDF91CF911F910F91FF90EF90EC
:101D7000DF90CF90BF90AF909F908F90089581E0BB
:101D800090E00895CF93DF93EC0181ED94E00E9401
:101D9000C112181619060CF0AFC0269681ED94E01A
:101DA0000E94CC128F3F910569F081ED94E00E9472
:101DB000DA12682FCE010E94171988E790E00E947E
:101DC0006811ECCF81ED94E00E94DA1288E790E090
:101DD0000E94681181ED94E00E94DA1288E790E099
:101DE0000E94681181ED94E00E94DA1260E070E0D8
:101DF000CE010E94171AFC018081833071F561E0E9
:101E000070E0CE010E94171AFC018081873029F50D
:101E100062E070E0CE010E94171AFC0180818137D8
:101E2000E1F463E070E0CE010E94171AFC018081AA
:101E3000811104C0109239021092380263E070E000
:101E4000CE010E94171AFC018081813031F481E0BB
:101E500090E09093390280933802809138029091FB
:101E60003902892B09F043C060E070E0CE010E9486
:101E7000171AFC0180818536D1F561E070E0CE0152
:101E80000E94171AFC018081833089F562E070E0BE
:101E9000CE010E94171AFC018081853041F486E052
:101EA00093E00E94D90A109233021092320262E04B
:101EB00070E0CE010E94171AFC018081863051F437
:101EC00086E093E00E94EC0A81E090E09093330278
:101ED0008093320262E070E0CE010E94171AFC018A
:101EE0008081883021F486E093E00E94CE0A6FE47E
:101EF00072E0CE010E94D31881E090E0DF91CF9193
:101F000008958F929F92AF92BF92CF92DF92EF92FD
:101F1000FF920F931F93CF93DF93CDB7DEB72C972C
:101F20000FB6F894DEBF0FBECDBF6C016FE472E058
:101F3000CE0107960E945B188EE695E00E94C112C2
:101F4000181619060CF0B0C08601045F1F4F8EE60C
:101F500095E00E94CC120D9779F08EE695E00E94F4
:101F6000DA12682FC8010E94171966E070E080E05D
:101F700090E00E942E11EBCF8EE695E00E94DA12DF
:101F800066E070E080E090E00E942E118EE695E021
:101F90000E94DA1266E070E080E090E00E942E116C
:101FA000812C912CE12CF12CA12CB12CF6018089F3
:101FB00091898816990690F4B401C8010E94171AF5
:101FC000FC0180818C3231F4A114B10411F454016C
:101FD00001C07401FFEF8F1A9F0AE8CF950140E01E
:101FE00050E0B801CE0101960E94291ABE016F5F30
:101FF0007F4FCE0107960E94C718CE0101960E941E
:10200000ED17CE0107960E946E1A609380037093BD
:1020100081038093820390938303A5014F5F5F4FF9
:102020009701B801CE0101960E94291ABE016F5F87
:102030007F4FCE0107960E94C718CE0101960E94DD
:10204000ED17CE0107960E946E1A60938403709379
:1020500085038093860390938703F6012089318955
:10206000A7014F5F5F4FB801CE0101960E94291A68
:10207000BE016F5F7F4FCE0107960E94C718CE0149
:1020800001960E94ED17CE0107960E946E1A60938A
:102090008C0370938D0380938E0390938F036FE472
:1020A00072E0C8010E94D318CE0107960E94ED1776
:1020B00081E090E02C960FB6F894DEBF0FBECDBF46
:1020C000DF91CF911F910F91FF90EF90DF90CF9014
:1020D000BF90AF909F908F900895CF93DF93EC01C6
:1020E0008BE096E00E94C1126296181619069CF5C4
:1020F0008BE096E00E94CC128F3F910579F08BE047
:1021000096E00E94DA12682FCE010E94171966E04D
:1021100070E080E090E00E942E11EACF8BE096E024
:102120000E94DA1266E070E080E090E00E942E11DA
:10213000BE0184E394E00E943717609138027091E9
:1021400039024AE050E084E394E00E94E5171092DF
:102150003902109238026FE472E0CE010E94D31867
:1021600081E090E0DF91CF9108951F920F920FB61A
:102170000F9211242F933F938F939F93AF93BF930D
:1021800080912C0490912D04A0912E04B0912F04E5
:1021900030912B0423E0230F2D3720F40196A11D4D
:1021A000B11D05C026E8230F0296A11DB11D209385
:1021B0002B0480932C0490932D04A0932E04B093B1
:1021C0002F048091300490913104A0913204B09199
:1021D00033040196A11DB11D809330049093310406
:1021E000A0933204B0933304BF91AF919F918F912C
:1021F0003F912F910F900FBE0F901F9018952FB702
:10220000F89460912C0470912D0480912E0490918B
:102210002F042FBF08953FB7F89480913004909118
:102220003104A0913204B091330426B5A89B05C0B7
:102230002F3F19F00196A11DB11D3FBF6627782FD2
:10224000892F9A2F620F711D811D911D42E0660F2B
:10225000771F881F991F4A95D1F708958F929F92F3
:10226000AF92BF92CF92DF92EF92FF926B017C010F
:102270000E940B114B015C01C114D104E104F10473
:10228000F1F00E94791A0E940B11681979098A09E4
:102290009B09683E73408105910570F321E0C21AE5
:1022A000D108E108F10888EE880E83E0981EA11C91
:1022B000B11CC114D104E104F10429F7DDCFFF9072
:1022C000EF90DF90CF90BF90AF909F908F90089548
:1022D0008230910538F0880F991F880F991F059754
:1022E0000197F1F70895789484B5826084BD84B530
:1022F000816084BD85B5826085BD85B5816085BD01
:10230000EEE6F0E0808181608083E1E8F0E0108219
:10231000808182608083808181608083E0E8F0E05A
:10232000808181608083E1EBF0E080818460808344
:10233000E0EBF0E0808181608083E1E9F0E0808182
:1023400082608083808181608083E0E9F0E0808129
:1023500081608083E1EAF0E0808182608083808117
:1023600081608083E0EAF0E0808181608083E1E247
:10237000F1E0808182608083808181608083E0E2FF
:10238000F1E0808181608083EAE7F0E08081846011
:10239000808380818260808380818160808380816E
:1023A000806880831092C100089590E0FC0131970D
:1023B000E231F10508F04CC0EE58FF4F0C94281E96
:1023C000809180008F7703C0809180008F7D809303
:1023D0008000089580918000877FF9CF84B58F7742
:1023E00002C084B58F7D84BD08958091B0008F7741
:1023F00003C08091B0008F7D8093B00008958091DC
:1024000090008F7707C0809190008F7D03C08091EE
:102410009000877F8093900008958091A0008F772F
:1024200007C08091A0008F7D03C08091A000877FAE
:102430008093A0000895809120018F7707C080913C
:1024400020018F7D03C080912001877F8093200130
:102450000895CF93DF9390E0FC01E85AFD4F24915B
:10246000FC01E256FD4F8491882349F190E0880FEA
:10247000991FFC01E85EFC4FA591B49182509D4FDD
:10248000FC01C591D4919FB7611108C0F8948C915B
:10249000209582238C93888182230AC0623051F474
:1024A000F8948C91322F309583238C938881822BE2
:1024B000888304C0F8948C91822B8C939FBFDF910A
:1024C000CF9108950F931F93CF93DF931F92CDB7B2
:1024D000DEB7282F30E0F901EE5EFD4F8491F9015F
:1024E000E85AFD4F1491F901E256FD4F0491002383
:1024F000C9F0882321F069830E94D5116981E02FFA
:10250000F0E0EE0FFF1FE250FD4FA591B4919FB791
:10251000F8948C91611103C01095812301C0812B27
:102520008C939FBF0F90DF91CF911F910F910895D2
:10253000CF93DF93282F30E0F901EE5EFD4F8491B9
:10254000F901E85AFD4FD491F901E256FD4FC491CB
:10255000CC2391F081110E94D511EC2FF0E0EE0F09
:10256000FF1FEC51FD4FA591B4912C912D2381E0DB
:1025700090E021F480E002C080E090E0DF91CF9114
:102580000895FC01818D228D90E0805C9F4F821B1D
:1025900091098F7399270895FC01918D828D981769
:1025A00031F0828DE80FF11D858D90E008958FEF59
:1025B0009FEF0895FC01918D828D981761F0828DB7
:1025C000DF01A80FB11D5D968C91928D9F5F9F7367
:1025D000928F90E008958FEF9FEF089585E994E141
:1025E000892B41F080E090E0892B21F00E94951426
:1025F000811125C082E495E1892B41F080E090E0D3
:10260000892B21F00E94421581111CC08FEE95E1AB
:10261000892B41F080E090E0892B21F00E94EF159A
:10262000811113C08CE996E1892BA1F080E090E044
:10263000892B81F00E949C1681110AC008950E9486
:102640000000D8CF0E940000E1CF0E940000EACF36
:102650000C9400000895FC01848DDF01A80FB11DCA
:10266000A35ABF4F2C91848D90E001968F739927C8
:10267000848FA689B7892C93A089B1898C918064B5
:102680008C93938D848D981306C00288F389E02D76
:1026900080818F7D80830895CF93DF93EC01888DB7
:1026A0008823C9F0EA89FB89808185FD05C0A88956
:1026B000B9898C9186FD0FC00FB607FCF5CF8081DC
:1026C00085FFF2CFA889B9898C9185FFEDCFCE0126
:1026D0000E942B13E7CFDF91CF910895CF92DF9225
:1026E000FF920F931F93CF93DF931F92CDB7DEB767
:1026F0006C0181E0D60158968C9358975B969C911B
:102700005B975C968C915C97981307C05096ED91FF
:10271000FC915197808185FD2EC0F601038D10E05C
:102720000F5F1F4F0F731127F02EF601848DF812E3
:1027300011C00FB607FCF9CFD6015096ED91FC9170
:102740005197808185FFF1CFC60169830E942B13C9
:102750006981EBCF838DE80FF11DE35AFF4F608352
:10276000D6015B960C935B975296ED91FC91539733
:10277000808180620CC0D6015696ED91FC915797EE
:1027800060835096ED91FC915197808180648083A5
:1027900081E090E00F90DF91CF911F910F91FF901A
:1027A000DF90CF900895BF92CF92DF92EF92FF9289
:1027B000CF93DF93EC016A017B01B22EE889F9899E
:1027C00082E08083411581EE580761057105A1F013
:1027D00060E079E08DE390E0A70196010E94061E7B
:1027E000215031094109510956954795379527954B
:1027F000211580E1380798F0E889F989108260E8AE
:1028000074E88EE190E0A70196010E94061E215017
:102810003109410951095695479537952795EC851A
:10282000FD853083EE85FF852083188EEC89FD8938
:10283000B082EA89FB89808180618083EA89FB8993
:10284000808188608083EA89FB89808180688083B9
:10285000EA89FB8980818F7D8083DF91CF91FF9012
:10286000EF90DF90CF90BF9008951F920F920FB618
:102870000F9211240BB60F922F938F939F93EF9388
:10288000FF93E0914404F09145048081E0914A0473
:10289000F0914B0482FD12C0908180914D048F5FB6
:1028A0008F7320914E04821751F0E0914D04F0E0B7
:1028B000EC5CFB4F958F80934D0401C08081FF91AC
:1028C000EF919F918F912F910F900BBE0F900FBEA4
:1028D0000F901F9018951F920F920FB60F92112410
:1028E0000BB60F922F933F934F935F936F937F930A
:1028F0008F939F93AF93BF93EF93FF9384E394E001
:102900000E942B13FF91EF91BF91AF919F918F91F7
:102910007F916F915F914F913F912F910F900BBEDF
:102920000F900FBE0F901F90189584E394E00E94C3
:10293000C11221E0892B09F420E0822F0895109222
:1029400037041092360488EE93E0A0E0B0E0809364
:10295000380490933904A0933A04B0933B0488EF71
:1029600092E0909335048093340485EC90E090934A
:1029700041048093400484EC90E09093430480935E
:10298000420480EC90E0909345048093440481ECF1
:1029900090E0909347048093460482EC90E09093FB
:1029A00049048093480486EC90E090934B04809314
:1029B0004A0410924D0410924E0410924F0410924B
:1029C000500408951F920F920FB60F9211240BB668
:1029D0000F922F938F939F93EF93FF93E091E104D6
:1029E000F091E2048081E091E704F091E80482FD37
:1029F00012C090818091EA048F5F8F732091EB0465
:102A0000821751F0E091EA04F0E0EF52FB4F958F0E
:102A10008093EA0401C08081FF91EF919F918F9193
:102A20002F910F900BBE0F900FBE0F901F90189517
:102A30001F920F920FB60F9211240BB60F922F9385
:102A40003F934F935F936F937F938F939F93AF9336
:102A5000BF93EF93FF9381ED94E00E942B13FF91BE
:102A6000EF91BF91AF919F918F917F916F915F9106
:102A70004F913F912F910F900BBE0F900FBE0F9073
:102A80001F90189581ED94E00E94C11221E0892BDE
:102A900009F420E0822F08951092D4041092D304F8
:102AA00088EE93E0A0E0B0E08093D5049093D60444
:102AB000A093D704B093D80488EF92E09093D20407
:102AC0008093D1048DEC90E09093DE048093DD043C
:102AD0008CEC90E09093E0048093DF0488EC90E02D
:102AE0009093E2048093E10489EC90E09093E404F5
:102AF0008093E3048AEC90E09093E6048093E504ED
:102B00008EEC90E09093E8048093E7041092EA043E
:102B10001092EB041092EC041092ED0408951F92B1
:102B20000F920FB60F9211240BB60F922F938F9323
:102B30009F93EF93FF93E0917E05F0917F05808155
:102B4000E0918405F091850582FD12C0908180910D
:102B500087058F5F8F7320918805821751F0E09170
:102B60008705F0E0E259FA4F958F8093870501C001
:102B70008081FF91EF919F918F912F910F900BBECC
:102B80000F900FBE0F901F9018951F920F920FB6C7
:102B90000F9211240BB60F922F933F934F935F9395
:102BA0006F937F938F939F93AF93BF93EF93FF9315
:102BB0008EE695E00E942B13FF91EF91BF91AF91AC
:102BC0009F918F917F916F915F914F913F912F9145
:102BD0000F900BBE0F900FBE0F901F9018958EE6B2
:102BE00095E00E94C11221E0892B09F420E0822F98
:102BF0000895109271051092700588EE93E0A0E0A0
:102C0000B0E08093720590937305A0937405B09320
:102C1000750588EF92E090936F0580936E0585EDC2
:102C200090E090937B0580937A0584ED90E09093FB
:102C30007D0580937C0580ED90E090937F058093E7
:102C40007E0581ED90E0909381058093800582ED73
:102C500090E0909383058093820586ED90E09093B9
:102C6000850580938405109287051092880510923F
:102C7000890510928A0508951F920F920FB60F9240
:102C800011240BB60F922F938F939F93EF93FF9383
:102C9000E0911B06F0911C068081E0912106F091E5
:102CA000220682FD12C09081809124068F5F8F736F
:102CB00020912506821751F0E0912406F0E0E55FAF
:102CC000F94F958F8093240601C08081FF91EF9189
:102CD0009F918F912F910F900BBE0F900FBE0F9071
:102CE0001F9018951F920F920FB60F9211240BB6DA
:102CF0000F922F933F934F935F936F937F938F9395
:102D00009F93AF93BF93EF93FF938BE096E00E9466
:102D10002B13FF91EF91BF91AF919F918F917F9175
:102D20006F915F914F913F912F910F900BBE0F903C
:102D30000FBE0F901F9018958BE096E00E94C11275
:102D400021E0892B09F420E0822F089510920E06CD
:102D500010920D0688EE93E0A0E0B0E080930F069D
:102D600090931006A0931106B093120688EF92E09C
:102D700090930C0680930B0685E391E090931806E0
:102D80008093170684E391E090931A0680931906C6
:102D900080E391E090931C0680931B0681E391E011
:102DA00090931E0680931D0682E391E09093200687
:102DB00080931F0686E391E090932206809321067C
:102DC00010922406109225061092260610922706CD
:102DD000089508950E9473110E94E9160E948802C6
:102DE000CEEED2E10E9426032097E1F30E94EE127C
:102DF000F9CFCF92DF92EF92FF920F931F93CF9371
:102E0000DF937C016A01EB0100E010E00C151D0569
:102E100071F06991D701ED91FC910190F081E02D65
:102E2000C7011995892B19F00F5F1F4FEFCFC8010C
:102E3000DF91CF911F910F91FF90EF90DF90CF9096
:102E400008956115710581F0DB010D900020E9F70F
:102E5000AD0141505109461B570BDC01ED91FC912E
:102E60000280F381E02D199480E090E00895DC0168
:102E7000ED91FC91DB0114964D915C9115976D914C
:102E80007C910280F381E02D1994DC01ED91FC919D
:102E90000190F081E02D19948F929F92AF92BF9292
:102EA000DF92EF92FF920F931F93CF93DF93CDB7F3
:102EB000DEB7A1970FB6F894DEBF0FBECDBF7C0181
:102EC000F42FD52ECB0119A2223008F42AE08E016E
:102ED0000F5D1F4F822E912CA12CB12C6F2F7D2DB9
:102EE000A50194010E94061EF22FD32ECA010150A3
:102EF00011096A3014F4E0E301C0E7E3E60FD801FA
:102F0000EC93232B242B252B49F7B801C7010E94F2
:102F10002117A1960FB6F894DEBF0FBECDBFDF918B
:102F2000CF911F910F91FF90EF90DF90BF90AF90E6
:102F30009F908F900895CF92DF92EF92FF920F9320
:102F40001F93CF93DF93EC016A017B0121153105BB
:102F500079F4E881F9810190F081E02D642FDF910F
:102F6000CF911F910F91FF90EF90DF90CF90199428
:102F70002A303105E9F477FF1AC06DE20E94451747
:102F80008C0144275527BA014C195D096E097F0948
:102F90002AE0CE010E944C17800F911FDF91CF9144
:102FA0001F910F91FF90EF90DF90CF9008952AE04E
:102FB000B701A601CE01DF91CF911F910F91FF9034
:102FC000EF90DF90CF900C944C179A01AB016627DD
:102FD00057FD6095762F0C949B17FC0180819181A1
:102FE0000C94051FCF93DF93EC01888199810097A2
:102FF00011F00E94051F198218821D821C821B82FB
:103000001A82DF91CF9108950F931F93CF93DF938F
:10301000EC018B016F5F7F4F888199810E94941F23
:10302000009731F0998388831B830A8381E001C074
:1030300080E0DF91CF911F910F910895CF93DF939F
:10304000EC0188819981892B29F08A819B818617DF
:10305000970760F4CE010E940418882341F08C8108
:103060009D81892B19F4E881F981108281E0DF913B
:10307000CF910895EF92FF920F931F93CF93DF9319
:10308000EC017B018A01BA010E941E18811104C063
:10309000CE010E94F21707C01D830C83B7018881FF
:1030A00099810E949220CE01DF91CF911F910F91C3
:1030B000FF90EF900895FC0111821082138212821A
:1030C000158214826115710559F0FB0101900020F1
:1030D000E9F7AF0141505109461B570B0C943A18C0
:1030E00008950F931F93CF93DF938C01EB01FC01A5
:1030F00080819181009799F0428153812C813D819B
:103100004217530750F0688179810E9492208C8188
:103110009D81F8019583848313C00E94051F8881D7
:103120009981F801918380838A819B819383828333
:103130008C819D8195838483198218821B821A82D7
:103140001D821C82DF91CF911F910F910895CF9323
:10315000DF93EC01FB018617970761F060817181B5
:103160006115710529F0448155810E943A1802C009
:103170000E94F217CE01DF91CF910895FC011182D8
:10318000108213821282158214820C94A718CF9396
:10319000DF93EC018617970711F00E947118CE019A
:1031A000DF91CF910895CF93DF93EC016115710505
:1031B00061F0FB0101900020E9F7AF014150510996
:1031C000461B570B0E943A1802C00E94F217CE010C
:1031D000DF91CF910895EF92FF920F931F93CF93BA
:1031E000DF93EC017B010C811D816115710511F4E8
:1031F00080E016C04115510591F0040F151FB8016C
:103200000E941E188823A1F3288139818C819D8119
:10321000B701820F931F0E9492201D830C8381E0CF
:10322000DF91CF911F910F91FF90EF900895CF9371
:10323000DF931F921F92CDB7DEB769831A8241E0F8
:1032400050E0BE016F5F7F4F0E94EB180F900F9010
:10325000DF91CF910895EF92FF920F931F93CF9339
:10326000DF93CDB7DEB728970FB6F894DEBF0FBE59
:10327000CDBF7C01CB014AE08E010F5F1F4FB8012B
:103280000E949920F80101900020E9F7AF01415018
:103290005109401B510BB801C7010E94EB18289639
:1032A0000FB6F894DEBF0FBECDBFDF91CF911F9157
:1032B0000F91FF90EF900895EF92FF920F931F935D
:1032C000CF93DF93CDB7DEB764970FB6F894DEBF28
:1032D0000FBECDBF7C01CB01BA018E010F5F1F4F26
:1032E00022E044E00E944C1EFC0101900020E9F71E
:1032F000AF0141505109481B590BBC01C7010E9445
:10330000EB1864960FB6F894DEBF0FBECDBFDF9109
:10331000CF911F910F91FF90EF900895EF92FF9240
:103320000F931F93CF93DF93CDB7DEB764970FB69C
:10333000F894DEBF0FBECDBF7C01CB01BA018E0178
:103340000F5F1F4F22E044E00E944C1EFC010190E1
:103350000020E9F7AF0141505109481B590BBC014E
:10336000C7010E94EB1864960FB6F894DEBF0FBE3B
:10337000CDBFDF91CF911F910F91FF90EF900895F6
:10338000CF93DF93EC01FB01448155816081718112
:103390000E94EB18811103C0CE010E94F217CE01EA
:1033A000DF91CF910895CF93DF93EC016115710503
:1033B00069F0FB0101900020E9F7AF01415051098C
:1033C000461B570B0E94EB18811103C0CE010E94CF
:1033D000F217CE01DF91CF910895CF93DF93EC01E7
:1033E0000E942B19811103C0CE010E94F217CE0159
:1033F000DF91CF910895CF93DF93EC010E945C1988
:10340000811103C0CE010E94F217CE01DF91CF914E
:103410000895CF93DF93EC010E948E19811103C0B0
:10342000CE010E94F217CE01DF91CF910895FC01E9
:10343000848195816817790720F4808191810097B4
:1034400029F41092A80688EA96E00895860F971F3F
:103450000895BF92CF92DF92EF92FF920F931F9346
:10346000CF93DF936C017B01EA01890124173507B3
:1034700020F48D2FE901042F182F6FE472E0C601AC
:103480000E945B18D70114968D919C911597C817CF
:10349000D907C8F48017910708F48C01D701ED9182
:1034A000FC911197E00FF11FB08010826D917C911B
:1034B0006C0F7D1FC6010E94D318D701ED91FC91BE
:1034C000E00FF11FB082C601DF91CF911F910F91E4
:1034D000FF90EF90DF90CF90BF900895FC01808126
:1034E0009181009711F00C947D2060E070E0CB0199
:1034F000089508955058BB27AA270ED0CBC1BCD140
:1035000030F0C1D120F031F49F3F11F41EF48CC192
:103510000EF4E095E7FB82C1E92FCDD180F3BA1715
:10352000620773078407950718F071F49EF5E5C1EB
:103530000EF4E0950B2EBA2FA02D0B01B9019001CE
:103540000C01CA01A0011124FF27591B99F0593F12
:1035500050F4503E68F11A16F040A22F232F342F5A
:103560004427585FF3CF469537952795A795F040A8
:103570005395C9F77EF41F16BA0B620B730B840BBD
:10358000BAF09150A1F0FF0FBB1F661F771F881F75
:10359000C2F70EC0BA0F621F731F841F48F48795CD
:1035A00077956795B795F7959E3F08F0B3CF9395BC
:1035B000880F08F09927EE0F9795879508950AD1FF
:1035C00008F481E008950CD065C15DD140F054D17C
:1035D00030F021F45F3F19F021C151118FC124C196
:1035E0006AD198F39923C9F35523B1F3951B550B71
:1035F000BB27AA2762177307840738F09F5F5F4FC6
:10360000220F331F441FAA1FA9F333D00E2E3AF006
:10361000E0E830D091505040E695001CCAF729D020
:10362000FE2F27D0660F771F881FBB1F261737076F
:103630004807AB07B0E809F0BB0B802DBF01FF279F
:1036400093585F4F2AF09E3F510568F0E7C056C17E
:103650005F3FECF3983EDCF3869577956795B795D9
:10366000F7959F5FC9F7880F911D9695879597F9F4
:103670000895E1E0660F771F881FBB1F621773076D
:103680008407BA0720F0621B730B840BBA0BEE1F82
:1036900088F7E095089519F40EF0C0C02EC1C4C09B
:1036A00012D1C8F39638C0F707F80F92E8942BE3CD
:1036B0003AEA48EB5FE7EFD10F920F920F924DB7C6
:1036C0005EB70F92A7D1E8E0F1E0B1D04F915F91E2
:1036D000EF91FF91E595EE1FFF1F49F0FE57E0685F
:1036E0004427EE0F441FFA95E1F74195550B19D188
:1036F0000F9007FE0DC1089504D06894B111FEC06B
:103700000895E1D088F09F5790F0B92F9927B751CD
:10371000A0F0D1F0660F771F881F991F1AF0BA9595
:10372000C9F712C0B13081F0E8D0B1E00895E5C02A
:10373000672F782F8827B85F39F0B93FCCF386958B
:1037400077956795B395D9F73EF4909580957095E8
:1037500061957F4F8F4F9F4F0895E89409C097FB65
:103760003EF490958095709561957F4F8F4F9F4F58
:103770009923A9F0F92F96E9BB279395F69587959C
:1037800077956795B795F111F8CFFAF4BB0F11F45F
:1037900060FF1BC06F5F7F4F8F4F9F4F16C0882306
:1037A00011F096E911C0772321F09EE8872F762F3C
:1037B00005C0662371F096E8862F70E060E02AF07D
:1037C0009A95660F771F881FDAF7880F9695879569
:1037D00097F90895990F0008550FAA0BE0E8FEEF3E
:1037E00016161706E807F907C0F012161306E407C5
:1037F000F50798F0621B730B840B950B39F40A26BE
:1038000061F0232B242B252B21F408950A2609F49B
:10381000A140A6958FEF811D811D089597F99F679F
:1038200080E870E060E008959FEF80EC0895DF93FA
:10383000CF931F930F93FF92EF92DF927B018C0146
:10384000689405C0DA2EEF0124D1FE01E894A59119
:103850002591359145915591AEF3EF015DDEFE0165
:103860009701A801DA9479F7DF90EF90FF900F911C
:103870001F91CF91DF91089500240A941616170620
:1038800018060906089500240A9412161306140651
:1038900005060895092E0394000C11F4882352F0B4
:1038A000BB0F40F4BF2B11F460FF04C06F5F7F4F6C
:1038B0008F4F9F4F089557FD9058440F551F59F053
:1038C0005F3F71F04795880F97FB991F61F09F3F0D
:1038D00079F087950895121613061406551FF2CF36
:1038E0004695F1DF08C0161617061806991FF1CF86
:1038F00086957105610508940895E894BB276627AD
:103900007727CB0197F9089565DF08F48FEF0895C5
:103910009B01AC0160E070E080E89FE354CE7ECF75
:103920005BC1D1DFE8F39923D9F3940F511DBBF3A9
:103930009150504094F059F0882332F0660F771F71
:10394000881F91505040C1F79E3F510544F7880FA2
:10395000911D9695879597F908955F3FACF0983E35
:103960009CF0BB27869577956795B79508F4B1606D
:103970009395C1F7BB0F58F711F460FFE8CF6F5F65
:103980007F4F8F4F9F4FE3CFB9CF0EF025C14CCF64
:10399000689444CF98DFC8F39923D1F3C6F3DF933B
:1039A000CF931F930F93FF92C92FDD2788232AF00F
:1039B0002197660F771F881FDAF720E030E040E894
:1039C0005FEB9FE3883920F0803E30F021968F77BF
:1039D00092DDE0E3F1E003C08EDDEDE5F1E027DF0D
:1039E0008B01BE01EC01FB2E6F5771097595771F96
:1039F000880B990BB4DE28E132E741E35FE349D05D
:103A0000AF2D9801AE01FF900F911F91CF91DF91E3
:103A100083DD40CFFA01DC01AA0FBB1F9B01AC0183
:103A2000BF5728F422273327442750781FC0B751A7
:103A300088F4AB2F0024469537952795011CA39554
:103A4000D2F3002069F0220F331F441FB395DAF33D
:103A50000DD050CD61307105A0E88A07B94630F429
:103A60009B01AC016627772788279078309621F054
:103A7000208331834283538308950BD00BCFFCDE28
:103A800028F001DF18F0952309F0C8CECDCE11241F
:103A900035CF11DFA0F3959FD1F3950F50E0551F5F
:103AA000629FF001729FBB27F00DB11D639FAA2793
:103AB000F00DB11DAA1F649F6627B00DA11D661FE2
:103AC000829F2227B00DA11D621F739FB00DA11D03
:103AD000621F839FA00D611D221F749F3327A00DBD
:103AE000611D231F849F600D211D822F762F6A2F59
:103AF00011249F5750408AF0E1F088234AF0EE0FDE
:103B0000FF1FBB1F661F771F881F91505040A9F7EA
:103B10009E3F510570F082CEF1CE5F3FECF3983EB0
:103B2000DCF3869577956795B795F795E7959F5F51
:103B3000C1F7FE2B880F911D9695879597F90895EB
:103B4000FA01EE0FFF1F30962105310599F161153D
:103B5000710561F48038BFE39B0749F168949038A0
:103B6000810561F08038BFEF9B0741F0992342F552
:103B7000FF3FE1053105210511F1E8940894E7952F
:103B8000D901AA2329F4AB2FBE2FF85FD0F310C0C0
:103B9000FF5F70F4A695E0F7F73950F019F0FF3A9F
:103BA00038F49F779F930CD00F9007FC905808959E
:103BB0003EF03ACE60E070E080E89FE308954FE782
:103BC0009F775F934F933F932F93E4DE2F913F9125
:103BD0004F915F9152DF64CD9F3F31F0915020F4BF
:103BE000879577956795B795880F911D96958795D9
:103BF00097F90895991B79E004C0991F961708F06A
:103C0000961B881F7A95C9F780950895A1E21A2E10
:103C1000AA1BBB1BFD010DC0AA1FBB1FEE1FFF1F70
:103C2000A217B307E407F50720F0A21BB30BE40BC0
:103C3000F50B661F771F881F991F1A9469F7609507
:103C40007095809590959B01AC01BD01CF010895C1
:103C5000EE0FFF1F0590F491E02D19940E943D1E78
:103C6000A59F900DB49F900DA49F800D911D1124D0
:103C700008950790F691E02D1994A29FB001B39F8B
:103C8000C001A39F700D811D1124911DB29F700D65
:103C9000811D1124911D0895EF920F931F93CF93CF
:103CA000DF93E80147FF02C034E101C034E0E42FB4
:103CB000FF27E7FDF095F7FF03C0F195E195F109C6
:103CC000E32E022F2E2FAE010E94BE20CE01DF91E7
:103CD000CF911F910F91EF900895CF93DF93823092
:103CE000910510F482E090E0E091AB06F091AC0613
:103CF00020E030E0A0E0B0E0309739F14081518120
:103D000048175907B8F04817590771F48281938111
:103D1000109729F013969C938E9312972CC0909332
:103D2000AC068093AB0627C02115310531F0421750
:103D3000530718F0A901DB0101C0EF019A01BD0191
:103D4000DF010280F381E02DD7CF21153105F9F095
:103D5000281B390B2430310580F48A819B81611541
:103D6000710521F0FB019383828304C09093AC061C
:103D70008093AB06FE01329644C0FE01E20FF31FB2
:103D80008193919322503109398328833AC020913D
:103D9000A9063091AA06232B41F42091020230910A
:103DA00003023093AA062093A906209100023091C5
:103DB00001022115310541F42DB73EB740910402AF
:103DC00050910502241B350BE091A906F091AA063B
:103DD000E217F307A0F42E1B3F0B2817390778F0E2
:103DE000AC014E5F5F4F2417350748F04E0F5F1F41
:103DF0005093AA064093A9068193919302C0E0E0F4
:103E0000F0E0CF01DF91CF910895CF93DF9300973A
:103E100009F487C0FC01329713821282C091AB066D
:103E2000D091AC06209781F420813181280F391F71
:103E30008091A9069091AA068217930779F5F093CD
:103E4000AA06E093A9066DC0DE0120E030E0AE17BF
:103E5000BF0750F412964D915C9113979D01411547
:103E6000510509F1DA01F3CFB383A2834081518177
:103E7000840F951F8A179B0771F48D919C91119760
:103E8000840F951F02969183808312968D919C9149
:103E90001397938382832115310529F4F093AC069F
:103EA000E093AB063EC0D9011396FC93EE931297B4
:103EB0004D915D91A40FB51FEA17FB0779F480813E
:103EC0009181840F951F0296D90111969C938E9330
:103ED0008281938113969C938E931297E0E0F0E099
:103EE0008A819B81009719F0FE01EC01F9CFCE0188
:103EF000029628813981820F931F2091A906309163
:103F0000AA062817390769F4309729F41092AC06ED
:103F10001092AB0602C013821282D093AA06C093FD
:103F2000A906DF91CF9108956F927F928F929F9211
:103F3000AF92BF92CF92DF92EF92FF920F931F93B7
:103F4000CF93DF93EC01CB01209781F4DF91CF91E8
:103F50001F910F91FF90EF90DF90CF90BF90AF90A7
:103F60009F908F907F906F900C946D1EFE01E60FD6
:103F7000F71F9E0122503109E217F30708F4ACC085
:103F8000D9010D911C91119706171707B8F005304C
:103F9000110508F49FC0A80144505109461757075E
:103FA00008F498C002501109061B170B01931193D6
:103FB0006D937C93CF010E94051F8CC05B01A01AFA
:103FC000B10A4E01800E911EA091AB06B091AC06D5
:103FD000612C712C60E070E0109709F449C0A815BD
:103FE000B905C9F5ED90FC901197670142E0C40E48
:103FF000D11CCA14DB0478F147018A189B086401BC
:1040000042E0C40ED11C1296BC9012971396AC914C
:10401000B5E0CB16D10440F0B282A38391828082B6
:10402000D9018D939C9309C00E5F1F4F0E0D1F1D6C
:10403000F90111830083EB2DFA2F6115710531F021
:10404000DB011396FC93EE93129744C0F093AC06F9
:10405000E093AB063FC06D917C9111976616770691
:1040600008F43B01BD0112960D90BC91A02DB4CF78
:104070006091A9067091AA0668157905E9F4681699
:104080007906D0F44091000250910102411551058A
:1040900041F44DB75EB76091040270910502461B72
:1040A000570BE417F507C0F4F093AA06E093A906AE
:1040B000F901918380830EC00E946D1E7C010097E0
:1040C00059F0A801BE010E948920CE010E94051F5F
:1040D000C70104C0CE0102C080E090E0DF91CF9123
:1040E0001F910F91FF90EF90DF90CF90BF90AF9016
:1040F0009F908F907F906F900895662777270C94FC
:104100003C22911102C4803219F089508550D0F7B9
:104110000895FB01DC0102C001900D924150504016
:10412000D8F70895FB01DC0101900D920020E1F722
:104130000895BB274A3031F4992322F4BDE29095CB
:1041400081959F4F0C94A520BB27FB015527AA27DB
:10415000880F991FAA1FA41710F0A41B8395505114
:10416000B9F7A05DAA3308F0A95DA193009779F78C
:10417000B111B1931192CB010C94A0246F927F9254
:104180009F92AF92BF92CF92DF92EF92FF920F93E6
:104190001F93CF93DF93CDB7DEB729970FB6F8946F
:1041A000DEBF0FBECDBF6A01B22E102F0C3320F43C
:1041B000FF24F394F00E02C04CE3F42E0F2D27E001
:1041C000AE014F5F5F4F0E94AD237981272F297089
:1041D000213031F0E1FC06C0E0FC06C060E005C023
:1041E0006DE203C06BE201C060E2AE2DA07173FF0F
:1041F00036C0662311F084E001C083E08B1510F413
:10420000B81A01C0B12CA1110BC0F6018B2D90E2A0
:10421000882319F091938150FBCFCB0CD11CB12C8A
:10422000662331F0F601608396012F5F3F4F6901ED
:10423000C6010396E2FE05C02EE4F601208331E4B8
:1042400004C02EE6F601208331E631832283FC018F
:104250002B2D30E22223F1F131932150FBCF72FF5D
:1042600040C0662311F084E001C083E08B1510F498
:10427000B81A01C0B12CA1110BC0F6018B2D90E230
:10428000882319F091938150FBCFCB0CD11CB12C1A
:10429000662331F0F601608396012F5F3F4F69017D
:1042A000C6010396E2FE07C029E4F60120832EE44E
:1042B000218326E406C029E6F60120832EE6218329
:1042C00026E62283FC012B2D30E2222319F03193C4
:1042D0002150FBCFFC01EB0DF11D10828EEF9FEF03
:1042E000B7C0B1E0611101C0B0E04B2F50E018162B
:1042F000190624F49C012F5F3F4F02C021E030E0FB
:10430000240F351F112329F0412F50E04F5F5F4FDD
:1043100002C040E050E0420F531F2B2D30E0421707
:10432000530714F4B41A01C0B12C2E2D287159F47E
:10433000F6012B2D30E2222319F031932150FBCFCF
:10434000CB0CD11CB12CBB2331F0F601608396015C
:104350002F5F3F4F6901A1110BC0F6012B2D30E3F8
:10436000222319F031932150FBCFCB0CD11CB12C5F
:10437000F80E0A81372F3071A32E74FF03C001336A
:1043800009F4FA941F142CF42F2D293018F028E08A
:1043900001C021E0682F392F97FF02C060E030E0B4
:1043A000462F532F612C712C3EE2932EBC01621BD1
:1043B00071099B01DC01A41BB50BE1E0F0E0EC0FFF
:1043C000FD1FAE0FBF1FE12EF12CF194E194F10817
:1043D0004F3FFFEF5F0731F4F6019082B6016F5F48
:1043E0007F4F6B01841795074CF02417350734F481
:1043F000BD01660D771DFB01118101C010E3415025
:104400005109FFEF6F1A7F0AB6016F5F7F4F4E159C
:104410005F0524F0F60110836B01DACF48175907C6
:1044200039F4063320F4053319F4A11001C011E367
:10443000F6011083FB018B2D90E2882319F09193F4
:104440008150FBCFFB01EB0DF11D108280E090E06D
:1044500029960FB6F894DEBF0FBECDBFDF91CF9186
:104460001F910F91FF90EF90DF90CF90BF90AF9092
:104470009F907F906F9008958F929F92AF92BF927E
:10448000CF92DF92EF92FF920F931F93CF93DF9320
:104490008B016115710521F0DB018C9311969C93C2
:1044A000EC015E01BFEFAB1ABB0A7501C8808C2D11
:1044B00090E00E948120892B11F0E501F2CFEDE21E
:1044C000CE1208C07E01F2E0EF0EF11CC980DD249F
:1044D000D39409C02BE2C21205C07E0142E0E40E73
:1044E000F11CC980D12CE701219743E050E06AE339
:1044F00073E0CE010E948824892BC1F4239645E005
:1045000050E065E373E0CE010E948824892B09F412
:1045100025960115110519F0D801CD93DC93D11022
:1045200006C160E070E080E89FE70AC143E050E028
:1045300062E373E0CE010E948824892B59F40115AF
:10454000110509F4F9C0B2E0EB0EF11CF801F1829B
:10455000E082F2C0F70160E070E0CB01C0E0D0E0A3
:104560007F01A0EDAA2EAC0C29E02A1530F14D2DCB
:104570004260B42E2D2D2870D2FE04C0211125C01A
:10458000219623C021112197A5E0B0E09B01AC0149
:104590000E942E1E660F771F881F991F6A0D711DBE
:1045A000811D911D6839A9E97A078A07A9E19A074F
:1045B00060F0BD2DB660BB2E08C02EEFA2120AC05F
:1045C000D3FC50C04D2D4860B42E3196D701CC900D
:1045D000DB2CC6CF2C2D2F7D253409F043C0A081C4
:1045E000AD3241F4BD2DB061DB2E7F0122E0E20E41
:1045F000F11C0CC07F01AB3231F04FEFE41AF40A2A
:1046000021E030E006C0A2E0EA0EF11CA18122E028
:1046100030E0A053AA3018F0E21AF30A23C0F701E1
:1046200020E030E02038BCE03B075CF4A901440FF7
:10463000551F440F551F240F351F220F331F2A0FFC
:10464000311DAF014F5F5F4F7A01A081A053AA30A7
:1046500010F4FA01E7CFD4FE03C03195219531095A
:10466000C20FD31FD1FE09C00115110531F0E1E0E1
:10467000EE1AF108D801ED92FC920E94AD1B2D2D8F
:104680002370233019F04B015C0106C04B015C0123
:10469000B7FAB094B7F8B09420E030E0A901C501B2
:1046A000B4010E94DF1A882309F43EC0D7FF06C078
:1046B000D195C195D10901E513E002C009E613E0E7
:1046C0006801B8E1CB1AD10890E2E92EF12CCE15A1
:1046D000DF0574F0F8012591359145915491C5019C
:1046E000B4010E943D1D4B015C01CE19DF09EFCFE3
:1046F00004501109F594E7940C151D0541F78A2D16
:10470000880F8B2D881F8F3F49F020E030E0A901F2
:10471000C501B4010E94DF1A811106C082E290E057
:104720009093AE068093AD06C501B40109C060E068
:1047300070E080E89FEF04C060E070E080EC9FE7ED
:10474000DF91CF911F910F91FF90EF90DF90CF906D
:10475000BF90AF909F908F900895283008F027E089
:104760003327DA01990F311D87FD916000966105AD
:10477000710539F432602E5F3D9330E32A95E1F7FD
:1047800008959F3F30F080387105610509F03C5F66
:104790003C5F3D93913008F08068911DDF93CF938B
:1047A0001F930F93FF92EF92192F987F9695E92F01
:1047B00096959695E90FFF27E953FC4F99273327E4
:1047C000EE24FF24A701E70105900894079428F43C
:1047D000360FE71EF81E491F511D660F771F881FF1
:1047E000991F0694A1F70590079428F4E70EF81E88
:1047F000491F561FC11D770F881F991F661F0694FA
:10480000A1F70590079428F4F80E491F561FC71FFB
:10481000D11D880F991F661F771F0694A1F7059079
:10482000079420F4490F561FC71FD81F990F661F02
:10483000771F881F0694A9F784911095177041F08F
:10484000D695C79557954795F794E7941A95C1F76C
:10485000EDE6F3E068941590159135916591959189
:1048600005907FE27395E118F10A430B560BC90BD3
:10487000D009C0F7E10CF11E431F561FC91FD01D00
:104880007EF4703311F48A95E6CFE894015030F04D
:10489000080F0AF40027021708F4202F2395022F8F
:1048A0007A3328F079E37D932A95E9F710C07D9358
:1048B0002A9589F6069497956795379517951794D5
:1048C000E118F10A430B560BC90BD00998F0239558
:1048D0007E9173957A3308F070E37C932013B8F7D8
:1048E0007E9170617D9330F0839571E37D9370E3E9
:1048F0002A95E1F71124EF90FF900F911F91CF912E
:10490000DF91992787FD9095089599278827089525
:10491000FB01DC014150504088F08D9181341CF046
:104920008B350CF4805E659161341CF06B350CF4B2
:10493000605E861B611171F3990B0895881BFCCF93
:10494000DC01FC01672F71917723E1F7329704C0F6
:104950007C916D9370836291AE17BF07C8F3089581
:1049600014E0C2E7D4E000E006C022970109FE018E
:104970000BBF0E94391EC437D10780E00807A9F792
:04498000F894FFCFD9
:104984000000AF068000010000004A54B1C5908FBA
:10499400CC40D18F1EBC4E022735F6930E31CC7914
:1049A40085AB683B8540000016430000C041000011
:1049B400E04100000000E0410100410042004300EA
:1049C4004400736A6A6B2E74302E7478743D22002E
:1049D400736A6A6B2E74312E7478743D2200736A84
:1049E4006A6B2E74322E7478743D2200736A6A6B7B
:1049F4002E74332E7478743D2200736A6A6B2E749D
:104A0400342E7478743D220073737A742E74302EAD
:104A14007478743D22002F0073737A742E74312ECF
:104A24007478743D22004B50610073737A742E7451
:104A3400322E7478743D220073737A742E74332E7C
:104A44007478743D220073737A742E74342E7478DF
:104A5400743D22004E0073737A742E74352E74786C
:104A6400743D2200590073737A742E74362E747850
:104A7400743D2200000000006E13F916C112DA1210
:044A8400CC124C13F1
:00000001FF
