:100000000C94FB010C942C020C942C020C942C02EA
:100010000C942C020C942C020C942C020C942C02A8
:100020000C942C020C942C020C942C020C942C0298
:100030000C942C020C942C020C942C020C942C0288
:100040000C942C020C94E5030C942C020C942C02BE
:100050000C942C020C942C020C942C020C94C709C6
:100060000C942C020C941E0D0C94540D0C942C0228
:100070000C942C020C942C020C942C020C942C0248
:100080000C9413040C942C020C942C020C942C024F
:100090000C94CB0D0C94010E0C942C020C942C029D
:1000A0000C942C020C942C020C9441040C942C0201
:1000B0000C942C020C942C020C942C020C946F04C3
:1000C0000C942C020C942C020C942C020C94780EA0
:1000D0000C94AE0E0C942C020C94250F0C945B0F18
:1000E0000C942C02000B030BF20AF60AFC0A3A0BE2
:1000F000070B0B0B110B150B190B1F0B230B270BEE
:100100003A0B2D0B310B350B0C94E20E0C942B0E8D
:100110000C94150B0C942E020C94190B0C94FC0AE5
:100120000C94350C0C947E0D0C94D70B0C94880D0C
:100130000C9422030C9407030C94AA0B0C94030B4D
:100140000C94F20A0C948F0F0C94850F0C94110BE5
:100150000C94570C0C940B0B0C94000B0C94230B6D
:100160000C941F0B0C94270B0C943A0B0C94E20F7D
:100170000C94070B0C94350E0C94F60A0C94B50BEA
:100180000C94310B0C942D0B0C94C30B0C94350B6D
:100190000C94D80E00000A0B02090C0D0E08070380
:1001A000040100000000000000000000000000004A
:1001B000000000000000000000000000000000003F
:1001C00012111000000000000000000000000000FC
:1001D00000000000000000000000010210202008C4
:1001E0000810204010204080020102010804020192
:1001F0000102040810204080804020100804020101
:100200008004020180402010080402010804020159
:1002100001020408102040800102040810204080E0
:1002200005050505070508080808020202020A0A72
:100230000808040404040101010101010101030390
:10024000030303030303040707070C0C0C0C0C0C3B
:100250000C0C0202020206060606060606060B0B38
:100260000B0B0B0B0B0B00002000230026002900BA
:100270002C002F00320000010000030106010901DB
:1002800000002200250028002B002E003100340041
:1002900002010000050108010B01000021002400FB
:1002A00027002A002D003000330001010000040166
:1002B00007010A014E414E494E495459494E46CD17
:1002C000CCCC3D0AD7233C17B7D13877CC2B32950D
:1002D00095E6241FB14F0A000020410000C84200EB
:1002E000401C4620BCBE4CCA1B0E5AAEC59D7400B5
:1002F000407A10F35A00A0724E18090010A5D4E8F5
:100300000000E87648170000E40B54020000CA9A87
:100310003B000000E1F505000080969800000040D9
:10032000420F000000A0860100000010270000001E
:1003300000E803000000006400000000000A000064
:100340000000000100000000002C76D888DC674F18
:100350000823DFC1DFAE59E1B1B796E5E3E453C648
:100360003AE651997696E8E6C28426EB898C9B6240
:10037000ED407C6FFCEFBC9C9F40F2BAA56FA5F4EA
:1003800090055A2AF75C936B6CF9676DC11BFCE012
:10039000E40D47FEF520E6B500D0ED902E03009465
:1003A0003577050080841E080000204E0A000000FA
:1003B000C80C333333330F986E12831141EF8D2104
:1003C00014893BE65516CFFEE6DB18D1844B381B6B
:1003D000F77C1D901DA4BBE424203284725E228130
:1003E00000C9F124ECA1E53D27000703880D350E77
:1003F000E20E8F0F220311241FBECFEFD1E2DEBF2A
:10040000CDBF00E00CBF12E0A0E0B2E0EEE6F6E304
:1004100000E00BBF02C007900D92A036B107D9F7DC
:1004200026E0A0E6B2E001C01D92A130B207E1F7DC
:1004300013E0C4EFD3E000E006C022970109FE01FB
:100440000BBF0E944014CA3ED10780E00807A9F7FD
:100450000E94D30F0C94251B0C940000CF93C82F3F
:10046000E0911D04F0911E040190F081E02D682FB1
:100470008DE194E019958C2F992787FD9095CF9168
:100480000895CF93DF93EC0167E172E00E9486103C
:1004900067E172E0CE0106960E94861067E172E085
:1004A000CE010C960E948610FE01729688E0DF0154
:1004B0001D928A95E9F71B8E1A8EDF91CF910895D0
:1004C00040E060E08AEB92E00E94E1066093D40293
:1004D0007093D5028093D6029093D70260E08AEBA6
:1004E00092E00E9441076093DC027093DD028093EA
:1004F000DE029093DF02089588E992E00E948E0761
:1005000080E692E00E94DB080E9460028CE792E0A5
:100510000E94910764E670E080E090E00C94400A4D
:1005200060E070E08EE292E00C94C51661E083E03A
:100530000E943B0B61E084E00E943B0B61E085E0A0
:100540000E943B0B61E086E00E943B0B61E087E08C
:100550000E943B0B60E088E00E943B0B60E088E07B
:100560000E943B0B60E088E00E943B0B26E040E0ED
:1005700052EC61E070E080E893E00E94BC0C26E061
:1005800040E052EC61E070E08DE194E00E94BC0C30
:1005900026E040E659E060E070E08AEB94E00E94DB
:1005A000BC0C26E040E052EC61E070E087E595E0AD
:1005B0000E94BC0C0E9490028AEB92E00E948F0580
:1005C0006BE070E087EB92E00E9468056CE070E001
:1005D00084EB92E00C946805CF93DF93EC010C96CA
:1005E0000E941810CE0106960E941810CE01DF91CD
:1005F000CF910C94181080E692E00E94EC028CE7F8
:1006000092E00E94EC0288E992E00C94EC0226E071
:100610004BE06DE28AEB92E00E946E0587EB92E080
:100620000E949D0484EB92E00E949D0488E992E080
:100630000E9441028CE792E00E94410280E692E033
:100640000C9441020C94FB02CF92DF92EF92FF9246
:100650000F931F93CF93DF936C018B017A01EC0111
:10066000CD51DD4F888187FF04C0FB0111821082CC
:1006700023C02CE02C9DC0012D9D900D11242881BC
:10068000AC01420F511D27FD5A952091E20230E046
:10069000421753078CF42881AC01420F511D27FDEE
:1006A0005A959A01FA01EE0FFF1FE20FF31FE9516D
:1006B000FD4F208126FD19C088818F5F88838CE0E3
:1006C0008C9D90018D9D300D11248881A901480FCA
:1006D000511D87FD5A958091E20290E04817590715
:1006E000B4F488818C303CF112C02881820F911DB6
:1006F00027FD9A95FC01EE0FFF1FE80FF91FE95146
:10070000FD4F808160E08F730E94740BD5CFF8019C
:1007100080819181049680349C4918F480E49CE99E
:1007200004C0F801808191810496F7019183808350
:100730008FEF888341C0F801808191814881B901A0
:10074000640F711D47FD7A95AB01FB01EE0FFF1F92
:10075000E40FF51FE951FD4F41815281840F951F30
:10076000F701918380838881A901480F511D87FD7E
:100770005A95FA01EE0FFF1FE40FF51FE951FD4FE7
:10078000808186FF19C08881280F311D87FD3A9529
:10079000F901EE0FFF1FE20FF31FE951FD4F8081BA
:1007A00061E08F73DF91CF911F910F91FF90EF90D8
:1007B000DF90CF900C94740BDF91CF911F910F912C
:1007C000FF90EF90DF90CF9008951F920F920FB699
:1007D0000F9211240BB60F922F933F934F935F9379
:1007E0006F937F938F939F93AF93BF93EF93FF93F9
:1007F00048E850E064E870E081E090E00E94240363
:10080000FF91EF91BF91AF919F918F917F916F91E8
:100810005F914F913F912F910F900BBE0F900FBEA4
:100820000F901F9018951F920F920FB60F921124E0
:100830000BB60F922F933F934F935F936F937F93DA
:100840008F939F93AF93BF93EF93FF9348E950E04B
:1008500064E970E082E090E00E942403FF91EF9150
:10086000BF91AF919F918F917F916F915F914F91C8
:100870003F912F910F900BBE0F900FBE0F901F90C6
:1008800018951F920F920FB60F9211240BB60F926C
:100890002F933F934F935F936F937F938F939F9388
:1008A000AF93BF93EF93FF9348EA50E064EA70E0A0
:1008B00083E090E00E942403FF91EF91BF91AF91FC
:1008C0009F918F917F916F915F914F913F912F9168
:1008D0000F900BBE0F900FBE0F901F9018951F9298
:1008E0000F920FB60F9211240BB60F922F933F93D6
:1008F0004F935F936F937F938F939F93AF93BF9328
:10090000EF93FF9348E251E064E271E080E090E011
:100910000E942403FF91EF91BF91AF919F918F911E
:100920007F916F915F914F913F912F910F900BBEEF
:100930000F900FBE0F901F9018952091E202203368
:10094000A0F431E0320F3093E202FC012083822FC9
:1009500090E0FC01EE0FFF1FE80FF91FE951FD4F7A
:1009600088EB9BE09283818308952FEFFC01208325
:100970000895DF92EF92FF920F931F93CF93DF932F
:10098000EC01D62E7A0189018881803308F068C095
:1009900061E08D2D0E943B0B8881A82FB0E0FD0106
:1009A000EE0FFF1FEA0FFB1FE951FD4F2D2D2F7397
:1009B0009081907C922B908360E272E06E197F09A7
:1009C00077FF02C06D5F7F4F759567957595679549
:1009D000698340E659E0401B510B57FF02C04D5F51
:1009E0005F4F55954795559547954A836CE00E9412
:1009F00001149CE0899FB001112420E030E0A9019E
:100A0000460F571FFA01EE0FFF1FE40FF51FE951C4
:100A1000FD4F908196FD18C02F5F3F4F2C30310560
:100A200071F790E08130910521F51092800082E00D
:100A3000809381001092850010928400B19A809179
:100A40006F00826080936F00888190E0FC01EE0F60
:100A5000FF1FE80FF91FE951FD4F808180648083FB
:100A60008881DF91CF911F910F91FF90EF90DF90E0
:100A700008958230910569F41092900082E080938D
:100A80009100109295001092940088BB80937100A1
:100A9000DBCF8330910569F41092A00082E080934F
:100AA000A1001092A5001092A40089BB809372004F
:100AB000CBCF892B49F61092200182E0809321014F
:100AC00010922501109224018ABB80937300BCCF41
:100AD00020E639E040E252E00C94B904DC011596BE
:100AE0006C93159716964C93169770E0FB01E6529F
:100AF000FE4FE4911796EC931797FB01E05EFD4FD4
:100B0000649118966C93189740E85EE360E070E09B
:100B10001D964D935D936D937C9350970895CF935D
:100B2000DF93EC0162E08D810E943B0B40E358EFC4
:100B30006FEF7FEF49875A876B877C87DF91CF9173
:100B40000895AF92BF92CF92DF92EF92FF920F93F0
:100B50001F93CF93DF93EC01AF80662311F0BA2C83
:100B600001C0B12CA885B0E0AA0FBB1FAA59BD4F88
:100B700040E050E0BA01FD0185919491FC01808133
:100B80008A218B1112C08A019B010F5F1F4F2F4FCB
:100B90003F4FCD84DE84EF84F8884C155D056E05EB
:100BA0007F0538F4B901A801E6CF342F252FCB01FA
:100BB00004C030E020E080E090E0632F722FDF91EE
:100BC000CF911F910F91FF90EF90DF90CF90BF904A
:100BD000AF900895CF92DF92EF92FF920F931F9301
:100BE000CF93DF93CDB7DEB7C054D1400FB6F894A2
:100BF000DEBF0FBECDBF8C01F62E0E94110AF11090
:100C000016C0F801C184D284E384F4849B01AC0152
:100C10002C193D094E095F0969017A0130EDC316AF
:100C200037E0D306E104F10410F48189BAC0F80179
:100C3000618772878387948714821382128211825C
:100C4000108261E085810E94740B6AEF70E080E0A1
:100C500090E00E94400A61E0F80185810E943B0B10
:100C600060E0F80185810E94740B64E170E080E02F
:100C700090E00E94400AF89461E0F80185810E94AA
:100C8000740B88E290E00E947A0A62E0F8018581A4
:100C90000E943B0B8AE090E00E947A0A60E0C80163
:100CA0000E94A105672B682B692B41F061E0C80108
:100CB0000E94A105672B682B692B21F4F801118A8A
:100CC00078946EC06E01FFEBCF1AFEEFDF0A9E0133
:100CD0002F5F3F4F790160E0C8010E94A105F70135
:100CE000608371838283938361E0C8010E94A105C0
:100CF000F7016483758386839783F8E0EF0EF11C18
:100D0000EC14FD0441F778949E012F5F3F4F790169
:100D100020E030E0F701408151816281738184815C
:100D20009581A681B7814115510561057105B1F124
:100D30000097A105B10591F1F901F595E795F595B4
:100D4000E795F595E795E00FF11FD080DD0C48178A
:100D500059076A077B0710F0D08203C08D2D816090
:100D600080832F5F3F4FF8E0EF0EF11C28323105F2
:100D700089F6F801248130E04081818190E0840F80
:100D8000911D4281840F911D4381840F911D9927EC
:100D90002817390719F481E0818B03C0F801118A03
:100DA00080E0C05CDE4F0FB6F894DEBF0FBECDBF53
:100DB000DF91CF911F910F91FF90EF90DF90CF9037
:100DC0000895CF92DF92EF92FF920F931F93CF93EC
:100DD000DF93EC01162F642F0E94EA05882309F4A3
:100DE00043C08E818B3031F008F43EC08551823093
:100DF00040F03AC06A8170E080E090E00E94EC121E
:100E000024C00A81602F6F7770E080E090E00E943C
:100E1000EE1220E030E040E853E40E949E136B01A4
:100E20007C016B8170E080E090E00E94EE129B01FB
:100E3000AC01C701B6010E9453122DEC3CEC4CEC06
:100E40005DE30E949E1307FD9058112389F026E66A
:100E500036E646EE5FE30E949E1320E030E040E07D
:100E600052E40E94531204C060E070E080EC9FE7FF
:100E7000DF91CF911F910F91FF90EF90DF90CF9076
:100E80000895CF92DF92EF92FF92CF93DF93EC0120
:100E900060E00E94EA05882379F18E818B3029F188
:100EA00058F18551823040F5688170E080E090E033
:100EB0000E94EC1220E030E040E853E40E949E13D0
:100EC0006B017C01698170E080E090E00E94EE128D
:100ED0009B01AC01C701B6010E9453122DEC3CEC02
:100EE0004CEC5DE30E949E130BC0688170E080E0D3
:100EF00090E00E94EC1204C060E070E080EC9FE79C
:100F0000DF91CF91FF90EF90DF90CF900895DC01BB
:100F1000ED91FC910280F381E02D199481E090E045
:100F20000895CF92DF92EF92FF92CF93DF93CDB7E8
:100F3000DEB72F970FB6F894DEBF0FBECDBF8FEF91
:100F40008D878E878F87C090CC02D090CD02E090A5
:100F5000CE02F090CF0267E172E0CE0107960E94C8
:100F60008610BE01695F7F4FCE0101960E94E91095
:100F70006AE072E0CE0101960E94B911B701A601A4
:100F80000E94E11166E172E00E94B911BC018DE19D
:100F900094E00E940A10CE0101960E941810CE0122
:100FA00007960E94181043E050E0BE01635F7F4F38
:100FB0008DE194E00E9487076091D0027091D10288
:100FC0008091D2029091D3020E94BB126B017C01EE
:100FD00067E172E0CE0107960E948610BE01695F4C
:100FE0007F4FCE0101960E94E91068E172E0CE01C8
:100FF00001960E94B911B6010E94D31166E172E018
:101000000E94B911BC018DE194E00E940A10CE014A
:1010100001960E941810CE0107960E94181043E016
:1010200050E0BE01635F7F4F8DE194E00E9487072F
:101030006091D8027091D9028091DA029091DB021E
:101040000E94BB126B017C0167E172E0CE01079642
:101050000E948610BE01695F7F4FCE0101960E94FB
:10106000E91066E272E0CE0101960E94B911B60164
:101070000E94D31166E172E00E94B911BC018DE1BA
:1010800094E00E940A10CE0101960E941810CE0131
:1010900007960E94181043E050E0BE01635F7F4F47
:1010A0008DE194E00E9487076091D4027091D5028F
:1010B0008091D6029091D7020E94BB126B017C01F5
:1010C00067E172E0CE0107960E948610BE01695F5B
:1010D0007F4FCE0101960E94E91064E372E0CE01D9
:1010E00001960E94B911B6010E94D31166E172E027
:1010F0000E94B911BC018DE194E00E940A10CE015A
:1011000001960E941810CE0107960E94181043E025
:1011100050E0BE01635F7F4F8DE194E00E9487073E
:101120006091DC027091DD028091DE029091DF021D
:101130000E94BB126B017C0167E172E0CE01079651
:101140000E948610BE01695F7F4FCE0101960E940A
:10115000E91062E472E0CE0101960E94B911B60175
:101160000E94D31166E172E00E94B911BC018DE1C9
:1011700094E00E940A10CE0101960E941810CE0140
:1011800007960E94181043E050E0BE01635F7F4F56
:101190008DE194E00E94870781E090E02F960FB6E2
:1011A000F894DEBF0FBECDBFDF91CF91FF90EF90DF
:1011B000DF90CF9008958F929F92AF92BF92CF927F
:1011C000DF92EF92FF920F931F93CF93DF93CDB7F0
:1011D000DEB72C970FB6F894DEBF0FBECDBF6C0103
:1011E00067E172E0CE0107960E9486108AEB94E0D8
:1011F0000E94AA0B181619060CF0B0C08601045FF5
:101200001F4F8AEB94E00E94B50B0D9779F08AEBA3
:1012100094E00E94C30B682FC8010E94421166E04F
:1012200070E080E090E00E94400AEBCF8AEB94E00F
:101230000E94C30B66E070E080E090E00E94400AEC
:101240008AEB94E00E94C30B66E070E080E090E0DF
:101250000E94400A812C912CE12CF12CA12CB12C64
:10126000F601808991898816990690F4B401C80125
:101270000E94EF11FC0180818C3231F4A114B10481
:1012800011F4540101C07401FFEF8F1A9F0AE8CFD7
:10129000950140E050E0B801CE0101960E94011294
:1012A000BE016F5F7F4FCE0107960E94F210CE0104
:1012B00001960E941810CE0107960E944612609374
:1012C000CC027093CD028093CE029093CF02A50101
:1012D0004F5F5F4F9701B801CE0101960E94011246
:1012E000BE016F5F7F4FCE0107960E94F210CE01C4
:1012F00001960E941810CE0107960E944612609334
:10130000D0027093D1028093D2029093D302F6015F
:1013100020893189A7014F5F5F4FB801CE01019647
:101320000E940112BE016F5F7F4FCE0107960E949F
:10133000F210CE0101960E941810CE0107960E946D
:1013400046126093D8027093D9028093DA02909388
:10135000DB0267E172E0C8010E94FE10CE01079631
:101360000E94181081E090E02C960FB6F894DEBF32
:101370000FBECDBFDF91CF911F910F91FF90EF90E6
:10138000DF90CF90BF90AF909F908F9008951F9265
:101390000F920FB60F9211242F933F938F939F9329
:1013A000AF93BF938091780390917903A0917A03D2
:1013B000B0917B033091770323E0230F2D3720F486
:1013C0000196A11DB11D05C026E8230F0296A11D9F
:1013D000B11D209377038093780390937903A093B2
:1013E0007A03B0937B0380917C0390917D03A0915D
:1013F0007E03B0917F030196A11DB11D80937C03F4
:1014000090937D03A0937E03B0937F03BF91AF9130
:101410009F918F913F912F910F900FBE0F901F9032
:1014200018952FB7F89460917803709179038091A3
:101430007A0390917B032FBF08953FB7F894809172
:101440007C0390917D03A0917E03B0917F0326B52C
:10145000A89B05C02F3F19F00196A11DB11D3FBFEC
:101460006627782F892F9A2F620F711D811D911D7C
:1014700042E0660F771F881F991F4A95D1F708959C
:101480008F929F92AF92BF92CF92DF92EF92FF9294
:101490006B017C010E941D0A4B015C01C114D10447
:1014A000E104F104F1F00E9451120E941D0A681932
:1014B00079098A099B09683E73408105910570F39B
:1014C00021E0C21AD108E108F10888EE880E83E015
:1014D000981EA11CB11CC114D104E104F10429F728
:1014E000DDCFFF90EF90DF90CF90BF90AF909F90B7
:1014F0008F9008958230910538F0880F991F880FDA
:10150000991F05970197F1F70895789484B5826043
:1015100084BD84B5816084BD85B5826085BD85B597
:10152000816085BDEEE6F0E0808181608083E1E846
:10153000F0E010828081826080838081816080837E
:10154000E0E8F0E0808181608083E1EBF0E0808181
:1015500084608083E0EBF0E0808181608083E1E95A
:10156000F0E0808182608083808181608083E0E917
:10157000F0E0808181608083E1EAF0E08081826038
:101580008083808181608083E0EAF0E080818160F7
:101590008083E1E2F1E080818260808380818160EC
:1015A0008083E0E2F1E0808181608083EAE7F0E01F
:1015B000808184608083808182608083808181607B
:1015C00080838081806880831092C100089590E0BC
:1015D000FC013197E231F10508F04CC0EE58FF4FA5
:1015E0000C942F14809180008F7703C0809180002D
:1015F0008F7D80938000089580918000877FF9CF50
:1016000084B58F7702C084B58F7D84BD08958091A5
:10161000B0008F7703C08091B0008F7D8093B000C1
:101620000895809190008F7707C0809190008F7D02
:1016300003C080919000877F8093900008958091EF
:10164000A0008F7707C08091A0008F7D03C080919C
:10165000A000877F8093A0000895809120018F775C
:1016600007C0809120018F7D03C080912001877F7A
:10167000809320010895CF93DF9390E0FC01E65220
:10168000FE4F2491FC01E05EFD4F8491882349F1D7
:1016900090E0880F991FFC01E656FD4FA591B4918B
:1016A00080589D4FFC01C591D4919FB7611108C02E
:1016B000F8948C91209582238C93888182230AC090
:1016C000623051F4F8948C91322F309583238C93AF
:1016D0008881822B888304C0F8948C91822B8C9310
:1016E0009FBFDF91CF9108950F931F93CF93DF9307
:1016F0001F92CDB7DEB7282F30E0F901EC56FE4F30
:101700008491F901E652FE4F1491F901E05EFD4F1C
:1017100004910023C9F0882321F069830E94E70A1D
:101720006981E02FF0E0EE0FFF1FE058FD4FA5911B
:10173000B4919FB7F8948C91611103C010958123E7
:1017400001C0812B8C939FBF0F90DF91CF911F9190
:101750000F910895FC01818D228D90E0805C9F4F58
:10176000821B91098F7399270895FC01918D828DB9
:10177000981731F0828DE80FF11D858D90E0089566
:101780008FEF9FEF0895FC01918D828D981761F086
:10179000828DDF01A80FB11D5D968C91928D9F5FA8
:1017A0009F73928F90E008958FEF9FEF08958EE7DB
:1017B0009DE0892B41F080E090E0892B21F00E9490
:1017C0007E0D811125C08BE29EE0892B41F080E0E7
:1017D00090E0892B21F00E942B0E81111CC088ED16
:1017E0009EE0892B41F080E090E0892B21F00E945F
:1017F000D80E811113C085E89FE0892BA1F080E00D
:1018000090E0892B81F00E94850F81110AC0089514
:101810000E940000D8CF0E940000E1CF0E9400008B
:10182000EACF0C9400000895FC01848DDF01A80F1D
:10183000B11DA35ABF4F2C91848D90E001968F73F8
:101840009927848FA689B7892C93A089B1898C9117
:1018500080648C93938D848D981306C00288F389DD
:10186000E02D80818F7D80830895CF93DF93EC01FD
:10187000888D8823C9F0EA89FB89808185FD05C0B0
:10188000A889B9898C9186FD0FC00FB607FCF5CFEA
:10189000808185FFF2CFA889B9898C9185FFEDCF32
:1018A000CE010E94140CE7CFDF91CF910895CF9223
:1018B000DF92FF920F931F93CF93DF931F92CDB7C9
:1018C000DEB76C0181E0D60158968C9358975B96F1
:1018D0009C915B975C968C915C97981307C050968F
:1018E000ED91FC915197808185FD2EC0F601038D0D
:1018F00010E00F5F1F4F0F731127F02EF601848D3C
:10190000F81211C00FB607FCF9CFD6015096ED9131
:10191000FC915197808185FFF1CFC60169830E94B8
:10192000140C6981EBCF838DE80FF11DE35AFF4F53
:101930006083D6015B960C935B975296ED91FC9178
:101940005397808180620CC0D6015696ED91FC9130
:10195000579760835096ED91FC91519780818064F8
:10196000808381E090E00F90DF91CF911F910F91E4
:10197000FF90DF90CF900895BF92CF92DF92EF92C9
:10198000FF92CF93DF93EC016A017B01B22EE889CD
:10199000F98982E08083411581EE58076105710560
:1019A000A1F060E079E08DE390E0A70196010E944C
:1019B0000D14215031094109510956954795379524
:1019C0002795211580E1380798F0E889F989108278
:1019D00060E874E88EE190E0A70196010E940D1482
:1019E0002150310941095109569547953795279559
:1019F000EC85FD853083EE85FF852083188EEC898C
:101A0000FD89B082EA89FB89808180618083EA89CF
:101A1000FB89808188608083EA89FB898081806876
:101A20008083EA89FB8980818F7D8083DF91CF91DC
:101A3000FF90EF90DF90CF90BF9008951F920F928C
:101A40000FB60F9211240BB60F922F938F939F9383
:101A5000EF93FF93E0919003F09191038081E091E7
:101A60009603F091970382FD12C0908180919903B3
:101A70008F5F8F7320919A03821751F0E091990341
:101A8000F0E0E058FC4F958F8093990301C080816E
:101A9000FF91EF919F918F912F910F900BBE0F901F
:101AA0000FBE0F901F9018951F920F920FB60F92B6
:101AB00011240BB60F922F933F934F935F936F9325
:101AC0007F938F939F93AF93BF93EF93FF9380E8A0
:101AD00093E00E94140CFF91EF91BF91AF919F9101
:101AE0008F917F916F915F914F913F912F910F90C7
:101AF0000BBE0F900FBE0F901F90189580E893E0DB
:101B00000E94AA0B21E0892B09F420E0822F08957E
:101B1000109283031092820388EE93E0A0E0B0E07D
:101B20008093840390938503A0938603B0938703E7
:101B300084E592E0909381038093800385EC90E0AC
:101B400090938D0380938C0384EC90E090938F03AB
:101B500080938E0380EC90E09093910380939003A8
:101B600081EC90E0909393038093920382EC90E059
:101B7000909395038093940386EC90E09093970361
:101B8000809396031092990310929A0310929B03EC
:101B900010929C0308951F920F920FB60F9211247A
:101BA0000BB60F922F938F939F93EF93FF93E09138
:101BB0002D04F0912E048081E0913304F0913404DF
:101BC00082FD12C09081809136048F5F8F732091C7
:101BD0003704821751F0E0913604F0E0E35EFB4FEA
:101BE000958F8093360401C08081FF91EF919F9182
:101BF0008F912F910F900BBE0F900FBE0F901F90E3
:101C000018951F920F920FB60F9211240BB60F92D8
:101C10002F933F934F935F936F937F938F939F93F4
:101C2000AF93BF93EF93FF938DE194E00E94140C68
:101C3000FF91EF91BF91AF919F918F917F916F91A4
:101C40005F914F913F912F910F900BBE0F900FBE60
:101C50000F901F9018958DE194E00E94AA0B21E04F
:101C6000892B09F420E0822F08951092200410920D
:101C70001F0488EE93E0A0E0B0E0809321049093ED
:101C80002204A0932304B093240484E592E090936B
:101C90001E0480931D048DEC90E090932A048093A1
:101CA00029048CEC90E090932C0480932B0488EC16
:101CB00090E090932E0480932D0489EC90E0909313
:101CC000300480932F048AEC90E090933204809348
:101CD00031048EEC90E0909334048093330410929E
:101CE0003604109237041092380410923904089583
:101CF0001F920F920FB60F9211240BB60F922F93D3
:101D00008F939F93EF93FF93E091CA04F091CB04DC
:101D10008081E091D004F091D10482FD12C09081C5
:101D20008091D3048F5F8F732091D404821751F078
:101D3000E091D304F0E0E654FB4F958F8093D304F9
:101D400001C08081FF91EF919F918F912F910F9012
:101D50000BBE0F900FBE0F901F9018951F920F9201
:101D60000FB60F9211240BB60F922F933F934F9300
:101D70005F936F937F938F939F93AF93BF93EF93F3
:101D8000FF938AEB94E00E94140CFF91EF91BF91B6
:101D9000AF919F918F917F916F915F914F913F9103
:101DA0002F910F900BBE0F900FBE0F901F901895A4
:101DB0008AEB94E00E94AA0B21E0892B09F420E031
:101DC000822F08951092BD041092BC0488EE93E017
:101DD000A0E0B0E08093BE049093BF04A093C00441
:101DE000B093C10484E592E09093BB048093BA045D
:101DF00085ED90E09093C7048093C60484ED90E055
:101E00009093C9048093C80480ED90E09093CB0434
:101E10008093CA0481ED90E09093CD048093CC042C
:101E200082ED90E09093CF048093CE0486ED90E015
:101E30009093D1048093D0041092D3041092D404D0
:101E40001092D5041092D60408951F920F920FB6E7
:101E50000F9211240BB60F922F938F939F93EF93B2
:101E6000FF93E0916705F09168058081E0916D0531
:101E7000F0916E0582FD12C09081809170058F5F98
:101E80008F7320917105821751F0E0917005F0E099
:101E9000E95AFA4F958F8093700501C08081FF91B8
:101EA000EF919F918F912F910F900BBE0F900FBECE
:101EB0000F901F9018951F920F920FB60F9211243A
:101EC0000BB60F922F933F934F935F936F937F9334
:101ED0008F939F93AF93BF93EF93FF9387E595E025
:101EE0000E94140CFF91EF91BF91AF919F918F9140
:101EF0007F916F915F914F913F912F910F900BBE0A
:101F00000F900FBE0F901F90189587E595E00E94E7
:101F1000AA0B21E0892B09F420E0822F089510926A
:101F20005A051092590588EE93E0A0E0B0E0809346
:101F30005B0590935C05A0935D05B0935E0584E519
:101F400092E0909358058093570585E391E0909334
:101F500064058093630584E391E090936605809324
:101F6000650580E391E0909368058093670581E3C0
:101F700091E090936A058093690582E391E09093E4
:101F80006C0580936B0586E391E090936E058093DA
:101F90006D051092700510927105109272051092E5
:101FA0007305089508950E94850A0E94D20F0E9429
:101FB0009602C7EDDBE00E947C022097E1F30E94CD
:101FC000D70BF9CFCF92DF92EF92FF920F931F932F
:101FD000CF93DF937C016A01EB0100E010E00C1568
:101FE0001D0571F06991D701ED91FC910190F0818F
:101FF000E02DC7011995892B19F00F5F1F4FEFCF07
:10200000C801DF91CF911F910F91FF90EF90DF906A
:10201000CF900895DC01ED91FC91DB0114964D9178
:102020005C9115976D917C910280F381E02D19945C
:10203000FC01808191810C940C15CF93DF93EC010E
:1020400088819981009711F00E940C1519821882DD
:102050001D821C821B821A82DF91CF9108950F93FB
:102060001F93CF93DF93EC018B016F5F7F4F8881CC
:1020700099810E949B15009731F0998388831B8377
:102080000A8381E001C080E0DF91CF911F910F9121
:102090000895CF93DF93EC0188819981892B29F0F2
:1020A0008A819B818617970760F4CE010E942F10CA
:1020B000882341F08C819D81892B19F4E881F98175
:1020C000108281E0DF91CF910895EF92FF920F93FC
:1020D0001F93CF93DF93EC017B018A01BA010E9429
:1020E0004910811104C0CE010E941D1007C01D833C
:1020F0000C83B701888199810E949916CE01DF91E6
:10210000CF911F910F91FF90EF900895FC011182E4
:10211000108213821282158214826115710559F0A2
:10212000FB0101900020E9F7AF0141505109461B26
:10213000570B0C94651008950F931F93CF93DF9363
:102140008C01EB01FC0180819181009799F0428123
:1021500053812C813D814217530750F0688179816A
:102160000E9499168C819D81F8019583848313C008
:102170000E940C1588819981F801918380838A815E
:102180009B81938382838C819D8195838483198233
:1021900018821B821A821D821C82DF91CF911F91AF
:1021A0000F910895CF93DF93EC01FB0186179707FA
:1021B00061F0608171816115710529F0448155815B
:1021C0000E94651002C00E941D10CE01DF91CF91C8
:1021D0000895FC01118210821382128215821482EA
:1021E0000C94D210CF93DF93EC018617970711F070
:1021F0000E949C10CE01DF91CF910895CF93DF9381
:10220000EC016115710561F0FB0101900020E9F717
:10221000AF0141505109461B570B0E94651002C087
:102220000E941D10CE01DF91CF910895EF92FF9291
:102230000F931F93CF93DF93EC017B010C811D81E2
:102240006115710511F480E016C04115510591F03A
:10225000040F151FB8010E9449108823A1F328819B
:1022600039818C819D81B701820F931F0E9499163D
:102270001D830C8381E0DF91CF911F910F91FF901F
:10228000EF900895CF93DF931F921F92CDB7DEB7E3
:1022900069831A8241E050E0BE016F5F7F4F0E9468
:1022A00016110F900F90DF91CF910895EF92FF924A
:1022B0000F931F93CF93DF93CDB7DEB728970FB659
:1022C000F894DEBF0FBECDBF7C01CB014AE08E018A
:1022D0000F5F1F4FB8010E94A016F8010190002067
:1022E000E9F7AF0141505109401B510BB801C7013B
:1022F0000E94161128960FB6F894DEBF0FBECDBF10
:10230000DF91CF911F910F91FF90EF900895EF9281
:10231000FF920F931F93CF93DF93CDB7DEB76497F0
:102320000FB6F894DEBF0FBECDBF7C01CB01BA0162
:102330008E010F5F1F4F22E044E00E945314FC0106
:1023400001900020E9F7AF0141505109481B590B9A
:10235000BC01C7010E94161164960FB6F894DEBF47
:102360000FBECDBFDF91CF911F910F91FF90EF90E6
:102370000895CF93DF93EC016115710569F0FB01BE
:1023800001900020E9F7AF0141505109461B570B5E
:102390000E941611811103C0CE010E941D10CE01B2
:1023A000DF91CF910895CF93DF93EC010E945611F6
:1023B000811103C0CE010E941D10CE01DF91CF918B
:1023C0000895CF93DF93EC010E948711811103C020
:1023D000CE010E941D10CE01DF91CF910895FC0126
:1023E000848195816817790720F480819181009715
:1023F00029F41092F40584EF95E00895860F971F55
:102400000895BF92CF92DF92EF92FF920F931F93A6
:10241000CF93DF936C017B01EA0189012417350713
:1024200020F48D2FE901042F182F67E172E0C60117
:102430000E948610D70114968D919C911597C8170C
:10244000D907C8F48017910708F48C01D701ED91E2
:10245000FC911197E00FF11FB08010826D917C917B
:102460006C0F7D1FC6010E94FE10D701ED91FC91FB
:10247000E00FF11FB082C601DF91CF911F910F9144
:10248000FF90EF90DF90CF90BF900895FC01808186
:102490009181009711F00C94841660E070E0CB01FC
:1024A000089508955058BB27AA270ED00DC1FED01D
:1024B00030F003D120F031F49F3F11F41EF4F3C04B
:1024C0000EF4E095E7FBE9C0E92F0FD180F3BA17CE
:1024D000620773078407950718F071F49EF527C10A
:1024E0000EF4E0950B2EBA2FA02D0B01B90190012F
:1024F0000C01CA01A0011124FF27591B99F0593F73
:1025000050F4503E68F11A16F040A22F232F342FBA
:102510004427585FF3CF469537952795A795F04008
:102520005395C9F77EF41F16BA0B620B730B840B1D
:10253000BAF09150A1F0FF0FBB1F661F771F881FD5
:10254000C2F70EC0BA0F621F731F841F48F487952D
:1025500077956795B795F7959E3F08F0B3CF93951C
:10256000880F08F09927EE0F97958795089571D0F9
:1025700008F481E0089504D06894B111D9C0089599
:10258000BCD088F09F5790F0B92F9927B751A0F091
:10259000D1F0660F771F881F991F1AF0BA95C9F7F7
:1025A00012C0B13081F0C3D0B1E00895C0C0672F30
:1025B000782F8827B85F39F0B93FCCF386957795A7
:1025C0006795B395D9F73EF4909580957095619590
:1025D0007F4F8F4F9F4F0895E89409C097FB3EF4BB
:1025E00090958095709561957F4F8F4F9F4F992360
:1025F000A9F0F92F96E9BB279395F69587957795DE
:102600006795B795F111F8CFFAF4BB0F11F460FF9D
:102610001BC06F5F7F4F8F4F9F4F16C0882311F0F5
:1026200096E911C0772321F09EE8872F762F05C009
:10263000662371F096E8862F70E060E02AF09A95A4
:10264000660F771F881FDAF7880F9695879597F999
:102650000895990F0008550FAA0BE0E8FEEF161633
:102660001706E807F907C0F012161306E407F50786
:1026700098F0621B730B840B950B39F40A2661F0FA
:10268000232B242B252B21F408950A2609F4A1409D
:10269000A6958FEF811D811D089597F99F6780E8AA
:1026A00070E060E008959FEF80EC089500240A94A4
:1026B0001616170618060906089500240A9412161D
:1026C0001306140605060895092E0394000C11F450
:1026D000882352F0BB0F40F4BF2B11F460FF04C0FD
:1026E0006F5F7F4F8F4F9F4F089557FD9058440F56
:1026F000551F59F05F3F71F04795880F97FB991F61
:1027000061F09F3F79F0879508951216130614061D
:10271000551FF2CF4695F1DF08C0161617061806AA
:10272000991FF1CF86957105610508940895E89485
:10273000BB2766277727CB0197F908950BD0C4CF25
:10274000B5DF28F0BADF18F0952309F0A6CFABCF9C
:102750001124EECFCADFA0F3959FD1F3950F50E07F
:10276000551F629FF001729FBB27F00DB11D639F43
:10277000AA27F00DB11DAA1F649F6627B00DA11DE9
:10278000661F829F2227B00DA11D621F739FB00D8F
:10279000A11D621F839FA00D611D221F749F3327FF
:1027A000A00D611D231F849F600D211D822F762F98
:1027B0006A2F11249F5750408AF0E1F088234AF095
:1027C000EE0FFF1FBB1F661F771F881F91505040E1
:1027D000A9F79E3F510570F060CFAACF5F3FECF3A1
:1027E000983EDCF3869577956795B795F795E795CD
:1027F0009F5FC1F7FE2B880F911D9695879597F9DE
:102800000895991B79E004C0991F961708F0961B4C
:10281000881F7A95C9F780950895A1E21A2EAA1B00
:10282000BB1BFD010DC0AA1FBB1FEE1FFF1FA21780
:10283000B307E407F50720F0A21BB30BE40BF50B7D
:10284000661F771F881F991F1A9469F76095709506
:10285000809590959B01AC01BD01CF010895EE0FCD
:10286000FF1F0590F491E02D19940E944414A59F38
:10287000900DB49F900DA49F800D911D112408957B
:102880000790F691E02D1994A29FB001B39FC0016B
:10289000A39F700D811D1124911DB29F700D811D8C
:1028A0001124911D0895EF920F931F93CF93DF93FF
:1028B000E80147FF02C034E101C034E0E42FFF2704
:1028C000E7FDF095F7FF03C0F195E195F109E32EDF
:1028D000022F2E2FAE010E942C17CE01DF91CF9137
:1028E0001F910F91EF900895CF93DF938230910560
:1028F00010F482E090E0E091F705F091F80520E017
:1029000030E0A0E0B0E0309739F1408151814817C4
:102910005907B8F04817590771F4828193811097CD
:1029200029F013969C938E9312972CC09093F805E0
:102930008093F70527C02115310531F04217530761
:1029400018F0A901DB0101C0EF019A01BD01DF010F
:102950000280F381E02DD7CF21153105F9F0281B36
:10296000390B2430310580F48A819B816115710512
:1029700021F0FB019383828304C09093F805809338
:10298000F705FE01329644C0FE01E20FF31F81936A
:10299000919322503109398328833AC02091F5055B
:1029A0003091F605232B41F420910202309103026D
:1029B0003093F6052093F505209100023091010235
:1029C0002115310541F42DB73EB7409104025091D5
:1029D0000502241B350BE091F505F091F605E21791
:1029E000F307A0F42E1B3F0B2817390778F0AC0132
:1029F0004E5F5F4F2417350748F04E0F5F1F50930F
:102A0000F6054093F5058193919302C0E0E0F0E074
:102A1000CF01DF91CF910895CF93DF93009709F411
:102A200087C0FC01329713821282C091F705D091C2
:102A3000F805209781F420813181280F391F80917A
:102A4000F5059091F6058217930779F5F093F60551
:102A5000E093F5056DC0DE0120E030E0AE17BF0762
:102A600050F412964D915C9113979D0141155105BB
:102A700009F1DA01F3CFB383A28340815181840F3E
:102A8000951F8A179B0771F48D919C911197840F64
:102A9000951F02969183808312968D919C91139736
:102AA000938382832115310529F4F093F805E0938F
:102AB000F7053EC0D9011396FC93EE9312974D9102
:102AC0005D91A40FB51FEA17FB0779F4808191810E
:102AD000840F951F0296D90111969C938E93828143
:102AE000938113969C938E931297E0E0F0E08A8195
:102AF0009B81009719F0FE01EC01F9CFCE010296FF
:102B000028813981820F931F2091F5053091F605B8
:102B10002817390769F4309729F41092F8051092B4
:102B2000F70502C013821282D093F605C093F50513
:102B3000DF91CF9108956F927F928F929F92AF9283
:102B4000BF92CF92DF92EF92FF920F931F93CF939A
:102B5000DF93EC01CB01209781F4DF91CF911F919E
:102B60000F91FF90EF90DF90CF90BF90AF909F902C
:102B70008F907F906F900C947414FE01E60FF71FF6
:102B80009E0122503109E217F30708F4ACC0D901C5
:102B90000D911C91119706171707B8F00530110514
:102BA00008F49FC0A801445051094617570708F47C
:102BB00098C002501109061B170B019311936D93D6
:102BC0007C93CF010E940C158CC05B01A01AB10A46
:102BD0004E01800E911EA091F705B091F805612C71
:102BE000712C60E070E0109709F449C0A815B90590
:102BF000C9F5ED90FC901197670142E0C40ED11C1D
:102C0000CA14DB0478F147018A189B08640142E08A
:102C1000C40ED11C1296BC9012971396AC91B5E0DD
:102C2000CB16D10440F0B282A38391828082D90175
:102C30008D939C9309C00E5F1F4F0E0D1F1DF90150
:102C400011830083EB2DFA2F6115710531F0DB0143
:102C50001396FC93EE93129744C0F093F805E0931B
:102C6000F7053FC06D917C9111976616770608F4C1
:102C70003B01BD0112960D90BC91A02DB4CF609187
:102C8000F5057091F60568157905E9F46816790679
:102C9000D0F440910002509101024115510541F4D8
:102CA0004DB75EB76091040270910502461B570B49
:102CB000E417F507C0F4F093F605E093F505F90184
:102CC000918380830EC00E9474147C01009759F098
:102CD000A801BE010E949016CE010E940C15C701EA
:102CE00004C0CE0102C080E090E0DF91CF911F913F
:102CF0000F91FF90EF90DF90CF90BF90AF909F909B
:102D00008F907F906F900895662777270C94AA186C
:102D1000911169C4803219F089508550D0F7089517
:102D2000FB01DC0102C001900D9241505040D8F7E8
:102D30000895FB01DC0101900D920020E1F7089558
:102D4000BB274A3031F4992322F4BDE29095819556
:102D50009F4F0C94AC16BB27FB015527AA27880F61
:102D6000991FAA1FA41710F0A41B83955051B9F7FF
:102D7000A05DAA3308F0A95DA193009779F7B1117E
:102D8000B1931192CB010C94151B0F931F93CF930A
:102D9000DF93EC018B01009731F46115710519F493
:102DA00080E090E038C06EE070E081E090E00E944A
:102DB0001017FC010097A1F380E88383011511052A
:102DC00071F01387028781E883838091F9059091E0
:102DD000FA05892B21F4F093FA05E093F905209781
:102DE000C9F0D187C0878381826083838091FB058E
:102DF0009091FC05892B71F4F093FC05E093FB05A1
:102E00008091FD059091FE05892B21F4F093FE053C
:102E1000E093FD05CF01DF91CF911F910F910895B0
:102E20000F931F93CF93DF93869F8001879F100D91
:102E3000969F100D1124C8010E947414EC01009794
:102E400029F0A80160E070E00E940E1BCE01DF9126
:102E5000CF911F910F9108956F927F929F92AF92A1
:102E6000BF92CF92DF92EF92FF920F931F93CF9377
:102E7000DF93CDB7DEB729970FB6F894DEBF0FBE4C
:102E8000CDBF6A01B22E102F0C3320F4FF24F3942F
:102E9000F00E02C04CE3F42E0F2D27E0AE014F5F81
:102EA0005F4F0E941B1A7981272F2970213031F042
:102EB000E1FC06C0E0FC06C060E005C06DE203C0B6
:102EC0006BE201C060E2AE2DA07173FF36C06623D5
:102ED00011F084E001C083E08B1510F4B81A01C032
:102EE000B12CA1110BC0F6018B2D90E2882319F0B3
:102EF00091938150FBCFCB0CD11CB12C662331F0C8
:102F0000F601608396012F5F3F4F6901C60103966A
:102F1000E2FE05C02EE4F601208331E404C02EE673
:102F2000F601208331E631832283FC012B2D30E230
:102F30002223F1F131932150FBCF72FF40C0662371
:102F400011F084E001C083E08B1510F4B81A01C0C1
:102F5000B12CA1110BC0F6018B2D90E2882319F042
:102F600091938150FBCFCB0CD11CB12C662331F057
:102F7000F601608396012F5F3F4F6901C6010396FA
:102F8000E2FE07C029E4F60120832EE4218326E433
:102F900006C029E6F60120832EE6218326E6228359
:102FA000FC012B2D30E2222319F031932150FBCF6D
:102FB000FC01EB0DF11D10828EEF9FEFB7C0B1E069
:102FC000611101C0B0E04B2F50E01816190624F42F
:102FD0009C012F5F3F4F02C021E030E0240F351FDE
:102FE000112329F0412F50E04F5F5F4F02C040E0B6
:102FF00050E0420F531F2B2D30E04217530714F4BB
:10300000B41A01C0B12C2E2D287159F4F6012B2DC4
:1030100030E2222319F031932150FBCFCB0CD11C8D
:10302000B12CBB2331F0F601608396012F5F3F4F37
:103030006901A1110BC0F6012B2D30E3222319F0F9
:1030400031932150FBCFCB0CD11CB12CF80E0A814F
:10305000372F3071A32E74FF03C0013309F4FA94A3
:103060001F142CF42F2D293018F028E001C021E086
:10307000682F392F97FF02C060E030E0462F532FB2
:10308000612C712C3EE2932EBC01621B71099B01E5
:10309000DC01A41BB50BE1E0F0E0EC0FFD1FAE0F6F
:1030A000BF1FE12EF12CF194E194F1084F3FFFEFA7
:1030B0005F0731F4F6019082B6016F5F7F4F6B01BD
:1030C000841795074CF02417350734F4BD01660DBD
:1030D000771DFB01118101C010E341505109FFEF41
:1030E0006F1A7F0AB6016F5F7F4F4E155F0524F0A0
:1030F000F60110836B01DACF4817590739F406330C
:1031000020F4053319F4A11001C011E3F601108376
:10311000FB018B2D90E2882319F091938150FBCF16
:10312000FB01EB0DF11D108280E090E029960FB6B7
:10313000F894DEBF0FBECDBFDF91CF911F910F91ED
:10314000FF90EF90DF90CF90BF90AF909F907F90D7
:103150006F9008958F929F92AF92BF92CF92DF921D
:10316000EF92FF920F931F93CF93DF938B01611523
:10317000710521F0DB018C9311969C93EC015E01AB
:10318000BFEFAB1ABB0A7501C8808C2D90E00E947E
:103190008816892B11F0E501F2CFEDE2CE1208C0BE
:1031A0007E01F2E0EF0EF11CC980DD24D39409C04A
:1031B0002BE2C21205C07E0142E0E40EF11CC98080
:1031C000D12CE701219743E050E06CEB72E0CE0197
:1031D0000E94F61A892BC1F4239645E050E067EB74
:1031E00072E0CE010E94F61A892B09F4259601158A
:1031F000110519F0D801CD93DC93D11006C160E020
:1032000070E080E89FE70AC143E050E064EB72E0C1
:10321000CE010E94F61A892B59F40115110509F403
:10322000F9C0B2E0EB0EF11CF801F182E082F2C0CD
:10323000F70160E070E0CB01C0E0D0E07F01A0EDDD
:10324000AA2EAC0C29E02A1530F14D2D4260B42E87
:103250002D2D2870D2FE04C0211125C0219623C037
:1032600021112197A5E0B0E09B01AC010E9435142B
:10327000660F771F881F991F6A0D711D811D911D93
:103280006839A9E97A078A07A9E19A0760F0BD2D94
:10329000B660BB2E08C02EEFA2120AC0D3FC50C0ED
:1032A0004D2D4860B42E3196D701CC90DB2CC6CF83
:1032B0002C2D2F7D253409F043C0A081AD3241F47F
:1032C000BD2DB061DB2E7F0122E0E20EF11C0CC0AF
:1032D0007F01AB3231F04FEFE41AF40A21E030E025
:1032E00006C0A2E0EA0EF11CA18122E030E0A0536A
:1032F000AA3018F0E21AF30A23C0F70120E030E008
:103300002038BCE03B075CF4A901440F551F440F73
:10331000551F240F351F220F331F2A0F311DAF01F8
:103320004F5F5F4F7A01A081A053AA3010F4FA01D9
:10333000E7CFD4FE03C0319521953109C20FD31FC9
:10334000D1FE09C00115110531F0E1E0EE1AF108D6
:10335000D801ED92FC920E94EC122D2D23702330A7
:1033600019F04B015C0106C04B015C01B7FAB09447
:10337000B7F8B09420E030E0A901C501B4010E9483
:10338000B712882309F43EC0D7FF06C0D195C19576
:10339000D10903ED12E002C00BEE12E06801B8E1C2
:1033A000CB1AD10890E2E92EF12CCE15DF0574F08E
:1033B000F8012591359145915491C501B4010E94C0
:1033C0009E134B015C01CE19DF09EFCF04501109A8
:1033D000F594E7940C151D0541F78A2D880F8B2D68
:1033E000881F8F3F49F020E030E0A901C501B401FA
:1033F0000E94B712811106C082E290E0909300060D
:103400008093FF05C501B40109C060E070E080E869
:103410009FEF04C060E070E080EC9FE7DF91CF9108
:103420001F910F91FF90EF90DF90CF90BF90AF90E2
:103430009F908F900895283008F027E03327DA0115
:10344000990F311D87FD916000966105710539F472
:1034500032602E5F3D9330E32A95E1F708959F3F58
:1034600030F080387105610509F03C5F3C5F3D93A9
:10347000913008F08068911DDF93CF931F930F93D5
:10348000FF92EF92192F987F9695E92F9695969532
:10349000E90FFF27E75BFC4F99273327EE24FF2432
:1034A000A701E70105900894079428F4360FE71E5A
:1034B000F81E491F511D660F771F881F991F06941C
:1034C000A1F70590079428F4E70EF81E491F561F30
:1034D000C11D770F881F991F661F0694A1F70590DD
:1034E000079428F4F80E491F561FC71FD11D880FD7
:1034F000991F661F771F0694A1F70590079420F483
:10350000490F561FC71FD81F990F661F771F881FA7
:103510000694A9F784911095177041F0D695C79538
:1035200057954795F794E7941A95C1F7EFEEF2E0B7
:1035300068941590159135916591959105907FE26C
:103540007395E118F10A430B560BC90BD009C0F76C
:10355000E10CF11E431F561FC91FD01D7EF47033AE
:1035600011F48A95E6CFE894015030F0080F0AF480
:103570000027021708F4202F2395022F7A3328F012
:1035800079E37D932A95E9F710C07D932A9589F612
:10359000069497956795379517951794E118F10A52
:1035A000430B560BC90BD00998F023957E91739568
:1035B0007A3308F070E37C932013B8F77E91706142
:1035C0007D9330F0839571E37D9370E32A95E1F765
:1035D0001124EF90FF900F911F91CF91DF919927C8
:1035E00087FD90950895992788270895FB01DC01B0
:1035F0004150504088F08D9181341CF08B350CF493
:10360000805E659161341CF06B350CF4605E861B46
:10361000611171F3990B0895881BFCCFDC0101C087
:103620006D9341505040E0F70895DC01FC01672F95
:1036300071917723E1F7329704C07C916D93708389
:103640006291AE17BF07C8F3089513E0C4EFD3E04B
:1036500000E006C022970109FE010BBF0E94401442
:0E366000C63FD10780E00807A9F7F894FFCF16
:10366E0000000106800001000000736A6A6B2E7470
:10367E00302E7478743D2200736A6A6B2E74312E6C
:10368E007478743D2200736A6A6B2E74322E7478CD
:10369E00743D2200736A6A6B2E74332E7478743DF7
:1036AE002200736A6A6B2E74342E7478743D220075
:1036BE0000000000570CE20FAA0BC30BB50B350C24
:00000001FF
