:100000000C9451010C9482010C9482010C94820195
:100010000C9482010C9482010C9482010C94820154
:100020000C9482010C9482010C9482010C94820144
:100030000C9482010C9482010C9482010C94820134
:100040000C9482010C9484030C9482010C94820120
:100050000C9482010C9482010C9482010C944B0646
:100060000C9482010C94A2090C94D8090C9482017E
:100070000C9482010C9482010C9482010C948201F4
:100080000C94B2030C9482010C9482010C948201B2
:100090000C944F0A0C94850A0C9482010C948201F2
:1000A0000C9482010C9482010C94E0030C94820164
:1000B0000C9482010C9482010C9482010C940E0425
:1000C0000C9482010C9482010C9482010C94FC0A21
:1000D0000C94320B0C9482010C94A90B0C94DF0B42
:1000E0000C9482018407870776077A078007BE078A
:1000F0008B078F07950799079D07A307A707AB07EE
:10010000BE07B107B507B9070C945B080C94AF0A9A
:100110000C940C0A0C94B90A0C94BE070C94B50705
:100120000C9476070C9499070C9447080C948F074D
:100130000C94DB080C94660C0C94AB070C94A7078A
:100140000C949E020C9439080C94130C0C949D078B
:100150000C94090C0C942E080C9484070C945C0BE2
:100160000C948B070C94020A0C9480070C947A0769
:100170000C94A3070C94660B0C94B9070C94B90863
:100180000C9487070C94B1070C9495070C94BF024C
:1001900000000A0B02090C0D0E0807030401000001
:1001A000000000000000000000000000000000004F
:1001B000000000000000000000000000121110000C
:1001C000000000000000000000000000000000002F
:1001D000000000000000010210202008081020404C
:1001E00010204080020102010804020101020408FB
:1001F0001020408080402010080402018004020189
:1002000080402010080402010804020101020408D1
:1002100010204080010204081020408005050505DB
:10022000070508080808020202020A0A080804046E
:10023000040401010101010101010303030303039C
:100240000303040707070C0C0C0C0C0C0C0C02022B
:10025000020206060606060606060B0B0B0B0B0B28
:100260000B0B00002200250028002B002E0031007F
:10027000340002010000050108010B01000021000B
:10028000240027002A002D00300033000101000067
:10029000040107010A019E020C0AB90A660B130C3D
:1002A000BF0211241FBECFEFD1E2DEBFCDBF00E001
:1002B0000CBF12E0A0E0B2E0ECEBF0E200E00BBF1C
:1002C00002C007900D92A839B107D9F726E0A8E936
:1002D000B2E001C01D92A531B207E1F712E0C0EA19
:1002E000D2E000E006C022970109FE010BBF0E9488
:1002F000280EC639D10780E00807A9F70E94570CDD
:100300000C944C100C94000040ED57E060E070E05D
:100310008DE593E00E946D0520E032EC41E050E075
:100320006DE973E08DE593E00E9480058DE593E033
:100330000E946A056AE072E080918E0390918F03BB
:100340000E94B20C6AE070E080E090E00E94C40677
:1003500041E060E08DE593E00E94EB0561E083E021
:100360000E94BF0761E084E00E94BF0761E085E072
:100370000E94BF0761E086E00E94BF0761E087E05E
:100380000E94BF0760E088E00E94BF0760E088E04D
:100390000E94BF0760E088E00E94BF0726E040E0BF
:1003A00052EC61E070E08DE993E00E94400926E0A4
:1003B00040E659E060E070E08AE394E00E94400982
:1003C00026E040E052EC61E070E087ED94E00E94AE
:1003D000400926E040E052EC61E070E084E795E0FF
:1003E0000E9440098EEA92E00E942E056BE070E0C8
:1003F0008BEA92E00E9407056CE070E088EA92E0E8
:100400000C940705CF92DF92EF92FF920F931F9308
:100410000E949506672B682B692B41F40E94950674
:10042000623071058105910508F478C08DE593E08F
:100430000E9440056093C0027093C1028093C20283
:100440009093C3020091C4021091C5022091C6028C
:100450003091C702601771078207930740F46093D9
:10046000C4027093C5028093C6029093C7020091A4
:10047000C4021091C5022091C6023091C7026B01DF
:100480007C01C01AD10AE20AF30A970186010A3FE9
:1004900011052105310508F441C06093C402709331
:1004A000C5028093C6029093C7028DE593E00E9437
:1004B0006A056CE172E080918E0390918F030E9437
:1004C000B20C64E272E080918E0390918F030E94DF
:1004D000B20C0E949506AB01BC012AE030E080918D
:1004E0008E0390918F030E94030D66E272E080916B
:1004F0008E0390918F030E94B20C65E070E080E063
:1005000090E00E94C4066AE070E080E090E00E9403
:10051000C40661E08DE593E00E94AD0588E992E0B4
:100520000E94060664E670E080E090E01F910F9163
:10053000FF90EF90DF90CF900C94C40626E04BE044
:1005400066E18EEA92E00E940D058BEA92E00E943D
:100550003C0488EA92E00E943C046EE372E088E981
:1005600092E00E94850D88E0EEE9F2E0DF011D9245
:100570008A95E9F71092A7021092A602089588E9D9
:1005800092E00C94170DCF92DF92EF92FF920F93AF
:100590001F93CF93DF936C018B017A01EC01C7535A
:1005A000DD4F888187FF04C0FB011182108223C0C8
:1005B0002CE02C9DC0012D9D900D11242881AC01B3
:1005C000420F511D27FD5A952091C80230E0421775
:1005D00053078CF42881AC01420F511D27FD5A9519
:1005E0009A01FA01EE0FFF1FE20FF31FE353FD4FD5
:1005F000208126FD19C088818F5F88838CE08C9DC7
:1006000090018D9D300D11248881A901480F511D45
:1006100087FD5A958091C80290E048175907B4F4B5
:1006200088818C303CF112C02881820F911D27FDFA
:100630009A95FC01EE0FFF1FE80FF91FE353FD4FE2
:10064000808160E08F730E94F807D5CFF801808128
:100650009181049680349C4918F480E49CE904C09C
:10066000F801808191810496F701918380838FEF57
:10067000888341C0F801808191814881B901640F6C
:10068000711D47FD7A95AB01FB01EE0FFF1FE40FD3
:10069000F51FE353FD4F41815281840F951FF701F0
:1006A000918380838881A901480F511D87FD5A9548
:1006B000FA01EE0FFF1FE40FF51FE353FD4F80819A
:1006C00086FF19C08881280F311D87FD3A95F901F1
:1006D000EE0FFF1FE20FF31FE353FD4F808161E038
:1006E0008F73DF91CF911F910F91FF90EF90DF906B
:1006F000CF900C94F807DF91CF911F910F91FF904D
:10070000EF90DF90CF9008951F920F920FB60F9247
:1007100011240BB60F922F933F934F935F936F93D8
:100720007F938F939F93AF93BF93EF93FF9348E88B
:1007300050E064E870E081E090E00E94C302FF9125
:10074000EF91BF91AF919F918F917F916F915F9149
:100750004F913F912F910F900BBE0F900FBE0F90B6
:100760001F9018951F920F920FB60F9211240BB67F
:100770000F922F933F934F935F936F937F938F933A
:100780009F93AF93BF93EF93FF9348E950E064E9E1
:1007900070E082E090E00E94C302FF91EF91BF9170
:1007A000AF919F918F917F916F915F914F913F9109
:1007B0002F910F900BBE0F900FBE0F901F901895AA
:1007C0001F920F920FB60F9211240BB60F922F9318
:1007D0003F934F935F936F937F938F939F93AF93C9
:1007E000BF93EF93FF9348EA50E064EA70E083E040
:1007F00090E00E94C302FF91EF91BF91AF919F9152
:100800008F917F916F915F914F913F912F910F90B9
:100810000BBE0F900FBE0F901F9018951F920F9256
:100820000FB60F9211240BB60F922F933F934F9355
:100830005F936F937F938F939F93AF93BF93EF9348
:10084000FF9348E251E064E271E080E090E00E94B2
:10085000C302FF91EF91BF91AF919F918F917F91D3
:100860006F915F914F913F912F910F900BBE0F9021
:100870000FBE0F901F9018952091C8022033A0F44E
:1008800031E0320F3093C802FC012083822F90E0C8
:10089000FC01EE0FFF1FE80FF91FE353FD4F88EB3C
:1008A0009BE09283818308952FEFFC0120830895BC
:1008B000DF92EF92FF920F931F93CF93DF93EC01A0
:1008C000D62E7A0189018881803308F068C061E002
:1008D0008D2D0E94BF078881A82FB0E0FD01EE0F8B
:1008E000FF1FEA0FFB1FE353FD4F2D2D2F73908148
:1008F000907C922B908360E272E06E197F0977FF03
:1009000002C06D5F7F4F7595679575956795698393
:1009100040E659E0401B510B57FF02C04D5F5F4F4F
:1009200055954795559547954A836CE00E94F40D7F
:100930009CE0899FB001112420E030E0A901460F1E
:10094000571FFA01EE0FFF1FE40FF51FE353FD4F92
:10095000908196FD18C02F5F3F4F2C30310571F705
:1009600090E08130910521F51092800082E0809323
:1009700081001092850010928400B19A80916F00DE
:10098000826080936F00888190E0FC01EE0FFF1F72
:10099000E80FF91FE353FD4F8081806480838881D5
:1009A000DF91CF911F910F91FF90EF90DF9008950D
:1009B0008230910569F41092900082E0809391005A
:1009C000109295001092940088BB80937100DBCF49
:1009D0008330910569F41092A00082E08093A10019
:1009E0001092A5001092A40089BB80937200CBCF17
:1009F000892B49F61092200182E080932101109208
:100A00002501109224018ABB80937300BCCF20E69D
:100A100039E040E252E00C945804DC0115966C93E6
:100A2000159716964C93169770E0FB01EA52FE4F0D
:100A3000E4911796EC931797FB01E45EFD4F6491E8
:100A400018966C93189740E85EE360E070E01D969E
:100A50004D935D936D937C9350970895CF93DF935F
:100A6000EC0162E08D810E94BF0740E358EF6FEF19
:100A70007FEF49875A876B877C87DF91CF910895F5
:100A80000C9495060F931F93CF93DF93EC0166238D
:100A900059F00E94950669837A838B839C83DF914A
:100AA000CF911F910F9108950E94950609811A8197
:100AB0002B813C81601B710B820B930B643671059B
:100AC0008105910530F763E070E080E090E00E94DE
:100AD000C406EACF60E00C944205FC0113AA14AAF4
:100AE00015AA16AA11821282138214824115510589
:100AF0006105710521F0CB01BA010C94C40608957B
:100B0000FB01BA01A901DC01D296FC93EE93D197C7
:100B100026E0CF010C9440091F93CF93DF93EC01A3
:100B2000162F6FE272E089A99AA90E94B20C4AE0DE
:100B300050E0612F89A99AA90E94100D66E372E026
:100B400089A99AA90E94B20C62E370E080E090E06B
:100B5000DF91CF911F910C94C4061F93CF93DF9325
:100B6000EC01162F8D81882389F189A99AA9DC01CE
:100B7000ED91FC910480F581E02D1995892BA9F365
:100B800007C02637310519F12835310509F41D82D2
:100B900089A99AA9DC01ED91FC910480F581E02DF1
:100BA00019951816190694F489A99AA9DC01ED91F2
:100BB000FC910680F781E02D19959C01332723369F
:100BC0003105F9F6612FCE010E948C0583E6DF9195
:100BD000CF911F9108950F931F93CF93DF931F928F
:100BE000CDB7DEB78C01662349F081E0F80185833B
:100BF00060E0C80149830E94AD054981F801458341
:100C00000F90DF91CF911F910F910895CF93DF93B4
:100C1000EC018DE993E00E942E0818161906B4F530
:100C20008DE993E00E9439088F3F910589F088E7AC
:100C300090E00E94FE068DE993E00E944708682F2D
:100C4000CE010E94DF0D88E790E00E94FE06E8CF0B
:100C50008DE993E00E94470888E790E00E94FE0635
:100C60008DE993E00E94470888E790E00E94FE0625
:100C70008DE993E00E944708BE018DE993E00E9450
:100C8000A40C6EE372E0CE010E949B0D81E090E027
:100C9000DF91CF9108951F920F920FB60F921124FA
:100CA0002F933F938F939F93AF93BF93809195031F
:100CB00090919603A0919703B0919803309194037B
:100CC00023E0230F2D3720F40196A11DB11D05C08F
:100CD00026E8230F0296A11DB11D20939403809353
:100CE000950390939603A0939703B09398038091F4
:100CF000990390919A03A0919B03B0919C03019654
:100D0000A11DB11D8093990390939A03A0939B0317
:100D1000B0939C03BF91AF919F918F913F912F9181
:100D20000F900FBE0F901F9018952FB7F8946091F9
:100D300095037091960380919703909198032FBF2C
:100D400008953FB7F8948091990390919A03A091E8
:100D50009B03B0919C0326B5A89B05C02F3F19F0BB
:100D60000196A11DB11D3FBF6627782F892F9A2FAD
:100D7000620F711D811D911D42E0660F771F881F54
:100D8000991F4A95D1F708958F929F92AF92BF9283
:100D9000CF92DF92EF92FF926B017C010E94A1063D
:100DA0004B015C01C114D104E104F104F1F00E9493
:100DB000F30D0E94A106681979098A099B09683E0A
:100DC00073408105910570F321E0C21AD108E10852
:100DD000F10888EE880E83E0981EA11CB11CC11496
:100DE000D104E104F10429F7DDCFFF90EF90DF900B
:100DF000CF90BF90AF909F908F90089582309105D3
:100E000038F0880F991F880F991F05970197F1F700
:100E10000895789484B5826084BD84B5816084BD72
:100E200085B5826085BD85B5816085BDEEE6F0E063
:100E3000808181608083E1E8F0E0108280818260BF
:100E40008083808181608083E0E8F0E08081816040
:100E50008083E1EBF0E0808184608083E0EBF0E070
:100E6000808181608083E1E9F0E08081826080831D
:100E7000808181608083E0E9F0E08081816080830F
:100E8000E1EAF0E0808182608083808181608083FC
:100E9000E0EAF0E0808181608083E1E2F1E080813E
:100EA00082608083808181608083E0E2F1E08081E4
:100EB00081608083EAE7F0E08081846080838081C4
:100EC000826080838081816080838081806880836C
:100ED0001092C100089590E0FC013197E231F105D4
:100EE00008F04CC0EE58FF4F0C94220E8091800009
:100EF0008F7703C0809180008F7D8093800008955C
:100F000080918000877FF9CF84B58F7702C084B548
:100F10008F7D84BD08958091B0008F7703C080914C
:100F2000B0008F7D8093B0000895809190008F77FE
:100F300007C0809190008F7D03C080919000877FD3
:100F40008093900008958091A0008F7707C08091D2
:100F5000A0008F7D03C08091A000877F8093A000B8
:100F60000895809120018F7707C0809120018F7DA7
:100F700003C080912001877F809320010895CF9343
:100F8000DF9390E0FC01EA52FE4F2491FC01E45E05
:100F9000FD4F8491882349F190E0880F991FFC014F
:100FA000E458FD4FA591B4918E599D4FFC01C59118
:100FB000D4919FB7611108C0F8948C912095822339
:100FC0008C93888182230AC0623051F4F8948C910A
:100FD000322F309583238C938881822B888304C0A1
:100FE000F8948C91822B8C939FBFDF91CF910895C1
:100FF0000F931F93CF93DF931F92CDB7DEB7282FA8
:1010000030E0F901E057FE4F8491F901EA52FE4FBA
:101010001491F901E45EFD4F04910023C9F0882387
:1010200021F069830E946B076981E02FF0E0EE0FE9
:10103000FF1FEE59FD4FA591B4919FB7F8948C9185
:10104000611103C01095812301C0812B8C939FBF38
:101050000F90DF91CF911F910F910895FC01818D29
:10106000228D90E0805C9F4F821B91098F7399279E
:101070000895FC01918D828D981731F0828DE80FD3
:10108000F11D858D90E008958FEF9FEF0895FC018D
:10109000918D828D981761F0828DDF01A80FB11DAF
:1010A0005D968C91928D9F5F9F73928F90E00895D3
:1010B0008FEF9FEF089582E09AE0892B41F080E066
:1010C00090E0892B21F00E94020A811125C08FEA4D
:1010D0009AE0892B41F080E090E0892B21F00E947A
:1010E000AF0A81111CC08CE59BE0892B41F080E0A8
:1010F00090E0892B21F00E945C0B811113C089E0E4
:101100009CE0892BA1F080E090E0892B81F00E9487
:10111000090C81110AC008950E940000D8CF0E94D6
:101120000000E1CF0E940000EACF0C940000089577
:10113000FC01848DDF01A80FB11DA35ABF4F2C9174
:10114000848D90E001968F739927848FA689B78943
:101150002C93A089B1898C9180648C93938D848D1C
:10116000981306C00288F389E02D80818F7D8083EB
:101170000895CF93DF93EC01888D8823C9F0EA8925
:10118000FB89808185FD05C0A889B9898C9186FD80
:101190000FC00FB607FCF5CF808185FFF2CFA8897D
:1011A000B9898C9185FFEDCFCE010E949808E7CFD9
:1011B000DF91CF910895CF92DF92FF920F931F930B
:1011C000CF93DF931F92CDB7DEB76C0181E0D601DC
:1011D00058968C9358975B969C915B975C968C91F4
:1011E0005C97981307C05096ED91FC9151978081C0
:1011F00085FD2EC0F601038D10E00F5F1F4F0F73AA
:101200001127F02EF601848DF81211C00FB607FCDD
:10121000F9CFD6015096ED91FC915197808185FFD1
:10122000F1CFC60169830E9498086981EBCF838D55
:10123000E80FF11DE35AFF4F6083D6015B960C93D4
:101240005B975296ED91FC915397808180620CC020
:10125000D6015696ED91FC91579760835096ED918B
:10126000FC91519780818064808381E090E00F90B1
:10127000DF91CF911F910F91FF90DF90CF90089554
:10128000BF92CF92DF92EF92FF92CF93DF93EC0168
:101290006A017B01B22EE889F98982E080834115D9
:1012A00081EE580761057105A1F060E079E08DE3FA
:1012B00090E0A70196010E94000E215031094109DA
:1012C00051095695479537952795211580E138079F
:1012D00098F0E889F989108260E874E88EE190E07E
:1012E000A70196010E94000E2150310941095109C0
:1012F0005695479537952795EC85FD853083EE8586
:10130000FF852083188EEC89FD89B082EA89FB89EC
:10131000808180618083EA89FB8980818860808305
:10132000EA89FB89808180688083EA89FB898081E2
:101330008F7D8083DF91CF91FF90EF90DF90CF90F2
:10134000BF9008951F920F920FB60F9211240BB603
:101350000F922F938F939F93EF93FF93E091AD03A1
:10136000F091AE038081E091B303F091B40382FD6C
:1013700012C090818091B6038F5F8F732091B70365
:10138000821751F0E091B603F0E0E356FC4F958FE1
:101390008093B60301C08081FF91EF919F918F915F
:1013A0002F910F900BBE0F900FBE0F901F901895AE
:1013B0001F920F920FB60F9211240BB60F922F931C
:1013C0003F934F935F936F937F938F939F93AF93CD
:1013D000BF93EF93FF938DE993E00E949808FF91EC
:1013E000EF91BF91AF919F918F917F916F915F919D
:1013F0004F913F912F910F900BBE0F900FBE0F900A
:101400001F9018958DE993E00E942E0821E0892B0A
:1014100009F420E0822F08951092A00310929F03F8
:1014200088EE93E0A0E0B0E08093A1039093A20344
:10143000A093A303B093A4038BE892E090939E0340
:1014400080939D0385EC90E09093AA038093A90379
:1014500084EC90E09093AC038093AB0380EC90E03D
:101460009093AE038093AD0381EC90E09093B00332
:101470008093AF0382EC90E09093B2038093B1032A
:1014800086EC90E09093B4038093B3031092B6037C
:101490001092B7031092B8031092B90308951F92E7
:1014A0000F920FB60F9211240BB60F922F938F93BA
:1014B0009F93EF93FF93E0914A04F0914B04808156
:1014C000E0915004F091510482FD12C0908180910E
:1014D00053048F5F8F7320915404821751F0E09171
:1014E0005304F0E0E65CFB4F958F8093530401C0FA
:1014F0008081FF91EF919F918F912F910F900BBE63
:101500000F900FBE0F901F9018951F920F920FB65D
:101510000F9211240BB60F922F933F934F935F932B
:101520006F937F938F939F93AF93BF93EF93FF93AB
:101530008AE394E00E949808FF91EF91BF91AF91E8
:101540009F918F917F916F915F914F913F912F91DB
:101550000F900BBE0F900FBE0F901F9018958AE34F
:1015600094E00E942E0821E0892B09F420E0822FCC
:10157000089510923D0410923C0488EE93E0A0E0A0
:10158000B0E080933E0490933F04A0934004B09356
:1015900041048BE892E090933B0480933A048DECF5
:1015A00090E090934704809346048CEC90E09093F5
:1015B00049048093480488EC90E090934B04809316
:1015C0004A0489EC90E090934D0480934C048AEC9B
:1015D00090E090934F0480934E048EEC90E09093B3
:1015E00051048093500410925304109254041092AA
:1015F00055041092560408951F920F920FB60F9241
:1016000011240BB60F922F938F939F93EF93FF9319
:10161000E091E704F091E8048081E091ED04F0911D
:10162000EE0482FD12C090818091F0048F5F8F7371
:101630002091F104821751F0E091F004F0E0E952BA
:10164000FB4F958F8093F00401C08081FF91EF9153
:101650009F918F912F910F900BBE0F900FBE0F9007
:101660001F9018951F920F920FB60F9211240BB670
:101670000F922F933F934F935F936F937F938F932B
:101680009F93AF93BF93EF93FF9387ED94E00E94F6
:101690009808FF91EF91BF91AF919F918F917F91AA
:1016A0006F915F914F913F912F910F900BBE0F90D3
:1016B0000FBE0F901F90189587ED94E00E942E08A2
:1016C00021E0892B09F420E0822F08951092DA049A
:1016D0001092D90488EE93E0A0E0B0E08093DB04A0
:1016E0009093DC04A093DD04B093DE048BE892E0D9
:1016F0009093D8048093D70485ED90E09093E40410
:101700008093E30484ED90E09093E6048093E504F5
:1017100080ED90E09093E8048093E70481ED90E001
:101720009093EA048093E90482ED90E09093EC04B6
:101730008093EB0486ED90E09093EE048093ED04AB
:101740001092F0041092F1041092F2041092F3043B
:1017500008951F920F920FB60F9211240BB60F929D
:101760002F938F939F93EF93FF93E0918405F091D4
:1017700085058081E0918A05F0918B0582FD12C07C
:10178000908180918D058F5F8F7320918E058217D8
:1017900051F0E0918D05F0E0EC58FA4F958F809371
:1017A0008D0501C08081FF91EF919F918F912F91C5
:1017B0000F900BBE0F900FBE0F901F9018951F92A9
:1017C0000F920FB60F9211240BB60F922F933F93E7
:1017D0004F935F936F937F938F939F93AF93BF9339
:1017E000EF93FF9384E795E00E949808FF91EF91B3
:1017F000BF91AF919F918F917F916F915F914F9129
:101800003F912F910F900BBE0F900FBE0F901F9026
:10181000189584E795E00E942E0821E0892B09F4B1
:1018200020E0822F0895109277051092760588EEB9
:1018300093E0A0E0B0E08093780590937905A093C1
:101840007A05B0937B058BE892E0909375058093C1
:10185000740585E391E0909381058093800584E38E
:1018600091E0909383058093820580E391E09093CB
:1018700085058093840581E391E0909387058093AB
:10188000860582E391E0909389058093880586E33D
:1018900091E090938B0580938A0510928D051092AC
:1018A0008E0510928F0510929005089508950E945C
:1018B00009070E94560C0E948401CBE5D8E00E94E3
:1018C00002022097E1F30E945B08F9CFCF92DF92EA
:1018D000EF92FF920F931F93CF93DF937C016A01E6
:1018E000EB0100E010E00C151D0571F06991D701C6
:1018F000ED91FC910190F081E02DC7011995892BA4
:1019000019F00F5F1F4FEFCFC801DF91CF911F91EB
:101910000F91FF90EF90DF90CF90089561157105C2
:1019200081F0DB010D900020E9F7AD014150510934
:10193000461B570BDC01ED91FC910280F381E02DF9
:10194000199480E090E00895DC01ED91FC91DB01B9
:1019500014964D915C9115976D917C910280F38165
:10196000E02D19940C948E0C8F929F92AF92BF929F
:10197000DF92EF92FF920F931F93CF93DF93CDB738
:10198000DEB7A1970FB6F894DEBF0FBECDBF7C01C6
:10199000F42FD52ECB0119A2223008F42AE08E01B3
:1019A0000F5D1F4F822E912CA12CB12C6F2F7D2DFE
:1019B000A50194010E94000EF22FD32ECA010150FE
:1019C00011096A3014F4E0E301C0E7E3E60FD8013F
:1019D000EC93232B242B252B49F7B801C7010E9438
:1019E0008E0CA1960FB6F894DEBF0FBECDBFDF916F
:1019F000CF911F910F91FF90EF90DF90BF90AF902C
:101A00009F908F9008952115310541F4DC01ED91EF
:101A1000FC910190F081E02D642F19940C94B40C8A
:101A20009A01462F50E060E070E00C94030DFC0139
:101A3000808191810C94C40ECF93DF93EC01888157
:101A40009981009711F00E94C40E198218821D829C
:101A50001C821B821A82DF91CF9108950F931F93EE
:101A6000CF93DF93EC018B016F5F7F4F888199816A
:101A70000E94530F009731F0998388831B830A8358
:101A800081E001C080E0DF91CF911F910F91089517
:101A9000CF93DF93EC0188819981892B29F08A818A
:101AA0009B818617970760F4CE010E942E0D882334
:101AB00041F08C819D81892B19F4E881F981108294
:101AC00081E0DF91CF910895EF92FF920F931F93E2
:101AD000CF93DF93EC017B018A01BA010E94480D8C
:101AE000811104C0CE010E941C0D07C01D830C8310
:101AF000B701888199810E944510CE01DF91CF9175
:101B00001F910F91FF90EF900895FC0111821082B8
:101B100013821282158214826115710559F0FB013E
:101B200001900020E9F7AF0141505109461B570BC6
:101B30000C94640D0895CF93DF93EC01611571054A
:101B400061F0FB0101900020E9F7AF01415051091C
:101B5000461B570B0E94640D02C00E941C0DCE0153
:101B6000DF91CF910895EF92FF920F931F93CF9340
:101B7000DF93EC017B010C811D816115710511F46E
:101B800080E016C04115510591F0040F151FB801F2
:101B90000E94480D8823A1F3288139818C819D8181
:101BA000B701820F931F0E9445101D830C8381E0B3
:101BB000DF91CF911F910F91FF90EF900895CF93F8
:101BC000DF931F921F92CDB7DEB769831A8241E07F
:101BD00050E0BE016F5F7F4F0E94B30D0F900F90DA
:101BE000DF91CF9108950895991B79E004C0991F62
:101BF000961708F0961B881F7A95C9F78095089567
:101C0000A1E21A2EAA1BBB1BFD010DC0AA1FBB1F00
:101C1000EE1FFF1FA217B307E407F50720F0A21B72
:101C2000B30BE40BF50B661F771F881F991F1A94DF
:101C300069F760957095809590959B01AC01BD0109
:101C4000CF010895EE0FFF1F0590F491E02D199438
:101C50000790F691E02D1994CF93DF938230910590
:101C600010F482E090E0E0911306F091140620E079
:101C700030E0A0E0B0E0309739F140815181481761
:101C80005907B8F04817590771F48281938110976A
:101C900029F013969C938E9312972CC09093140660
:101CA0008093130627C02115310531F042175307E1
:101CB00018F0A901DB0101C0EF019A01BD01DF01AC
:101CC0000280F381E02DD7CF21153105F9F0281BD3
:101CD000390B2430310580F48A819B8161157105AF
:101CE00021F0FB019383828304C0909314068093B8
:101CF0001306FE01329644C0FE01E20FF31F8193EA
:101D0000919322503109398328833AC020911106DA
:101D100030911206232B41F42091020230910302EC
:101D20003093120620931106209100023091010297
:101D30002115310541F42DB73EB740910402509171
:101D40000502241B350BE0911106F0911206E217F3
:101D5000F307A0F42E1B3F0B2817390778F0AC01CE
:101D60004E5F5F4F2417350748F04E0F5F1F5093AB
:101D70001206409311068193919302C0E0E0F0E0D7
:101D8000CF01DF91CF910895CF93DF93009709F4AE
:101D900087C0FC01329713821282C0911306D09142
:101DA0001406209781F420813181280F391F8091FA
:101DB0001106909112068217930779F5F093120697
:101DC000E09311066DC0DE0120E030E0AE17BF07E2
:101DD00050F412964D915C9113979D014115510558
:101DE00009F1DA01F3CFB383A28340815181840FDB
:101DF000951F8A179B0771F48D919C911197840F01
:101E0000951F02969183808312968D919C911397D2
:101E1000938382832115310529F4F0931406E0930E
:101E200013063EC0D9011396FC93EE9312974D9181
:101E30005D91A40FB51FEA17FB0779F480819181AA
:101E4000840F951F0296D90111969C938E938281DF
:101E5000938113969C938E931297E0E0F0E08A8131
:101E60009B81009719F0FE01EC01F9CFCE0102969B
:101E700028813981820F931F20911106309112061B
:101E80002817390769F4309729F410921406109234
:101E9000130602C013821282D0931206C093110659
:101EA000DF91CF9108956F927F928F929F92AF9220
:101EB000BF92CF92DF92EF92FF920F931F93CF9337
:101EC000DF93EC01CB01209781F4DF91CF911F913B
:101ED0000F91FF90EF90DF90CF90BF90AF909F90C9
:101EE0008F907F906F900C942C0EFE01E60FF71FE1
:101EF0009E0122503109E217F30708F4ACC0D90162
:101F00000D911C91119706171707B8F005301105B0
:101F100008F49FC0A801445051094617570708F418
:101F200098C002501109061B170B019311936D9372
:101F30007C93CF010E94C40E8CC05B01A01AB10A31
:101F40004E01800E911EA0911306B0911406612CD3
:101F5000712C60E070E0109709F449C0A815B9052C
:101F6000C9F5ED90FC901197670142E0C40ED11CB9
:101F7000CA14DB0478F147018A189B08640142E027
:101F8000C40ED11C1296BC9012971396AC91B5E07A
:101F9000CB16D10440F0B282A38391828082D90112
:101FA0008D939C9309C00E5F1F4F0E0D1F1DF901ED
:101FB00011830083EB2DFA2F6115710531F0DB01E0
:101FC0001396FC93EE93129744C0F0931406E0939B
:101FD00013063FC06D917C9111976616770608F441
:101FE0003B01BD0112960D90BC91A02DB4CF609124
:101FF00011067091120668157905E9F468167906DC
:10200000D0F440910002509101024115510541F474
:102010004DB75EB76091040270910502461B570BE5
:10202000E417F507C0F4F0931206E0931106F901E6
:10203000918380830EC00E942C0E7C01009759F082
:10204000A801BE010E943C10CE010E94C40EC7012F
:1020500004C0CE0102C080E090E0DF91CF911F91DB
:102060000F91FF90EF90DF90CF90BF90AF909F9037
:102070008F907F906F900895FB01DC0102C001906A
:102080000D9241505040D8F70895FB01DC010190BA
:102090000D920020E1F7089512E0C0EAD2E000E0DE
:1020A00006C022970109FE010BBF0E94280EC23A0A
:0C20B000D10780E00807A9F7F894FFCFE3
:1020BC0000001506800001000000564D4450565F8C
:1020CC00317C315F564D4450560D0A00564D4450EC
:1020DC00455F31007C005F564D4450450D0A00565B
:1020EC004D4450435F005F564D4450430D0A00452C
:1020FC0072726F723A20417474656D707420746FD3
:10210C0020736574206120726561642D6F6E6C792B
:10211C00207661726961626C65206F7220646174F3
:10212C00612074797065206E6F7420737570706F98
:10213C00727465640D0A0000000000DB08660C2E4A
:08214C000847083908B9080032
:00000001FF
